
rx_si4463.elf:     file format elf32-littlearm

Sections:
Idx Name          Size      VMA       LMA       File off  Algn
  0 .isr_vector   0000010c  08000000  08000000  00010000  2**0
                  CONTENTS, ALLOC, LOAD, READONLY, DATA
  1 .text         000027e4  0800010c  0800010c  0001010c  2**2
                  CONTENTS, ALLOC, LOAD, READONLY, CODE
  2 .rodata       000001d8  080028f0  080028f0  000128f0  2**2
                  CONTENTS, ALLOC, LOAD, READONLY, DATA
  3 .ARM.extab    00000000  08002ac8  08002ac8  0002000c  2**0
                  CONTENTS
  4 .ARM          00000000  08002ac8  08002ac8  0002000c  2**0
                  CONTENTS
  5 .preinit_array 00000000  08002ac8  08002ac8  0002000c  2**0
                  CONTENTS, ALLOC, LOAD, DATA
  6 .init_array   00000004  08002ac8  08002ac8  00012ac8  2**2
                  CONTENTS, ALLOC, LOAD, DATA
  7 .fini_array   00000004  08002acc  08002acc  00012acc  2**2
                  CONTENTS, ALLOC, LOAD, DATA
  8 .data         0000000c  20000000  08002ad0  00020000  2**2
                  CONTENTS, ALLOC, LOAD, DATA
  9 .bss          000000c8  2000000c  08002adc  0002000c  2**2
                  ALLOC
 10 ._user_heap_stack 00000604  200000d4  08002adc  000200d4  2**0
                  ALLOC
 11 .ARM.attributes 00000029  00000000  00000000  0002000c  2**0
                  CONTENTS, READONLY
 12 .debug_info   00007e7a  00000000  00000000  00020035  2**0
                  CONTENTS, READONLY, DEBUGGING
 13 .debug_abbrev 00001606  00000000  00000000  00027eaf  2**0
                  CONTENTS, READONLY, DEBUGGING
 14 .debug_aranges 00000878  00000000  00000000  000294b8  2**3
                  CONTENTS, READONLY, DEBUGGING
 15 .debug_ranges 000007f0  00000000  00000000  00029d30  2**3
                  CONTENTS, READONLY, DEBUGGING
 16 .debug_macro  00017f17  00000000  00000000  0002a520  2**0
                  CONTENTS, READONLY, DEBUGGING
 17 .debug_line   0000681a  00000000  00000000  00042437  2**0
                  CONTENTS, READONLY, DEBUGGING
 18 .debug_str    00081ca3  00000000  00000000  00048c51  2**0
                  CONTENTS, READONLY, DEBUGGING
 19 .comment      0000007b  00000000  00000000  000ca8f4  2**0
                  CONTENTS, READONLY
 20 .debug_frame  00002218  00000000  00000000  000ca970  2**2
                  CONTENTS, READONLY, DEBUGGING

Disassembly of section .text:

0800010c <__do_global_dtors_aux>:
 800010c:	b510      	push	{r4, lr}
 800010e:	4c05      	ldr	r4, [pc, #20]	; (8000124 <__do_global_dtors_aux+0x18>)
 8000110:	7823      	ldrb	r3, [r4, #0]
 8000112:	b933      	cbnz	r3, 8000122 <__do_global_dtors_aux+0x16>
 8000114:	4b04      	ldr	r3, [pc, #16]	; (8000128 <__do_global_dtors_aux+0x1c>)
 8000116:	b113      	cbz	r3, 800011e <__do_global_dtors_aux+0x12>
 8000118:	4804      	ldr	r0, [pc, #16]	; (800012c <__do_global_dtors_aux+0x20>)
 800011a:	f3af 8000 	nop.w
 800011e:	2301      	movs	r3, #1
 8000120:	7023      	strb	r3, [r4, #0]
 8000122:	bd10      	pop	{r4, pc}
 8000124:	2000000c 	.word	0x2000000c
 8000128:	00000000 	.word	0x00000000
 800012c:	080028d8 	.word	0x080028d8

08000130 <frame_dummy>:
 8000130:	b508      	push	{r3, lr}
 8000132:	4b03      	ldr	r3, [pc, #12]	; (8000140 <frame_dummy+0x10>)
 8000134:	b11b      	cbz	r3, 800013e <frame_dummy+0xe>
 8000136:	4903      	ldr	r1, [pc, #12]	; (8000144 <frame_dummy+0x14>)
 8000138:	4803      	ldr	r0, [pc, #12]	; (8000148 <frame_dummy+0x18>)
 800013a:	f3af 8000 	nop.w
 800013e:	bd08      	pop	{r3, pc}
 8000140:	00000000 	.word	0x00000000
 8000144:	20000010 	.word	0x20000010
 8000148:	080028d8 	.word	0x080028d8

0800014c <main>:
/**
  * @brief  The application entry point.
  * @retval int
  */
int main(void)
{
 800014c:	b5b0      	push	{r4, r5, r7, lr}
 800014e:	b092      	sub	sp, #72	; 0x48
 8000150:	af02      	add	r7, sp, #8
  /* USER CODE END 1 */

  /* MCU Configuration--------------------------------------------------------*/

  /* Reset of all peripherals, Initializes the Flash interface and the Systick. */
  HAL_Init();
 8000152:	f000 faef 	bl	8000734 <HAL_Init>
  /* USER CODE BEGIN Init */

  /* USER CODE END Init */

  /* Configure the system clock */
  SystemClock_Config();
 8000156:	f000 f88d 	bl	8000274 <_Z18SystemClock_Configv>
  /* USER CODE BEGIN SysInit */

  /* USER CODE END SysInit */

  /* Initialize all configured peripherals */
  MX_GPIO_Init();
 800015a:	f000 f93b 	bl	80003d4 <_ZL12MX_GPIO_Initv>
  MX_SPI1_Init();
 800015e:	f000 f8cf 	bl	8000300 <_ZL12MX_SPI1_Initv>
  MX_USART1_UART_Init();
 8000162:	f000 f909 	bl	8000378 <_ZL19MX_USART1_UART_Initv>
  /* USER CODE BEGIN 2 */
  si446x rf(GPIOA, &hspi1, nSEL_Pin, SHUTDOWN_Pin, nIRQ_Pin); //446x object
 8000166:	f107 0018 	add.w	r0, r7, #24
 800016a:	2301      	movs	r3, #1
 800016c:	9301      	str	r3, [sp, #4]
 800016e:	2308      	movs	r3, #8
 8000170:	9300      	str	r3, [sp, #0]
 8000172:	2302      	movs	r3, #2
 8000174:	4a38      	ldr	r2, [pc, #224]	; (8000258 <main+0x10c>)
 8000176:	4939      	ldr	r1, [pc, #228]	; (800025c <main+0x110>)
 8000178:	f002 f95a 	bl	8002430 <_ZN6si446xC1EP12GPIO_TypeDefP19__SPI_HandleTypeDefttt>
  rf.powerUp(); //Power up
 800017c:	f107 0318 	add.w	r3, r7, #24
 8000180:	4618      	mov	r0, r3
 8000182:	f002 f97b 	bl	800247c <_ZN6si446x7powerUpEv>
  /* Infinite loop */
  /* USER CODE BEGIN WHILE */
  while (1)
  {
    /* USER CODE END WHILE */
	if(HAL_GPIO_ReadPin(GPIOA, CTS_Pin) == GPIO_PIN_SET)
 8000186:	2104      	movs	r1, #4
 8000188:	4834      	ldr	r0, [pc, #208]	; (800025c <main+0x110>)
 800018a:	f000 fdbf 	bl	8000d0c <HAL_GPIO_ReadPin>
 800018e:	4603      	mov	r3, r0
 8000190:	2b01      	cmp	r3, #1
 8000192:	bf0c      	ite	eq
 8000194:	2301      	moveq	r3, #1
 8000196:	2300      	movne	r3, #0
 8000198:	b2db      	uxtb	r3, r3
 800019a:	2b00      	cmp	r3, #0
 800019c:	d0f3      	beq.n	8000186 <main+0x3a>
	{
	    for(int i = 0; i<2; i++) //Blink two times as heartbeat
 800019e:	2300      	movs	r3, #0
 80001a0:	63fb      	str	r3, [r7, #60]	; 0x3c
 80001a2:	6bfb      	ldr	r3, [r7, #60]	; 0x3c
 80001a4:	2b01      	cmp	r3, #1
 80001a6:	dc15      	bgt.n	80001d4 <main+0x88>
		{
			HAL_GPIO_WritePin(GPIOC, LED_ONBOARD_Pin, GPIO_PIN_SET);
 80001a8:	2201      	movs	r2, #1
 80001aa:	f44f 5100 	mov.w	r1, #8192	; 0x2000
 80001ae:	482c      	ldr	r0, [pc, #176]	; (8000260 <main+0x114>)
 80001b0:	f000 fdc3 	bl	8000d3a <HAL_GPIO_WritePin>
			HAL_Delay(100);
 80001b4:	2064      	movs	r0, #100	; 0x64
 80001b6:	f000 fb1f 	bl	80007f8 <HAL_Delay>
			HAL_GPIO_WritePin(GPIOC, LED_ONBOARD_Pin, GPIO_PIN_RESET);
 80001ba:	2200      	movs	r2, #0
 80001bc:	f44f 5100 	mov.w	r1, #8192	; 0x2000
 80001c0:	4827      	ldr	r0, [pc, #156]	; (8000260 <main+0x114>)
 80001c2:	f000 fdba 	bl	8000d3a <HAL_GPIO_WritePin>
		    HAL_Delay(100);
 80001c6:	2064      	movs	r0, #100	; 0x64
 80001c8:	f000 fb16 	bl	80007f8 <HAL_Delay>
	    for(int i = 0; i<2; i++) //Blink two times as heartbeat
 80001cc:	6bfb      	ldr	r3, [r7, #60]	; 0x3c
 80001ce:	3301      	adds	r3, #1
 80001d0:	63fb      	str	r3, [r7, #60]	; 0x3c
 80001d2:	e7e6      	b.n	80001a2 <main+0x56>
		}




		for(int j = 0; j < 5; j++)
 80001d4:	2300      	movs	r3, #0
 80001d6:	63bb      	str	r3, [r7, #56]	; 0x38
 80001d8:	6bbb      	ldr	r3, [r7, #56]	; 0x38
 80001da:	2b04      	cmp	r3, #4
 80001dc:	dcd3      	bgt.n	8000186 <main+0x3a>
		{
			rf.startRX(1);
 80001de:	f107 0318 	add.w	r3, r7, #24
 80001e2:	2101      	movs	r1, #1
 80001e4:	4618      	mov	r0, r3
 80001e6:	f002 fa51 	bl	800268c <_ZN6si446x7startRXEh>
			HAL_Delay(75);
 80001ea:	204b      	movs	r0, #75	; 0x4b
 80001ec:	f000 fb04 	bl	80007f8 <HAL_Delay>
			fifoBytes = rf.getRxFifoInfo();
 80001f0:	f107 0318 	add.w	r3, r7, #24
 80001f4:	4618      	mov	r0, r3
 80001f6:	f002 fa6e 	bl	80026d6 <_ZN6si446x13getRxFifoInfoEv>
 80001fa:	4603      	mov	r3, r0
 80001fc:	461a      	mov	r2, r3
 80001fe:	4b19      	ldr	r3, [pc, #100]	; (8000264 <main+0x118>)
 8000200:	701a      	strb	r2, [r3, #0]
			if(fifoBytes > 0)
 8000202:	4b18      	ldr	r3, [pc, #96]	; (8000264 <main+0x118>)
 8000204:	781b      	ldrb	r3, [r3, #0]
 8000206:	2b00      	cmp	r3, #0
 8000208:	d021      	beq.n	800024e <main+0x102>
			{
			  uint8_t packetReceived[] = "/n Packet Received \n";
 800020a:	4b17      	ldr	r3, [pc, #92]	; (8000268 <main+0x11c>)
 800020c:	463c      	mov	r4, r7
 800020e:	461d      	mov	r5, r3
 8000210:	cd0f      	ldmia	r5!, {r0, r1, r2, r3}
 8000212:	c40f      	stmia	r4!, {r0, r1, r2, r3}
 8000214:	e895 0003 	ldmia.w	r5, {r0, r1}
 8000218:	6020      	str	r0, [r4, #0]
 800021a:	3404      	adds	r4, #4
 800021c:	7021      	strb	r1, [r4, #0]
			  HAL_UART_Transmit(&huart1, packetReceived, sizeof(packetReceived), 1000);
 800021e:	4639      	mov	r1, r7
 8000220:	f44f 737a 	mov.w	r3, #1000	; 0x3e8
 8000224:	2215      	movs	r2, #21
 8000226:	4811      	ldr	r0, [pc, #68]	; (800026c <main+0x120>)
 8000228:	f001 ff97 	bl	800215a <HAL_UART_Transmit>
			  rf.getPacket(buf, fifoBytes);
 800022c:	4b0d      	ldr	r3, [pc, #52]	; (8000264 <main+0x118>)
 800022e:	781a      	ldrb	r2, [r3, #0]
 8000230:	f107 0318 	add.w	r3, r7, #24
 8000234:	490e      	ldr	r1, [pc, #56]	; (8000270 <main+0x124>)
 8000236:	4618      	mov	r0, r3
 8000238:	f002 fa7c 	bl	8002734 <_ZN6si446x9getPacketEPhh>
			  HAL_UART_Transmit(&huart1, buf, sizeof(buf), 1000);
 800023c:	f44f 737a 	mov.w	r3, #1000	; 0x3e8
 8000240:	2208      	movs	r2, #8
 8000242:	490b      	ldr	r1, [pc, #44]	; (8000270 <main+0x124>)
 8000244:	4809      	ldr	r0, [pc, #36]	; (800026c <main+0x120>)
 8000246:	f001 ff88 	bl	800215a <HAL_UART_Transmit>
			  break;
 800024a:	bf00      	nop
 800024c:	e003      	b.n	8000256 <main+0x10a>
		for(int j = 0; j < 5; j++)
 800024e:	6bbb      	ldr	r3, [r7, #56]	; 0x38
 8000250:	3301      	adds	r3, #1
 8000252:	63bb      	str	r3, [r7, #56]	; 0x38
 8000254:	e7c0      	b.n	80001d8 <main+0x8c>

		}

	}
    /* USER CODE BEGIN 3 */
  }
 8000256:	e796      	b.n	8000186 <main+0x3a>
 8000258:	20000034 	.word	0x20000034
 800025c:	40010800 	.word	0x40010800
 8000260:	40011000 	.word	0x40011000
 8000264:	20000028 	.word	0x20000028
 8000268:	080028f0 	.word	0x080028f0
 800026c:	2000008c 	.word	0x2000008c
 8000270:	2000002c 	.word	0x2000002c

08000274 <_Z18SystemClock_Configv>:
/**
  * @brief System Clock Configuration
  * @retval None
  */
void SystemClock_Config(void)
{
 8000274:	b580      	push	{r7, lr}
 8000276:	b090      	sub	sp, #64	; 0x40
 8000278:	af00      	add	r7, sp, #0
  RCC_OscInitTypeDef RCC_OscInitStruct = {0};
 800027a:	f107 0318 	add.w	r3, r7, #24
 800027e:	2228      	movs	r2, #40	; 0x28
 8000280:	2100      	movs	r1, #0
 8000282:	4618      	mov	r0, r3
 8000284:	f002 fb1f 	bl	80028c6 <memset>
  RCC_ClkInitTypeDef RCC_ClkInitStruct = {0};
 8000288:	1d3b      	adds	r3, r7, #4
 800028a:	2200      	movs	r2, #0
 800028c:	601a      	str	r2, [r3, #0]
 800028e:	605a      	str	r2, [r3, #4]
 8000290:	609a      	str	r2, [r3, #8]
 8000292:	60da      	str	r2, [r3, #12]
 8000294:	611a      	str	r2, [r3, #16]

  /** Initializes the CPU, AHB and APB busses clocks
  */
  RCC_OscInitStruct.OscillatorType = RCC_OSCILLATORTYPE_HSI;
 8000296:	2302      	movs	r3, #2
 8000298:	61bb      	str	r3, [r7, #24]
  RCC_OscInitStruct.HSIState = RCC_HSI_ON;
 800029a:	2301      	movs	r3, #1
 800029c:	62bb      	str	r3, [r7, #40]	; 0x28
  RCC_OscInitStruct.HSICalibrationValue = RCC_HSICALIBRATION_DEFAULT;
 800029e:	2310      	movs	r3, #16
 80002a0:	62fb      	str	r3, [r7, #44]	; 0x2c
  RCC_OscInitStruct.PLL.PLLState = RCC_PLL_NONE;
 80002a2:	2300      	movs	r3, #0
 80002a4:	637b      	str	r3, [r7, #52]	; 0x34
  if (HAL_RCC_OscConfig(&RCC_OscInitStruct) != HAL_OK)
 80002a6:	f107 0318 	add.w	r3, r7, #24
 80002aa:	4618      	mov	r0, r3
 80002ac:	f000 fd80 	bl	8000db0 <HAL_RCC_OscConfig>
 80002b0:	4603      	mov	r3, r0
 80002b2:	2b00      	cmp	r3, #0
 80002b4:	bf14      	ite	ne
 80002b6:	2301      	movne	r3, #1
 80002b8:	2300      	moveq	r3, #0
 80002ba:	b2db      	uxtb	r3, r3
 80002bc:	2b00      	cmp	r3, #0
 80002be:	d001      	beq.n	80002c4 <_Z18SystemClock_Configv+0x50>
  {
    Error_Handler();
 80002c0:	f000 f90c 	bl	80004dc <Error_Handler>
  }
  /** Initializes the CPU, AHB and APB busses clocks
  */
  RCC_ClkInitStruct.ClockType = RCC_CLOCKTYPE_HCLK|RCC_CLOCKTYPE_SYSCLK
 80002c4:	230f      	movs	r3, #15
 80002c6:	607b      	str	r3, [r7, #4]
                              |RCC_CLOCKTYPE_PCLK1|RCC_CLOCKTYPE_PCLK2;
  RCC_ClkInitStruct.SYSCLKSource = RCC_SYSCLKSOURCE_HSI;
 80002c8:	2300      	movs	r3, #0
 80002ca:	60bb      	str	r3, [r7, #8]
  RCC_ClkInitStruct.AHBCLKDivider = RCC_SYSCLK_DIV1;
 80002cc:	2300      	movs	r3, #0
 80002ce:	60fb      	str	r3, [r7, #12]
  RCC_ClkInitStruct.APB1CLKDivider = RCC_HCLK_DIV1;
 80002d0:	2300      	movs	r3, #0
 80002d2:	613b      	str	r3, [r7, #16]
  RCC_ClkInitStruct.APB2CLKDivider = RCC_HCLK_DIV1;
 80002d4:	2300      	movs	r3, #0
 80002d6:	617b      	str	r3, [r7, #20]

  if (HAL_RCC_ClockConfig(&RCC_ClkInitStruct, FLASH_LATENCY_0) != HAL_OK)
 80002d8:	1d3b      	adds	r3, r7, #4
 80002da:	2100      	movs	r1, #0
 80002dc:	4618      	mov	r0, r3
 80002de:	f000 ffe7 	bl	80012b0 <HAL_RCC_ClockConfig>
 80002e2:	4603      	mov	r3, r0
 80002e4:	2b00      	cmp	r3, #0
 80002e6:	bf14      	ite	ne
 80002e8:	2301      	movne	r3, #1
 80002ea:	2300      	moveq	r3, #0
 80002ec:	b2db      	uxtb	r3, r3
 80002ee:	2b00      	cmp	r3, #0
 80002f0:	d001      	beq.n	80002f6 <_Z18SystemClock_Configv+0x82>
  {
    Error_Handler();
 80002f2:	f000 f8f3 	bl	80004dc <Error_Handler>
  }
}
 80002f6:	bf00      	nop
 80002f8:	3740      	adds	r7, #64	; 0x40
 80002fa:	46bd      	mov	sp, r7
 80002fc:	bd80      	pop	{r7, pc}
	...

08000300 <_ZL12MX_SPI1_Initv>:
  * @brief SPI1 Initialization Function
  * @param None
  * @retval None
  */
static void MX_SPI1_Init(void)
{
 8000300:	b580      	push	{r7, lr}
 8000302:	af00      	add	r7, sp, #0

  /* USER CODE BEGIN SPI1_Init 1 */

  /* USER CODE END SPI1_Init 1 */
  /* SPI1 parameter configuration*/
  hspi1.Instance = SPI1;
 8000304:	4b1a      	ldr	r3, [pc, #104]	; (8000370 <_ZL12MX_SPI1_Initv+0x70>)
 8000306:	4a1b      	ldr	r2, [pc, #108]	; (8000374 <_ZL12MX_SPI1_Initv+0x74>)
 8000308:	601a      	str	r2, [r3, #0]
  hspi1.Init.Mode = SPI_MODE_MASTER;
 800030a:	4b19      	ldr	r3, [pc, #100]	; (8000370 <_ZL12MX_SPI1_Initv+0x70>)
 800030c:	f44f 7282 	mov.w	r2, #260	; 0x104
 8000310:	605a      	str	r2, [r3, #4]
  hspi1.Init.Direction = SPI_DIRECTION_2LINES;
 8000312:	4b17      	ldr	r3, [pc, #92]	; (8000370 <_ZL12MX_SPI1_Initv+0x70>)
 8000314:	2200      	movs	r2, #0
 8000316:	609a      	str	r2, [r3, #8]
  hspi1.Init.DataSize = SPI_DATASIZE_8BIT;
 8000318:	4b15      	ldr	r3, [pc, #84]	; (8000370 <_ZL12MX_SPI1_Initv+0x70>)
 800031a:	2200      	movs	r2, #0
 800031c:	60da      	str	r2, [r3, #12]
  hspi1.Init.CLKPolarity = SPI_POLARITY_LOW;
 800031e:	4b14      	ldr	r3, [pc, #80]	; (8000370 <_ZL12MX_SPI1_Initv+0x70>)
 8000320:	2200      	movs	r2, #0
 8000322:	611a      	str	r2, [r3, #16]
  hspi1.Init.CLKPhase = SPI_PHASE_1EDGE;
 8000324:	4b12      	ldr	r3, [pc, #72]	; (8000370 <_ZL12MX_SPI1_Initv+0x70>)
 8000326:	2200      	movs	r2, #0
 8000328:	615a      	str	r2, [r3, #20]
  hspi1.Init.NSS = SPI_NSS_SOFT;
 800032a:	4b11      	ldr	r3, [pc, #68]	; (8000370 <_ZL12MX_SPI1_Initv+0x70>)
 800032c:	f44f 7200 	mov.w	r2, #512	; 0x200
 8000330:	619a      	str	r2, [r3, #24]
  hspi1.Init.BaudRatePrescaler = SPI_BAUDRATEPRESCALER_2;
 8000332:	4b0f      	ldr	r3, [pc, #60]	; (8000370 <_ZL12MX_SPI1_Initv+0x70>)
 8000334:	2200      	movs	r2, #0
 8000336:	61da      	str	r2, [r3, #28]
  hspi1.Init.FirstBit = SPI_FIRSTBIT_MSB;
 8000338:	4b0d      	ldr	r3, [pc, #52]	; (8000370 <_ZL12MX_SPI1_Initv+0x70>)
 800033a:	2200      	movs	r2, #0
 800033c:	621a      	str	r2, [r3, #32]
  hspi1.Init.TIMode = SPI_TIMODE_DISABLE;
 800033e:	4b0c      	ldr	r3, [pc, #48]	; (8000370 <_ZL12MX_SPI1_Initv+0x70>)
 8000340:	2200      	movs	r2, #0
 8000342:	625a      	str	r2, [r3, #36]	; 0x24
  hspi1.Init.CRCCalculation = SPI_CRCCALCULATION_DISABLE;
 8000344:	4b0a      	ldr	r3, [pc, #40]	; (8000370 <_ZL12MX_SPI1_Initv+0x70>)
 8000346:	2200      	movs	r2, #0
 8000348:	629a      	str	r2, [r3, #40]	; 0x28
  hspi1.Init.CRCPolynomial = 10;
 800034a:	4b09      	ldr	r3, [pc, #36]	; (8000370 <_ZL12MX_SPI1_Initv+0x70>)
 800034c:	220a      	movs	r2, #10
 800034e:	62da      	str	r2, [r3, #44]	; 0x2c
  if (HAL_SPI_Init(&hspi1) != HAL_OK)
 8000350:	4807      	ldr	r0, [pc, #28]	; (8000370 <_ZL12MX_SPI1_Initv+0x70>)
 8000352:	f001 f949 	bl	80015e8 <HAL_SPI_Init>
 8000356:	4603      	mov	r3, r0
 8000358:	2b00      	cmp	r3, #0
 800035a:	bf14      	ite	ne
 800035c:	2301      	movne	r3, #1
 800035e:	2300      	moveq	r3, #0
 8000360:	b2db      	uxtb	r3, r3
 8000362:	2b00      	cmp	r3, #0
 8000364:	d001      	beq.n	800036a <_ZL12MX_SPI1_Initv+0x6a>
  {
    Error_Handler();
 8000366:	f000 f8b9 	bl	80004dc <Error_Handler>
  }
  /* USER CODE BEGIN SPI1_Init 2 */

  /* USER CODE END SPI1_Init 2 */

}
 800036a:	bf00      	nop
 800036c:	bd80      	pop	{r7, pc}
 800036e:	bf00      	nop
 8000370:	20000034 	.word	0x20000034
 8000374:	40013000 	.word	0x40013000

08000378 <_ZL19MX_USART1_UART_Initv>:
  * @brief USART1 Initialization Function
  * @param None
  * @retval None
  */
static void MX_USART1_UART_Init(void)
{
 8000378:	b580      	push	{r7, lr}
 800037a:	af00      	add	r7, sp, #0
  /* USER CODE END USART1_Init 0 */

  /* USER CODE BEGIN USART1_Init 1 */

  /* USER CODE END USART1_Init 1 */
  huart1.Instance = USART1;
 800037c:	4b13      	ldr	r3, [pc, #76]	; (80003cc <_ZL19MX_USART1_UART_Initv+0x54>)
 800037e:	4a14      	ldr	r2, [pc, #80]	; (80003d0 <_ZL19MX_USART1_UART_Initv+0x58>)
 8000380:	601a      	str	r2, [r3, #0]
  huart1.Init.BaudRate = 115200;
 8000382:	4b12      	ldr	r3, [pc, #72]	; (80003cc <_ZL19MX_USART1_UART_Initv+0x54>)
 8000384:	f44f 32e1 	mov.w	r2, #115200	; 0x1c200
 8000388:	605a      	str	r2, [r3, #4]
  huart1.Init.WordLength = UART_WORDLENGTH_8B;
 800038a:	4b10      	ldr	r3, [pc, #64]	; (80003cc <_ZL19MX_USART1_UART_Initv+0x54>)
 800038c:	2200      	movs	r2, #0
 800038e:	609a      	str	r2, [r3, #8]
  huart1.Init.StopBits = UART_STOPBITS_1;
 8000390:	4b0e      	ldr	r3, [pc, #56]	; (80003cc <_ZL19MX_USART1_UART_Initv+0x54>)
 8000392:	2200      	movs	r2, #0
 8000394:	60da      	str	r2, [r3, #12]
  huart1.Init.Parity = UART_PARITY_NONE;
 8000396:	4b0d      	ldr	r3, [pc, #52]	; (80003cc <_ZL19MX_USART1_UART_Initv+0x54>)
 8000398:	2200      	movs	r2, #0
 800039a:	611a      	str	r2, [r3, #16]
  huart1.Init.Mode = UART_MODE_TX_RX;
 800039c:	4b0b      	ldr	r3, [pc, #44]	; (80003cc <_ZL19MX_USART1_UART_Initv+0x54>)
 800039e:	220c      	movs	r2, #12
 80003a0:	615a      	str	r2, [r3, #20]
  huart1.Init.HwFlowCtl = UART_HWCONTROL_NONE;
 80003a2:	4b0a      	ldr	r3, [pc, #40]	; (80003cc <_ZL19MX_USART1_UART_Initv+0x54>)
 80003a4:	2200      	movs	r2, #0
 80003a6:	619a      	str	r2, [r3, #24]
  huart1.Init.OverSampling = UART_OVERSAMPLING_16;
 80003a8:	4b08      	ldr	r3, [pc, #32]	; (80003cc <_ZL19MX_USART1_UART_Initv+0x54>)
 80003aa:	2200      	movs	r2, #0
 80003ac:	61da      	str	r2, [r3, #28]
  if (HAL_UART_Init(&huart1) != HAL_OK)
 80003ae:	4807      	ldr	r0, [pc, #28]	; (80003cc <_ZL19MX_USART1_UART_Initv+0x54>)
 80003b0:	f001 fe86 	bl	80020c0 <HAL_UART_Init>
 80003b4:	4603      	mov	r3, r0
 80003b6:	2b00      	cmp	r3, #0
 80003b8:	bf14      	ite	ne
 80003ba:	2301      	movne	r3, #1
 80003bc:	2300      	moveq	r3, #0
 80003be:	b2db      	uxtb	r3, r3
 80003c0:	2b00      	cmp	r3, #0
 80003c2:	d001      	beq.n	80003c8 <_ZL19MX_USART1_UART_Initv+0x50>
  {
    Error_Handler();
 80003c4:	f000 f88a 	bl	80004dc <Error_Handler>
  }
  /* USER CODE BEGIN USART1_Init 2 */

  /* USER CODE END USART1_Init 2 */

}
 80003c8:	bf00      	nop
 80003ca:	bd80      	pop	{r7, pc}
 80003cc:	2000008c 	.word	0x2000008c
 80003d0:	40013800 	.word	0x40013800

080003d4 <_ZL12MX_GPIO_Initv>:
  * @brief GPIO Initialization Function
  * @param None
  * @retval None
  */
static void MX_GPIO_Init(void)
{
 80003d4:	b580      	push	{r7, lr}
 80003d6:	b088      	sub	sp, #32
 80003d8:	af00      	add	r7, sp, #0
  GPIO_InitTypeDef GPIO_InitStruct = {0};
 80003da:	f107 0310 	add.w	r3, r7, #16
 80003de:	2200      	movs	r2, #0
 80003e0:	601a      	str	r2, [r3, #0]
 80003e2:	605a      	str	r2, [r3, #4]
 80003e4:	609a      	str	r2, [r3, #8]
 80003e6:	60da      	str	r2, [r3, #12]

  /* GPIO Ports Clock Enable */
  __HAL_RCC_GPIOC_CLK_ENABLE();
 80003e8:	4b37      	ldr	r3, [pc, #220]	; (80004c8 <_ZL12MX_GPIO_Initv+0xf4>)
 80003ea:	699b      	ldr	r3, [r3, #24]
 80003ec:	4a36      	ldr	r2, [pc, #216]	; (80004c8 <_ZL12MX_GPIO_Initv+0xf4>)
 80003ee:	f043 0310 	orr.w	r3, r3, #16
 80003f2:	6193      	str	r3, [r2, #24]
 80003f4:	4b34      	ldr	r3, [pc, #208]	; (80004c8 <_ZL12MX_GPIO_Initv+0xf4>)
 80003f6:	699b      	ldr	r3, [r3, #24]
 80003f8:	f003 0310 	and.w	r3, r3, #16
 80003fc:	60fb      	str	r3, [r7, #12]
 80003fe:	68fb      	ldr	r3, [r7, #12]
  __HAL_RCC_GPIOA_CLK_ENABLE();
 8000400:	4b31      	ldr	r3, [pc, #196]	; (80004c8 <_ZL12MX_GPIO_Initv+0xf4>)
 8000402:	699b      	ldr	r3, [r3, #24]
 8000404:	4a30      	ldr	r2, [pc, #192]	; (80004c8 <_ZL12MX_GPIO_Initv+0xf4>)
 8000406:	f043 0304 	orr.w	r3, r3, #4
 800040a:	6193      	str	r3, [r2, #24]
 800040c:	4b2e      	ldr	r3, [pc, #184]	; (80004c8 <_ZL12MX_GPIO_Initv+0xf4>)
 800040e:	699b      	ldr	r3, [r3, #24]
 8000410:	f003 0304 	and.w	r3, r3, #4
 8000414:	60bb      	str	r3, [r7, #8]
 8000416:	68bb      	ldr	r3, [r7, #8]
  __HAL_RCC_GPIOB_CLK_ENABLE();
 8000418:	4b2b      	ldr	r3, [pc, #172]	; (80004c8 <_ZL12MX_GPIO_Initv+0xf4>)
 800041a:	699b      	ldr	r3, [r3, #24]
 800041c:	4a2a      	ldr	r2, [pc, #168]	; (80004c8 <_ZL12MX_GPIO_Initv+0xf4>)
 800041e:	f043 0308 	orr.w	r3, r3, #8
 8000422:	6193      	str	r3, [r2, #24]
 8000424:	4b28      	ldr	r3, [pc, #160]	; (80004c8 <_ZL12MX_GPIO_Initv+0xf4>)
 8000426:	699b      	ldr	r3, [r3, #24]
 8000428:	f003 0308 	and.w	r3, r3, #8
 800042c:	607b      	str	r3, [r7, #4]
 800042e:	687b      	ldr	r3, [r7, #4]

  /*Configure GPIO pin Output Level */
  HAL_GPIO_WritePin(LED_ONBOARD_GPIO_Port, LED_ONBOARD_Pin, GPIO_PIN_RESET);
 8000430:	2200      	movs	r2, #0
 8000432:	f44f 5100 	mov.w	r1, #8192	; 0x2000
 8000436:	4825      	ldr	r0, [pc, #148]	; (80004cc <_ZL12MX_GPIO_Initv+0xf8>)
 8000438:	f000 fc7f 	bl	8000d3a <HAL_GPIO_WritePin>

  /*Configure GPIO pin Output Level */
  HAL_GPIO_WritePin(GPIOA, nSEL_Pin|SHUTDOWN_Pin, GPIO_PIN_RESET);
 800043c:	2200      	movs	r2, #0
 800043e:	210a      	movs	r1, #10
 8000440:	4823      	ldr	r0, [pc, #140]	; (80004d0 <_ZL12MX_GPIO_Initv+0xfc>)
 8000442:	f000 fc7a 	bl	8000d3a <HAL_GPIO_WritePin>

  /*Configure GPIO pin : LED_ONBOARD_Pin */
  GPIO_InitStruct.Pin = LED_ONBOARD_Pin;
 8000446:	f44f 5300 	mov.w	r3, #8192	; 0x2000
 800044a:	613b      	str	r3, [r7, #16]
  GPIO_InitStruct.Mode = GPIO_MODE_OUTPUT_PP;
 800044c:	2301      	movs	r3, #1
 800044e:	617b      	str	r3, [r7, #20]
  GPIO_InitStruct.Pull = GPIO_NOPULL;
 8000450:	2300      	movs	r3, #0
 8000452:	61bb      	str	r3, [r7, #24]
  GPIO_InitStruct.Speed = GPIO_SPEED_FREQ_LOW;
 8000454:	2302      	movs	r3, #2
 8000456:	61fb      	str	r3, [r7, #28]
  HAL_GPIO_Init(LED_ONBOARD_GPIO_Port, &GPIO_InitStruct);
 8000458:	f107 0310 	add.w	r3, r7, #16
 800045c:	4619      	mov	r1, r3
 800045e:	481b      	ldr	r0, [pc, #108]	; (80004cc <_ZL12MX_GPIO_Initv+0xf8>)
 8000460:	f000 fafa 	bl	8000a58 <HAL_GPIO_Init>

  /*Configure GPIO pins : nSEL_Pin SHUTDOWN_Pin */
  GPIO_InitStruct.Pin = nSEL_Pin|SHUTDOWN_Pin;
 8000464:	230a      	movs	r3, #10
 8000466:	613b      	str	r3, [r7, #16]
  GPIO_InitStruct.Mode = GPIO_MODE_OUTPUT_PP;
 8000468:	2301      	movs	r3, #1
 800046a:	617b      	str	r3, [r7, #20]
  GPIO_InitStruct.Pull = GPIO_NOPULL;
 800046c:	2300      	movs	r3, #0
 800046e:	61bb      	str	r3, [r7, #24]
  GPIO_InitStruct.Speed = GPIO_SPEED_FREQ_LOW;
 8000470:	2302      	movs	r3, #2
 8000472:	61fb      	str	r3, [r7, #28]
  HAL_GPIO_Init(GPIOA, &GPIO_InitStruct);
 8000474:	f107 0310 	add.w	r3, r7, #16
 8000478:	4619      	mov	r1, r3
 800047a:	4815      	ldr	r0, [pc, #84]	; (80004d0 <_ZL12MX_GPIO_Initv+0xfc>)
 800047c:	f000 faec 	bl	8000a58 <HAL_GPIO_Init>

  /*Configure GPIO pin : CTS_Pin */
  GPIO_InitStruct.Pin = CTS_Pin;
 8000480:	2304      	movs	r3, #4
 8000482:	613b      	str	r3, [r7, #16]
  GPIO_InitStruct.Mode = GPIO_MODE_INPUT;
 8000484:	2300      	movs	r3, #0
 8000486:	617b      	str	r3, [r7, #20]
  GPIO_InitStruct.Pull = GPIO_NOPULL;
 8000488:	2300      	movs	r3, #0
 800048a:	61bb      	str	r3, [r7, #24]
  HAL_GPIO_Init(CTS_GPIO_Port, &GPIO_InitStruct);
 800048c:	f107 0310 	add.w	r3, r7, #16
 8000490:	4619      	mov	r1, r3
 8000492:	480f      	ldr	r0, [pc, #60]	; (80004d0 <_ZL12MX_GPIO_Initv+0xfc>)
 8000494:	f000 fae0 	bl	8000a58 <HAL_GPIO_Init>

  /*Configure GPIO pin : nIRQ_Pin */
  GPIO_InitStruct.Pin = nIRQ_Pin;
 8000498:	2301      	movs	r3, #1
 800049a:	613b      	str	r3, [r7, #16]
  GPIO_InitStruct.Mode = GPIO_MODE_IT_RISING;
 800049c:	4b0d      	ldr	r3, [pc, #52]	; (80004d4 <_ZL12MX_GPIO_Initv+0x100>)
 800049e:	617b      	str	r3, [r7, #20]
  GPIO_InitStruct.Pull = GPIO_NOPULL;
 80004a0:	2300      	movs	r3, #0
 80004a2:	61bb      	str	r3, [r7, #24]
  HAL_GPIO_Init(nIRQ_GPIO_Port, &GPIO_InitStruct);
 80004a4:	f107 0310 	add.w	r3, r7, #16
 80004a8:	4619      	mov	r1, r3
 80004aa:	480b      	ldr	r0, [pc, #44]	; (80004d8 <_ZL12MX_GPIO_Initv+0x104>)
 80004ac:	f000 fad4 	bl	8000a58 <HAL_GPIO_Init>

  /* EXTI interrupt init*/
   HAL_NVIC_SetPriority(EXTI0_IRQn, 0, 0);
 80004b0:	2200      	movs	r2, #0
 80004b2:	2100      	movs	r1, #0
 80004b4:	2006      	movs	r0, #6
 80004b6:	f000 fa98 	bl	80009ea <HAL_NVIC_SetPriority>
   HAL_NVIC_EnableIRQ(EXTI0_IRQn);
 80004ba:	2006      	movs	r0, #6
 80004bc:	f000 fab1 	bl	8000a22 <HAL_NVIC_EnableIRQ>
}
 80004c0:	bf00      	nop
 80004c2:	3720      	adds	r7, #32
 80004c4:	46bd      	mov	sp, r7
 80004c6:	bd80      	pop	{r7, pc}
 80004c8:	40021000 	.word	0x40021000
 80004cc:	40011000 	.word	0x40011000
 80004d0:	40010800 	.word	0x40010800
 80004d4:	10110000 	.word	0x10110000
 80004d8:	40010c00 	.word	0x40010c00

080004dc <Error_Handler>:
/**
  * @brief  This function is executed in case of error occurrence.
  * @retval None
  */
void Error_Handler(void)
{
 80004dc:	b480      	push	{r7}
 80004de:	af00      	add	r7, sp, #0
  /* USER CODE BEGIN Error_Handler_Debug */
  /* User can add his own implementation to report the HAL error return state */

  /* USER CODE END Error_Handler_Debug */
}
 80004e0:	bf00      	nop
 80004e2:	46bd      	mov	sp, r7
 80004e4:	bc80      	pop	{r7}
 80004e6:	4770      	bx	lr

080004e8 <HAL_MspInit>:
/* USER CODE END 0 */
/**
  * Initializes the Global MSP.
  */
void HAL_MspInit(void)
{
 80004e8:	b480      	push	{r7}
 80004ea:	b085      	sub	sp, #20
 80004ec:	af00      	add	r7, sp, #0
  /* USER CODE BEGIN MspInit 0 */

  /* USER CODE END MspInit 0 */

  __HAL_RCC_AFIO_CLK_ENABLE();
 80004ee:	4b15      	ldr	r3, [pc, #84]	; (8000544 <HAL_MspInit+0x5c>)
 80004f0:	699b      	ldr	r3, [r3, #24]
 80004f2:	4a14      	ldr	r2, [pc, #80]	; (8000544 <HAL_MspInit+0x5c>)
 80004f4:	f043 0301 	orr.w	r3, r3, #1
 80004f8:	6193      	str	r3, [r2, #24]
 80004fa:	4b12      	ldr	r3, [pc, #72]	; (8000544 <HAL_MspInit+0x5c>)
 80004fc:	699b      	ldr	r3, [r3, #24]
 80004fe:	f003 0301 	and.w	r3, r3, #1
 8000502:	60bb      	str	r3, [r7, #8]
 8000504:	68bb      	ldr	r3, [r7, #8]
  __HAL_RCC_PWR_CLK_ENABLE();
 8000506:	4b0f      	ldr	r3, [pc, #60]	; (8000544 <HAL_MspInit+0x5c>)
 8000508:	69db      	ldr	r3, [r3, #28]
 800050a:	4a0e      	ldr	r2, [pc, #56]	; (8000544 <HAL_MspInit+0x5c>)
 800050c:	f043 5380 	orr.w	r3, r3, #268435456	; 0x10000000
 8000510:	61d3      	str	r3, [r2, #28]
 8000512:	4b0c      	ldr	r3, [pc, #48]	; (8000544 <HAL_MspInit+0x5c>)
 8000514:	69db      	ldr	r3, [r3, #28]
 8000516:	f003 5380 	and.w	r3, r3, #268435456	; 0x10000000
 800051a:	607b      	str	r3, [r7, #4]
 800051c:	687b      	ldr	r3, [r7, #4]

  /* System interrupt init*/

  /** NOJTAG: JTAG-DP Disabled and SW-DP Enabled
  */
  __HAL_AFIO_REMAP_SWJ_NOJTAG();
 800051e:	4b0a      	ldr	r3, [pc, #40]	; (8000548 <HAL_MspInit+0x60>)
 8000520:	685b      	ldr	r3, [r3, #4]
 8000522:	60fb      	str	r3, [r7, #12]
 8000524:	68fb      	ldr	r3, [r7, #12]
 8000526:	f023 63e0 	bic.w	r3, r3, #117440512	; 0x7000000
 800052a:	60fb      	str	r3, [r7, #12]
 800052c:	68fb      	ldr	r3, [r7, #12]
 800052e:	f043 7300 	orr.w	r3, r3, #33554432	; 0x2000000
 8000532:	60fb      	str	r3, [r7, #12]
 8000534:	4a04      	ldr	r2, [pc, #16]	; (8000548 <HAL_MspInit+0x60>)
 8000536:	68fb      	ldr	r3, [r7, #12]
 8000538:	6053      	str	r3, [r2, #4]

  /* USER CODE BEGIN MspInit 1 */

  /* USER CODE END MspInit 1 */
}
 800053a:	bf00      	nop
 800053c:	3714      	adds	r7, #20
 800053e:	46bd      	mov	sp, r7
 8000540:	bc80      	pop	{r7}
 8000542:	4770      	bx	lr
 8000544:	40021000 	.word	0x40021000
 8000548:	40010000 	.word	0x40010000

0800054c <HAL_SPI_MspInit>:
* This function configures the hardware resources used in this example
* @param hspi: SPI handle pointer
* @retval None
*/
void HAL_SPI_MspInit(SPI_HandleTypeDef* hspi)
{
 800054c:	b580      	push	{r7, lr}
 800054e:	b088      	sub	sp, #32
 8000550:	af00      	add	r7, sp, #0
 8000552:	6078      	str	r0, [r7, #4]
  GPIO_InitTypeDef GPIO_InitStruct = {0};
 8000554:	f107 0310 	add.w	r3, r7, #16
 8000558:	2200      	movs	r2, #0
 800055a:	601a      	str	r2, [r3, #0]
 800055c:	605a      	str	r2, [r3, #4]
 800055e:	609a      	str	r2, [r3, #8]
 8000560:	60da      	str	r2, [r3, #12]
  if(hspi->Instance==SPI1)
 8000562:	687b      	ldr	r3, [r7, #4]
 8000564:	681b      	ldr	r3, [r3, #0]
 8000566:	4a1b      	ldr	r2, [pc, #108]	; (80005d4 <HAL_SPI_MspInit+0x88>)
 8000568:	4293      	cmp	r3, r2
 800056a:	d12f      	bne.n	80005cc <HAL_SPI_MspInit+0x80>
  {
  /* USER CODE BEGIN SPI1_MspInit 0 */

  /* USER CODE END SPI1_MspInit 0 */
    /* Peripheral clock enable */
    __HAL_RCC_SPI1_CLK_ENABLE();
 800056c:	4b1a      	ldr	r3, [pc, #104]	; (80005d8 <HAL_SPI_MspInit+0x8c>)
 800056e:	699b      	ldr	r3, [r3, #24]
 8000570:	4a19      	ldr	r2, [pc, #100]	; (80005d8 <HAL_SPI_MspInit+0x8c>)
 8000572:	f443 5380 	orr.w	r3, r3, #4096	; 0x1000
 8000576:	6193      	str	r3, [r2, #24]
 8000578:	4b17      	ldr	r3, [pc, #92]	; (80005d8 <HAL_SPI_MspInit+0x8c>)
 800057a:	699b      	ldr	r3, [r3, #24]
 800057c:	f403 5380 	and.w	r3, r3, #4096	; 0x1000
 8000580:	60fb      	str	r3, [r7, #12]
 8000582:	68fb      	ldr	r3, [r7, #12]

    __HAL_RCC_GPIOA_CLK_ENABLE();
 8000584:	4b14      	ldr	r3, [pc, #80]	; (80005d8 <HAL_SPI_MspInit+0x8c>)
 8000586:	699b      	ldr	r3, [r3, #24]
 8000588:	4a13      	ldr	r2, [pc, #76]	; (80005d8 <HAL_SPI_MspInit+0x8c>)
 800058a:	f043 0304 	orr.w	r3, r3, #4
 800058e:	6193      	str	r3, [r2, #24]
 8000590:	4b11      	ldr	r3, [pc, #68]	; (80005d8 <HAL_SPI_MspInit+0x8c>)
 8000592:	699b      	ldr	r3, [r3, #24]
 8000594:	f003 0304 	and.w	r3, r3, #4
 8000598:	60bb      	str	r3, [r7, #8]
 800059a:	68bb      	ldr	r3, [r7, #8]
    /**SPI1 GPIO Configuration
    PA5     ------> SPI1_SCK
    PA6     ------> SPI1_MISO
    PA7     ------> SPI1_MOSI
    */
    GPIO_InitStruct.Pin = GPIO_PIN_5|GPIO_PIN_7;
 800059c:	23a0      	movs	r3, #160	; 0xa0
 800059e:	613b      	str	r3, [r7, #16]
    GPIO_InitStruct.Mode = GPIO_MODE_AF_PP;
 80005a0:	2302      	movs	r3, #2
 80005a2:	617b      	str	r3, [r7, #20]
    GPIO_InitStruct.Speed = GPIO_SPEED_FREQ_HIGH;
 80005a4:	2303      	movs	r3, #3
 80005a6:	61fb      	str	r3, [r7, #28]
    HAL_GPIO_Init(GPIOA, &GPIO_InitStruct);
 80005a8:	f107 0310 	add.w	r3, r7, #16
 80005ac:	4619      	mov	r1, r3
 80005ae:	480b      	ldr	r0, [pc, #44]	; (80005dc <HAL_SPI_MspInit+0x90>)
 80005b0:	f000 fa52 	bl	8000a58 <HAL_GPIO_Init>

    GPIO_InitStruct.Pin = GPIO_PIN_6;
 80005b4:	2340      	movs	r3, #64	; 0x40
 80005b6:	613b      	str	r3, [r7, #16]
    GPIO_InitStruct.Mode = GPIO_MODE_INPUT;
 80005b8:	2300      	movs	r3, #0
 80005ba:	617b      	str	r3, [r7, #20]
    GPIO_InitStruct.Pull = GPIO_NOPULL;
 80005bc:	2300      	movs	r3, #0
 80005be:	61bb      	str	r3, [r7, #24]
    HAL_GPIO_Init(GPIOA, &GPIO_InitStruct);
 80005c0:	f107 0310 	add.w	r3, r7, #16
 80005c4:	4619      	mov	r1, r3
 80005c6:	4805      	ldr	r0, [pc, #20]	; (80005dc <HAL_SPI_MspInit+0x90>)
 80005c8:	f000 fa46 	bl	8000a58 <HAL_GPIO_Init>
  /* USER CODE BEGIN SPI1_MspInit 1 */

  /* USER CODE END SPI1_MspInit 1 */
  }

}
 80005cc:	bf00      	nop
 80005ce:	3720      	adds	r7, #32
 80005d0:	46bd      	mov	sp, r7
 80005d2:	bd80      	pop	{r7, pc}
 80005d4:	40013000 	.word	0x40013000
 80005d8:	40021000 	.word	0x40021000
 80005dc:	40010800 	.word	0x40010800

080005e0 <HAL_UART_MspInit>:
* This function configures the hardware resources used in this example
* @param huart: UART handle pointer
* @retval None
*/
void HAL_UART_MspInit(UART_HandleTypeDef* huart)
{
 80005e0:	b580      	push	{r7, lr}
 80005e2:	b088      	sub	sp, #32
 80005e4:	af00      	add	r7, sp, #0
 80005e6:	6078      	str	r0, [r7, #4]
  GPIO_InitTypeDef GPIO_InitStruct = {0};
 80005e8:	f107 0310 	add.w	r3, r7, #16
 80005ec:	2200      	movs	r2, #0
 80005ee:	601a      	str	r2, [r3, #0]
 80005f0:	605a      	str	r2, [r3, #4]
 80005f2:	609a      	str	r2, [r3, #8]
 80005f4:	60da      	str	r2, [r3, #12]
  if(huart->Instance==USART1)
 80005f6:	687b      	ldr	r3, [r7, #4]
 80005f8:	681b      	ldr	r3, [r3, #0]
 80005fa:	4a1c      	ldr	r2, [pc, #112]	; (800066c <HAL_UART_MspInit+0x8c>)
 80005fc:	4293      	cmp	r3, r2
 80005fe:	d131      	bne.n	8000664 <HAL_UART_MspInit+0x84>
  {
  /* USER CODE BEGIN USART1_MspInit 0 */

  /* USER CODE END USART1_MspInit 0 */
    /* Peripheral clock enable */
    __HAL_RCC_USART1_CLK_ENABLE();
 8000600:	4b1b      	ldr	r3, [pc, #108]	; (8000670 <HAL_UART_MspInit+0x90>)
 8000602:	699b      	ldr	r3, [r3, #24]
 8000604:	4a1a      	ldr	r2, [pc, #104]	; (8000670 <HAL_UART_MspInit+0x90>)
 8000606:	f443 4380 	orr.w	r3, r3, #16384	; 0x4000
 800060a:	6193      	str	r3, [r2, #24]
 800060c:	4b18      	ldr	r3, [pc, #96]	; (8000670 <HAL_UART_MspInit+0x90>)
 800060e:	699b      	ldr	r3, [r3, #24]
 8000610:	f403 4380 	and.w	r3, r3, #16384	; 0x4000
 8000614:	60fb      	str	r3, [r7, #12]
 8000616:	68fb      	ldr	r3, [r7, #12]

    __HAL_RCC_GPIOA_CLK_ENABLE();
 8000618:	4b15      	ldr	r3, [pc, #84]	; (8000670 <HAL_UART_MspInit+0x90>)
 800061a:	699b      	ldr	r3, [r3, #24]
 800061c:	4a14      	ldr	r2, [pc, #80]	; (8000670 <HAL_UART_MspInit+0x90>)
 800061e:	f043 0304 	orr.w	r3, r3, #4
 8000622:	6193      	str	r3, [r2, #24]
 8000624:	4b12      	ldr	r3, [pc, #72]	; (8000670 <HAL_UART_MspInit+0x90>)
 8000626:	699b      	ldr	r3, [r3, #24]
 8000628:	f003 0304 	and.w	r3, r3, #4
 800062c:	60bb      	str	r3, [r7, #8]
 800062e:	68bb      	ldr	r3, [r7, #8]
    /**USART1 GPIO Configuration
    PA9     ------> USART1_TX
    PA10     ------> USART1_RX
    */
    GPIO_InitStruct.Pin = GPIO_PIN_9;
 8000630:	f44f 7300 	mov.w	r3, #512	; 0x200
 8000634:	613b      	str	r3, [r7, #16]
    GPIO_InitStruct.Mode = GPIO_MODE_AF_PP;
 8000636:	2302      	movs	r3, #2
 8000638:	617b      	str	r3, [r7, #20]
    GPIO_InitStruct.Speed = GPIO_SPEED_FREQ_HIGH;
 800063a:	2303      	movs	r3, #3
 800063c:	61fb      	str	r3, [r7, #28]
    HAL_GPIO_Init(GPIOA, &GPIO_InitStruct);
 800063e:	f107 0310 	add.w	r3, r7, #16
 8000642:	4619      	mov	r1, r3
 8000644:	480b      	ldr	r0, [pc, #44]	; (8000674 <HAL_UART_MspInit+0x94>)
 8000646:	f000 fa07 	bl	8000a58 <HAL_GPIO_Init>

    GPIO_InitStruct.Pin = GPIO_PIN_10;
 800064a:	f44f 6380 	mov.w	r3, #1024	; 0x400
 800064e:	613b      	str	r3, [r7, #16]
    GPIO_InitStruct.Mode = GPIO_MODE_INPUT;
 8000650:	2300      	movs	r3, #0
 8000652:	617b      	str	r3, [r7, #20]
    GPIO_InitStruct.Pull = GPIO_NOPULL;
 8000654:	2300      	movs	r3, #0
 8000656:	61bb      	str	r3, [r7, #24]
    HAL_GPIO_Init(GPIOA, &GPIO_InitStruct);
 8000658:	f107 0310 	add.w	r3, r7, #16
 800065c:	4619      	mov	r1, r3
 800065e:	4805      	ldr	r0, [pc, #20]	; (8000674 <HAL_UART_MspInit+0x94>)
 8000660:	f000 f9fa 	bl	8000a58 <HAL_GPIO_Init>
  /* USER CODE BEGIN USART1_MspInit 1 */

  /* USER CODE END USART1_MspInit 1 */
  }

}
 8000664:	bf00      	nop
 8000666:	3720      	adds	r7, #32
 8000668:	46bd      	mov	sp, r7
 800066a:	bd80      	pop	{r7, pc}
 800066c:	40013800 	.word	0x40013800
 8000670:	40021000 	.word	0x40021000
 8000674:	40010800 	.word	0x40010800

08000678 <NMI_Handler>:
/******************************************************************************/
/**
  * @brief This function handles Non maskable interrupt.
  */
void NMI_Handler(void)
{
 8000678:	b480      	push	{r7}
 800067a:	af00      	add	r7, sp, #0

  /* USER CODE END NonMaskableInt_IRQn 0 */
  /* USER CODE BEGIN NonMaskableInt_IRQn 1 */

  /* USER CODE END NonMaskableInt_IRQn 1 */
}
 800067c:	bf00      	nop
 800067e:	46bd      	mov	sp, r7
 8000680:	bc80      	pop	{r7}
 8000682:	4770      	bx	lr

08000684 <HardFault_Handler>:

/**
  * @brief This function handles Hard fault interrupt.
  */
void HardFault_Handler(void)
{
 8000684:	b480      	push	{r7}
 8000686:	af00      	add	r7, sp, #0
  /* USER CODE BEGIN HardFault_IRQn 0 */

  /* USER CODE END HardFault_IRQn 0 */
  while (1)
 8000688:	e7fe      	b.n	8000688 <HardFault_Handler+0x4>

0800068a <MemManage_Handler>:

/**
  * @brief This function handles Memory management fault.
  */
void MemManage_Handler(void)
{
 800068a:	b480      	push	{r7}
 800068c:	af00      	add	r7, sp, #0
  /* USER CODE BEGIN MemoryManagement_IRQn 0 */

  /* USER CODE END MemoryManagement_IRQn 0 */
  while (1)
 800068e:	e7fe      	b.n	800068e <MemManage_Handler+0x4>

08000690 <BusFault_Handler>:

/**
  * @brief This function handles Prefetch fault, memory access fault.
  */
void BusFault_Handler(void)
{
 8000690:	b480      	push	{r7}
 8000692:	af00      	add	r7, sp, #0
  /* USER CODE BEGIN BusFault_IRQn 0 */

  /* USER CODE END BusFault_IRQn 0 */
  while (1)
 8000694:	e7fe      	b.n	8000694 <BusFault_Handler+0x4>

08000696 <UsageFault_Handler>:

/**
  * @brief This function handles Undefined instruction or illegal state.
  */
void UsageFault_Handler(void)
{
 8000696:	b480      	push	{r7}
 8000698:	af00      	add	r7, sp, #0
  /* USER CODE BEGIN UsageFault_IRQn 0 */

  /* USER CODE END UsageFault_IRQn 0 */
  while (1)
 800069a:	e7fe      	b.n	800069a <UsageFault_Handler+0x4>

0800069c <SVC_Handler>:

/**
  * @brief This function handles System service call via SWI instruction.
  */
void SVC_Handler(void)
{
 800069c:	b480      	push	{r7}
 800069e:	af00      	add	r7, sp, #0

  /* USER CODE END SVCall_IRQn 0 */
  /* USER CODE BEGIN SVCall_IRQn 1 */

  /* USER CODE END SVCall_IRQn 1 */
}
 80006a0:	bf00      	nop
 80006a2:	46bd      	mov	sp, r7
 80006a4:	bc80      	pop	{r7}
 80006a6:	4770      	bx	lr

080006a8 <DebugMon_Handler>:

/**
  * @brief This function handles Debug monitor.
  */
void DebugMon_Handler(void)
{
 80006a8:	b480      	push	{r7}
 80006aa:	af00      	add	r7, sp, #0

  /* USER CODE END DebugMonitor_IRQn 0 */
  /* USER CODE BEGIN DebugMonitor_IRQn 1 */

  /* USER CODE END DebugMonitor_IRQn 1 */
}
 80006ac:	bf00      	nop
 80006ae:	46bd      	mov	sp, r7
 80006b0:	bc80      	pop	{r7}
 80006b2:	4770      	bx	lr

080006b4 <PendSV_Handler>:

/**
  * @brief This function handles Pendable request for system service.
  */
void PendSV_Handler(void)
{
 80006b4:	b480      	push	{r7}
 80006b6:	af00      	add	r7, sp, #0

  /* USER CODE END PendSV_IRQn 0 */
  /* USER CODE BEGIN PendSV_IRQn 1 */

  /* USER CODE END PendSV_IRQn 1 */
}
 80006b8:	bf00      	nop
 80006ba:	46bd      	mov	sp, r7
 80006bc:	bc80      	pop	{r7}
 80006be:	4770      	bx	lr

080006c0 <SysTick_Handler>:

/**
  * @brief This function handles System tick timer.
  */
void SysTick_Handler(void)
{
 80006c0:	b580      	push	{r7, lr}
 80006c2:	af00      	add	r7, sp, #0
  /* USER CODE BEGIN SysTick_IRQn 0 */

  /* USER CODE END SysTick_IRQn 0 */
  HAL_IncTick();
 80006c4:	f000 f87c 	bl	80007c0 <HAL_IncTick>
  /* USER CODE BEGIN SysTick_IRQn 1 */

  /* USER CODE END SysTick_IRQn 1 */
}
 80006c8:	bf00      	nop
 80006ca:	bd80      	pop	{r7, pc}

080006cc <EXTI0_IRQHandler>:

/**
  * @brief This function handles EXTI line0 interrupt.
  */
void EXTI0_IRQHandler(void)
{
 80006cc:	b580      	push	{r7, lr}
 80006ce:	af00      	add	r7, sp, #0
  /* USER CODE BEGIN EXTI0_IRQn 0 */

  /* USER CODE END EXTI0_IRQn 0 */
  HAL_GPIO_EXTI_IRQHandler(GPIO_PIN_0);
 80006d0:	2001      	movs	r0, #1
 80006d2:	f000 fb4b 	bl	8000d6c <HAL_GPIO_EXTI_IRQHandler>
  /* USER CODE BEGIN EXTI0_IRQn 1 */

  /* USER CODE END EXTI0_IRQn 1 */
}
 80006d6:	bf00      	nop
 80006d8:	bd80      	pop	{r7, pc}

080006da <SystemInit>:
  * @note   This function should be used only after reset.
  * @param  None
  * @retval None
  */
void SystemInit (void)
{
 80006da:	b480      	push	{r7}
 80006dc:	af00      	add	r7, sp, #0

  /* Configure the Vector Table location -------------------------------------*/
#if defined(USER_VECT_TAB_ADDRESS)
  SCB->VTOR = VECT_TAB_BASE_ADDRESS | VECT_TAB_OFFSET; /* Vector Table Relocation in Internal SRAM. */
#endif /* USER_VECT_TAB_ADDRESS */
}
 80006de:	bf00      	nop
 80006e0:	46bd      	mov	sp, r7
 80006e2:	bc80      	pop	{r7}
 80006e4:	4770      	bx	lr
	...

080006e8 <Reset_Handler>:
  .weak Reset_Handler
  .type Reset_Handler, %function
Reset_Handler:

/* Copy the data segment initializers from flash to SRAM */
  ldr r0, =_sdata
 80006e8:	480c      	ldr	r0, [pc, #48]	; (800071c <LoopFillZerobss+0x12>)
  ldr r1, =_edata
 80006ea:	490d      	ldr	r1, [pc, #52]	; (8000720 <LoopFillZerobss+0x16>)
  ldr r2, =_sidata
 80006ec:	4a0d      	ldr	r2, [pc, #52]	; (8000724 <LoopFillZerobss+0x1a>)
  movs r3, #0
 80006ee:	2300      	movs	r3, #0
  b LoopCopyDataInit
 80006f0:	e002      	b.n	80006f8 <LoopCopyDataInit>

080006f2 <CopyDataInit>:

CopyDataInit:
  ldr r4, [r2, r3]
 80006f2:	58d4      	ldr	r4, [r2, r3]
  str r4, [r0, r3]
 80006f4:	50c4      	str	r4, [r0, r3]
  adds r3, r3, #4
 80006f6:	3304      	adds	r3, #4

080006f8 <LoopCopyDataInit>:

LoopCopyDataInit:
  adds r4, r0, r3
 80006f8:	18c4      	adds	r4, r0, r3
  cmp r4, r1
 80006fa:	428c      	cmp	r4, r1
  bcc CopyDataInit
 80006fc:	d3f9      	bcc.n	80006f2 <CopyDataInit>
  
/* Zero fill the bss segment. */
  ldr r2, =_sbss
 80006fe:	4a0a      	ldr	r2, [pc, #40]	; (8000728 <LoopFillZerobss+0x1e>)
  ldr r4, =_ebss
 8000700:	4c0a      	ldr	r4, [pc, #40]	; (800072c <LoopFillZerobss+0x22>)
  movs r3, #0
 8000702:	2300      	movs	r3, #0
  b LoopFillZerobss
 8000704:	e001      	b.n	800070a <LoopFillZerobss>

08000706 <FillZerobss>:

FillZerobss:
  str  r3, [r2]
 8000706:	6013      	str	r3, [r2, #0]
  adds r2, r2, #4
 8000708:	3204      	adds	r2, #4

0800070a <LoopFillZerobss>:

LoopFillZerobss:
  cmp r2, r4
 800070a:	42a2      	cmp	r2, r4
  bcc FillZerobss
 800070c:	d3fb      	bcc.n	8000706 <FillZerobss>

/* Call the clock system intitialization function.*/
    bl  SystemInit
 800070e:	f7ff ffe4 	bl	80006da <SystemInit>
/* Call static constructors */
    bl __libc_init_array
 8000712:	f002 f8a9 	bl	8002868 <__libc_init_array>
/* Call the application's entry point.*/
  bl main
 8000716:	f7ff fd19 	bl	800014c <main>
  bx lr
 800071a:	4770      	bx	lr
  ldr r0, =_sdata
 800071c:	20000000 	.word	0x20000000
  ldr r1, =_edata
 8000720:	2000000c 	.word	0x2000000c
  ldr r2, =_sidata
 8000724:	08002ad0 	.word	0x08002ad0
  ldr r2, =_sbss
 8000728:	2000000c 	.word	0x2000000c
  ldr r4, =_ebss
 800072c:	200000d4 	.word	0x200000d4

08000730 <ADC1_2_IRQHandler>:
 * @retval : None
*/
    .section .text.Default_Handler,"ax",%progbits
Default_Handler:
Infinite_Loop:
  b Infinite_Loop
 8000730:	e7fe      	b.n	8000730 <ADC1_2_IRQHandler>
	...

08000734 <HAL_Init>:
  *         need to ensure that the SysTick time base is always set to 1 millisecond
  *         to have correct HAL operation.
  * @retval HAL status
  */
HAL_StatusTypeDef HAL_Init(void)
{
 8000734:	b580      	push	{r7, lr}
 8000736:	af00      	add	r7, sp, #0
    defined(STM32F102x6) || defined(STM32F102xB) || \
    defined(STM32F103x6) || defined(STM32F103xB) || defined(STM32F103xE) || defined(STM32F103xG) || \
    defined(STM32F105xC) || defined(STM32F107xC)

  /* Prefetch buffer is not available on value line devices */
  __HAL_FLASH_PREFETCH_BUFFER_ENABLE();
 8000738:	4b08      	ldr	r3, [pc, #32]	; (800075c <HAL_Init+0x28>)
 800073a:	681b      	ldr	r3, [r3, #0]
 800073c:	4a07      	ldr	r2, [pc, #28]	; (800075c <HAL_Init+0x28>)
 800073e:	f043 0310 	orr.w	r3, r3, #16
 8000742:	6013      	str	r3, [r2, #0]
#endif
#endif /* PREFETCH_ENABLE */

  /* Set Interrupt Group Priority */
  HAL_NVIC_SetPriorityGrouping(NVIC_PRIORITYGROUP_4);
 8000744:	2003      	movs	r0, #3
 8000746:	f000 f945 	bl	80009d4 <HAL_NVIC_SetPriorityGrouping>

  /* Use systick as time base source and configure 1ms tick (default clock after Reset is HSI) */
  HAL_InitTick(TICK_INT_PRIORITY);
 800074a:	2000      	movs	r0, #0
 800074c:	f000 f808 	bl	8000760 <HAL_InitTick>

  /* Init the low level hardware */
  HAL_MspInit();
 8000750:	f7ff feca 	bl	80004e8 <HAL_MspInit>

  /* Return function status */
  return HAL_OK;
 8000754:	2300      	movs	r3, #0
}
 8000756:	4618      	mov	r0, r3
 8000758:	bd80      	pop	{r7, pc}
 800075a:	bf00      	nop
 800075c:	40022000 	.word	0x40022000

08000760 <HAL_InitTick>:
  *       implementation  in user file.
  * @param TickPriority Tick interrupt priority.
  * @retval HAL status
  */
__weak HAL_StatusTypeDef HAL_InitTick(uint32_t TickPriority)
{
 8000760:	b580      	push	{r7, lr}
 8000762:	b082      	sub	sp, #8
 8000764:	af00      	add	r7, sp, #0
 8000766:	6078      	str	r0, [r7, #4]
  /* Configure the SysTick to have interrupt in 1ms time basis*/
  if (HAL_SYSTICK_Config(SystemCoreClock / (1000U / uwTickFreq)) > 0U)
 8000768:	4b12      	ldr	r3, [pc, #72]	; (80007b4 <HAL_InitTick+0x54>)
 800076a:	681a      	ldr	r2, [r3, #0]
 800076c:	4b12      	ldr	r3, [pc, #72]	; (80007b8 <HAL_InitTick+0x58>)
 800076e:	781b      	ldrb	r3, [r3, #0]
 8000770:	4619      	mov	r1, r3
 8000772:	f44f 737a 	mov.w	r3, #1000	; 0x3e8
 8000776:	fbb3 f3f1 	udiv	r3, r3, r1
 800077a:	fbb2 f3f3 	udiv	r3, r2, r3
 800077e:	4618      	mov	r0, r3
 8000780:	f000 f95d 	bl	8000a3e <HAL_SYSTICK_Config>
 8000784:	4603      	mov	r3, r0
 8000786:	2b00      	cmp	r3, #0
 8000788:	d001      	beq.n	800078e <HAL_InitTick+0x2e>
  {
    return HAL_ERROR;
 800078a:	2301      	movs	r3, #1
 800078c:	e00e      	b.n	80007ac <HAL_InitTick+0x4c>
  }

  /* Configure the SysTick IRQ priority */
  if (TickPriority < (1UL << __NVIC_PRIO_BITS))
 800078e:	687b      	ldr	r3, [r7, #4]
 8000790:	2b0f      	cmp	r3, #15
 8000792:	d80a      	bhi.n	80007aa <HAL_InitTick+0x4a>
  {
    HAL_NVIC_SetPriority(SysTick_IRQn, TickPriority, 0U);
 8000794:	2200      	movs	r2, #0
 8000796:	6879      	ldr	r1, [r7, #4]
 8000798:	f04f 30ff 	mov.w	r0, #4294967295
 800079c:	f000 f925 	bl	80009ea <HAL_NVIC_SetPriority>
    uwTickPrio = TickPriority;
 80007a0:	4a06      	ldr	r2, [pc, #24]	; (80007bc <HAL_InitTick+0x5c>)
 80007a2:	687b      	ldr	r3, [r7, #4]
 80007a4:	6013      	str	r3, [r2, #0]
  {
    return HAL_ERROR;
  }

  /* Return function status */
  return HAL_OK;
 80007a6:	2300      	movs	r3, #0
 80007a8:	e000      	b.n	80007ac <HAL_InitTick+0x4c>
    return HAL_ERROR;
 80007aa:	2301      	movs	r3, #1
}
 80007ac:	4618      	mov	r0, r3
 80007ae:	3708      	adds	r7, #8
 80007b0:	46bd      	mov	sp, r7
 80007b2:	bd80      	pop	{r7, pc}
 80007b4:	20000000 	.word	0x20000000
 80007b8:	20000008 	.word	0x20000008
 80007bc:	20000004 	.word	0x20000004

080007c0 <HAL_IncTick>:
  * @note This function is declared as __weak to be overwritten in case of other
  *      implementations in user file.
  * @retval None
  */
__weak void HAL_IncTick(void)
{
 80007c0:	b480      	push	{r7}
 80007c2:	af00      	add	r7, sp, #0
  uwTick += uwTickFreq;
 80007c4:	4b05      	ldr	r3, [pc, #20]	; (80007dc <HAL_IncTick+0x1c>)
 80007c6:	781b      	ldrb	r3, [r3, #0]
 80007c8:	461a      	mov	r2, r3
 80007ca:	4b05      	ldr	r3, [pc, #20]	; (80007e0 <HAL_IncTick+0x20>)
 80007cc:	681b      	ldr	r3, [r3, #0]
 80007ce:	4413      	add	r3, r2
 80007d0:	4a03      	ldr	r2, [pc, #12]	; (80007e0 <HAL_IncTick+0x20>)
 80007d2:	6013      	str	r3, [r2, #0]
}
 80007d4:	bf00      	nop
 80007d6:	46bd      	mov	sp, r7
 80007d8:	bc80      	pop	{r7}
 80007da:	4770      	bx	lr
 80007dc:	20000008 	.word	0x20000008
 80007e0:	200000d0 	.word	0x200000d0

080007e4 <HAL_GetTick>:
  * @note  This function is declared as __weak to be overwritten in case of other
  *       implementations in user file.
  * @retval tick value
  */
__weak uint32_t HAL_GetTick(void)
{
 80007e4:	b480      	push	{r7}
 80007e6:	af00      	add	r7, sp, #0
  return uwTick;
 80007e8:	4b02      	ldr	r3, [pc, #8]	; (80007f4 <HAL_GetTick+0x10>)
 80007ea:	681b      	ldr	r3, [r3, #0]
}
 80007ec:	4618      	mov	r0, r3
 80007ee:	46bd      	mov	sp, r7
 80007f0:	bc80      	pop	{r7}
 80007f2:	4770      	bx	lr
 80007f4:	200000d0 	.word	0x200000d0

080007f8 <HAL_Delay>:
  *       implementations in user file.
  * @param Delay specifies the delay time length, in milliseconds.
  * @retval None
  */
__weak void HAL_Delay(uint32_t Delay)
{
 80007f8:	b580      	push	{r7, lr}
 80007fa:	b084      	sub	sp, #16
 80007fc:	af00      	add	r7, sp, #0
 80007fe:	6078      	str	r0, [r7, #4]
  uint32_t tickstart = HAL_GetTick();
 8000800:	f7ff fff0 	bl	80007e4 <HAL_GetTick>
 8000804:	60b8      	str	r0, [r7, #8]
  uint32_t wait = Delay;
 8000806:	687b      	ldr	r3, [r7, #4]
 8000808:	60fb      	str	r3, [r7, #12]

  /* Add a freq to guarantee minimum wait */
  if (wait < HAL_MAX_DELAY)
 800080a:	68fb      	ldr	r3, [r7, #12]
 800080c:	f1b3 3fff 	cmp.w	r3, #4294967295
 8000810:	d005      	beq.n	800081e <HAL_Delay+0x26>
  {
    wait += (uint32_t)(uwTickFreq);
 8000812:	4b09      	ldr	r3, [pc, #36]	; (8000838 <HAL_Delay+0x40>)
 8000814:	781b      	ldrb	r3, [r3, #0]
 8000816:	461a      	mov	r2, r3
 8000818:	68fb      	ldr	r3, [r7, #12]
 800081a:	4413      	add	r3, r2
 800081c:	60fb      	str	r3, [r7, #12]
  }

  while ((HAL_GetTick() - tickstart) < wait)
 800081e:	bf00      	nop
 8000820:	f7ff ffe0 	bl	80007e4 <HAL_GetTick>
 8000824:	4602      	mov	r2, r0
 8000826:	68bb      	ldr	r3, [r7, #8]
 8000828:	1ad3      	subs	r3, r2, r3
 800082a:	68fa      	ldr	r2, [r7, #12]
 800082c:	429a      	cmp	r2, r3
 800082e:	d8f7      	bhi.n	8000820 <HAL_Delay+0x28>
  {
  }
}
 8000830:	bf00      	nop
 8000832:	3710      	adds	r7, #16
 8000834:	46bd      	mov	sp, r7
 8000836:	bd80      	pop	{r7, pc}
 8000838:	20000008 	.word	0x20000008

0800083c <__NVIC_SetPriorityGrouping>:
           In case of a conflict between priority grouping and available
           priority bits (__NVIC_PRIO_BITS), the smallest possible priority group is set.
  \param [in]      PriorityGroup  Priority grouping field.
 */
__STATIC_INLINE void __NVIC_SetPriorityGrouping(uint32_t PriorityGroup)
{
 800083c:	b480      	push	{r7}
 800083e:	b085      	sub	sp, #20
 8000840:	af00      	add	r7, sp, #0
 8000842:	6078      	str	r0, [r7, #4]
  uint32_t reg_value;
  uint32_t PriorityGroupTmp = (PriorityGroup & (uint32_t)0x07UL);             /* only values 0..7 are used          */
 8000844:	687b      	ldr	r3, [r7, #4]
 8000846:	f003 0307 	and.w	r3, r3, #7
 800084a:	60fb      	str	r3, [r7, #12]

  reg_value  =  SCB->AIRCR;                                                   /* read old register configuration    */
 800084c:	4b0c      	ldr	r3, [pc, #48]	; (8000880 <__NVIC_SetPriorityGrouping+0x44>)
 800084e:	68db      	ldr	r3, [r3, #12]
 8000850:	60bb      	str	r3, [r7, #8]
  reg_value &= ~((uint32_t)(SCB_AIRCR_VECTKEY_Msk | SCB_AIRCR_PRIGROUP_Msk)); /* clear bits to change               */
 8000852:	68ba      	ldr	r2, [r7, #8]
 8000854:	f64f 03ff 	movw	r3, #63743	; 0xf8ff
 8000858:	4013      	ands	r3, r2
 800085a:	60bb      	str	r3, [r7, #8]
  reg_value  =  (reg_value                                   |
                ((uint32_t)0x5FAUL << SCB_AIRCR_VECTKEY_Pos) |
                (PriorityGroupTmp << SCB_AIRCR_PRIGROUP_Pos) );               /* Insert write key and priority group */
 800085c:	68fb      	ldr	r3, [r7, #12]
 800085e:	021a      	lsls	r2, r3, #8
                ((uint32_t)0x5FAUL << SCB_AIRCR_VECTKEY_Pos) |
 8000860:	68bb      	ldr	r3, [r7, #8]
 8000862:	4313      	orrs	r3, r2
  reg_value  =  (reg_value                                   |
 8000864:	f043 63bf 	orr.w	r3, r3, #100139008	; 0x5f80000
 8000868:	f443 3300 	orr.w	r3, r3, #131072	; 0x20000
 800086c:	60bb      	str	r3, [r7, #8]
  SCB->AIRCR =  reg_value;
 800086e:	4a04      	ldr	r2, [pc, #16]	; (8000880 <__NVIC_SetPriorityGrouping+0x44>)
 8000870:	68bb      	ldr	r3, [r7, #8]
 8000872:	60d3      	str	r3, [r2, #12]
}
 8000874:	bf00      	nop
 8000876:	3714      	adds	r7, #20
 8000878:	46bd      	mov	sp, r7
 800087a:	bc80      	pop	{r7}
 800087c:	4770      	bx	lr
 800087e:	bf00      	nop
 8000880:	e000ed00 	.word	0xe000ed00

08000884 <__NVIC_GetPriorityGrouping>:
  \brief   Get Priority Grouping
  \details Reads the priority grouping field from the NVIC Interrupt Controller.
  \return                Priority grouping field (SCB->AIRCR [10:8] PRIGROUP field).
 */
__STATIC_INLINE uint32_t __NVIC_GetPriorityGrouping(void)
{
 8000884:	b480      	push	{r7}
 8000886:	af00      	add	r7, sp, #0
  return ((uint32_t)((SCB->AIRCR & SCB_AIRCR_PRIGROUP_Msk) >> SCB_AIRCR_PRIGROUP_Pos));
 8000888:	4b04      	ldr	r3, [pc, #16]	; (800089c <__NVIC_GetPriorityGrouping+0x18>)
 800088a:	68db      	ldr	r3, [r3, #12]
 800088c:	0a1b      	lsrs	r3, r3, #8
 800088e:	f003 0307 	and.w	r3, r3, #7
}
 8000892:	4618      	mov	r0, r3
 8000894:	46bd      	mov	sp, r7
 8000896:	bc80      	pop	{r7}
 8000898:	4770      	bx	lr
 800089a:	bf00      	nop
 800089c:	e000ed00 	.word	0xe000ed00

080008a0 <__NVIC_EnableIRQ>:
  \details Enables a device specific interrupt in the NVIC interrupt controller.
  \param [in]      IRQn  Device specific interrupt number.
  \note    IRQn must not be negative.
 */
__STATIC_INLINE void __NVIC_EnableIRQ(IRQn_Type IRQn)
{
 80008a0:	b480      	push	{r7}
 80008a2:	b083      	sub	sp, #12
 80008a4:	af00      	add	r7, sp, #0
 80008a6:	4603      	mov	r3, r0
 80008a8:	71fb      	strb	r3, [r7, #7]
  if ((int32_t)(IRQn) >= 0)
 80008aa:	f997 3007 	ldrsb.w	r3, [r7, #7]
 80008ae:	2b00      	cmp	r3, #0
 80008b0:	db0b      	blt.n	80008ca <__NVIC_EnableIRQ+0x2a>
  {
    NVIC->ISER[(((uint32_t)IRQn) >> 5UL)] = (uint32_t)(1UL << (((uint32_t)IRQn) & 0x1FUL));
 80008b2:	79fb      	ldrb	r3, [r7, #7]
 80008b4:	f003 021f 	and.w	r2, r3, #31
 80008b8:	4906      	ldr	r1, [pc, #24]	; (80008d4 <__NVIC_EnableIRQ+0x34>)
 80008ba:	f997 3007 	ldrsb.w	r3, [r7, #7]
 80008be:	095b      	lsrs	r3, r3, #5
 80008c0:	2001      	movs	r0, #1
 80008c2:	fa00 f202 	lsl.w	r2, r0, r2
 80008c6:	f841 2023 	str.w	r2, [r1, r3, lsl #2]
  }
}
 80008ca:	bf00      	nop
 80008cc:	370c      	adds	r7, #12
 80008ce:	46bd      	mov	sp, r7
 80008d0:	bc80      	pop	{r7}
 80008d2:	4770      	bx	lr
 80008d4:	e000e100 	.word	0xe000e100

080008d8 <__NVIC_SetPriority>:
  \param [in]      IRQn  Interrupt number.
  \param [in]  priority  Priority to set.
  \note    The priority cannot be set for every processor exception.
 */
__STATIC_INLINE void __NVIC_SetPriority(IRQn_Type IRQn, uint32_t priority)
{
 80008d8:	b480      	push	{r7}
 80008da:	b083      	sub	sp, #12
 80008dc:	af00      	add	r7, sp, #0
 80008de:	4603      	mov	r3, r0
 80008e0:	6039      	str	r1, [r7, #0]
 80008e2:	71fb      	strb	r3, [r7, #7]
  if ((int32_t)(IRQn) >= 0)
 80008e4:	f997 3007 	ldrsb.w	r3, [r7, #7]
 80008e8:	2b00      	cmp	r3, #0
 80008ea:	db0a      	blt.n	8000902 <__NVIC_SetPriority+0x2a>
  {
    NVIC->IP[((uint32_t)IRQn)]               = (uint8_t)((priority << (8U - __NVIC_PRIO_BITS)) & (uint32_t)0xFFUL);
 80008ec:	683b      	ldr	r3, [r7, #0]
 80008ee:	b2da      	uxtb	r2, r3
 80008f0:	490c      	ldr	r1, [pc, #48]	; (8000924 <__NVIC_SetPriority+0x4c>)
 80008f2:	f997 3007 	ldrsb.w	r3, [r7, #7]
 80008f6:	0112      	lsls	r2, r2, #4
 80008f8:	b2d2      	uxtb	r2, r2
 80008fa:	440b      	add	r3, r1
 80008fc:	f883 2300 	strb.w	r2, [r3, #768]	; 0x300
  }
  else
  {
    SCB->SHP[(((uint32_t)IRQn) & 0xFUL)-4UL] = (uint8_t)((priority << (8U - __NVIC_PRIO_BITS)) & (uint32_t)0xFFUL);
  }
}
 8000900:	e00a      	b.n	8000918 <__NVIC_SetPriority+0x40>
    SCB->SHP[(((uint32_t)IRQn) & 0xFUL)-4UL] = (uint8_t)((priority << (8U - __NVIC_PRIO_BITS)) & (uint32_t)0xFFUL);
 8000902:	683b      	ldr	r3, [r7, #0]
 8000904:	b2da      	uxtb	r2, r3
 8000906:	4908      	ldr	r1, [pc, #32]	; (8000928 <__NVIC_SetPriority+0x50>)
 8000908:	79fb      	ldrb	r3, [r7, #7]
 800090a:	f003 030f 	and.w	r3, r3, #15
 800090e:	3b04      	subs	r3, #4
 8000910:	0112      	lsls	r2, r2, #4
 8000912:	b2d2      	uxtb	r2, r2
 8000914:	440b      	add	r3, r1
 8000916:	761a      	strb	r2, [r3, #24]
}
 8000918:	bf00      	nop
 800091a:	370c      	adds	r7, #12
 800091c:	46bd      	mov	sp, r7
 800091e:	bc80      	pop	{r7}
 8000920:	4770      	bx	lr
 8000922:	bf00      	nop
 8000924:	e000e100 	.word	0xe000e100
 8000928:	e000ed00 	.word	0xe000ed00

0800092c <NVIC_EncodePriority>:
  \param [in]   PreemptPriority  Preemptive priority value (starting from 0).
  \param [in]       SubPriority  Subpriority value (starting from 0).
  \return                        Encoded priority. Value can be used in the function \ref NVIC_SetPriority().
 */
__STATIC_INLINE uint32_t NVIC_EncodePriority (uint32_t PriorityGroup, uint32_t PreemptPriority, uint32_t SubPriority)
{
 800092c:	b480      	push	{r7}
 800092e:	b089      	sub	sp, #36	; 0x24
 8000930:	af00      	add	r7, sp, #0
 8000932:	60f8      	str	r0, [r7, #12]
 8000934:	60b9      	str	r1, [r7, #8]
 8000936:	607a      	str	r2, [r7, #4]
  uint32_t PriorityGroupTmp = (PriorityGroup & (uint32_t)0x07UL);   /* only values 0..7 are used          */
 8000938:	68fb      	ldr	r3, [r7, #12]
 800093a:	f003 0307 	and.w	r3, r3, #7
 800093e:	61fb      	str	r3, [r7, #28]
  uint32_t PreemptPriorityBits;
  uint32_t SubPriorityBits;

  PreemptPriorityBits = ((7UL - PriorityGroupTmp) > (uint32_t)(__NVIC_PRIO_BITS)) ? (uint32_t)(__NVIC_PRIO_BITS) : (uint32_t)(7UL - PriorityGroupTmp);
 8000940:	69fb      	ldr	r3, [r7, #28]
 8000942:	f1c3 0307 	rsb	r3, r3, #7
 8000946:	2b04      	cmp	r3, #4
 8000948:	bf28      	it	cs
 800094a:	2304      	movcs	r3, #4
 800094c:	61bb      	str	r3, [r7, #24]
  SubPriorityBits     = ((PriorityGroupTmp + (uint32_t)(__NVIC_PRIO_BITS)) < (uint32_t)7UL) ? (uint32_t)0UL : (uint32_t)((PriorityGroupTmp - 7UL) + (uint32_t)(__NVIC_PRIO_BITS));
 800094e:	69fb      	ldr	r3, [r7, #28]
 8000950:	3304      	adds	r3, #4
 8000952:	2b06      	cmp	r3, #6
 8000954:	d902      	bls.n	800095c <NVIC_EncodePriority+0x30>
 8000956:	69fb      	ldr	r3, [r7, #28]
 8000958:	3b03      	subs	r3, #3
 800095a:	e000      	b.n	800095e <NVIC_EncodePriority+0x32>
 800095c:	2300      	movs	r3, #0
 800095e:	617b      	str	r3, [r7, #20]

  return (
           ((PreemptPriority & (uint32_t)((1UL << (PreemptPriorityBits)) - 1UL)) << SubPriorityBits) |
 8000960:	f04f 32ff 	mov.w	r2, #4294967295
 8000964:	69bb      	ldr	r3, [r7, #24]
 8000966:	fa02 f303 	lsl.w	r3, r2, r3
 800096a:	43da      	mvns	r2, r3
 800096c:	68bb      	ldr	r3, [r7, #8]
 800096e:	401a      	ands	r2, r3
 8000970:	697b      	ldr	r3, [r7, #20]
 8000972:	409a      	lsls	r2, r3
           ((SubPriority     & (uint32_t)((1UL << (SubPriorityBits    )) - 1UL)))
 8000974:	f04f 31ff 	mov.w	r1, #4294967295
 8000978:	697b      	ldr	r3, [r7, #20]
 800097a:	fa01 f303 	lsl.w	r3, r1, r3
 800097e:	43d9      	mvns	r1, r3
 8000980:	687b      	ldr	r3, [r7, #4]
 8000982:	400b      	ands	r3, r1
           ((PreemptPriority & (uint32_t)((1UL << (PreemptPriorityBits)) - 1UL)) << SubPriorityBits) |
 8000984:	4313      	orrs	r3, r2
         );
}
 8000986:	4618      	mov	r0, r3
 8000988:	3724      	adds	r7, #36	; 0x24
 800098a:	46bd      	mov	sp, r7
 800098c:	bc80      	pop	{r7}
 800098e:	4770      	bx	lr

08000990 <SysTick_Config>:
  \note    When the variable <b>__Vendor_SysTickConfig</b> is set to 1, then the
           function <b>SysTick_Config</b> is not included. In this case, the file <b><i>device</i>.h</b>
           must contain a vendor-specific implementation of this function.
 */
__STATIC_INLINE uint32_t SysTick_Config(uint32_t ticks)
{
 8000990:	b580      	push	{r7, lr}
 8000992:	b082      	sub	sp, #8
 8000994:	af00      	add	r7, sp, #0
 8000996:	6078      	str	r0, [r7, #4]
  if ((ticks - 1UL) > SysTick_LOAD_RELOAD_Msk)
 8000998:	687b      	ldr	r3, [r7, #4]
 800099a:	3b01      	subs	r3, #1
 800099c:	f1b3 7f80 	cmp.w	r3, #16777216	; 0x1000000
 80009a0:	d301      	bcc.n	80009a6 <SysTick_Config+0x16>
  {
    return (1UL);                                                   /* Reload value impossible */
 80009a2:	2301      	movs	r3, #1
 80009a4:	e00f      	b.n	80009c6 <SysTick_Config+0x36>
  }

  SysTick->LOAD  = (uint32_t)(ticks - 1UL);                         /* set reload register */
 80009a6:	4a0a      	ldr	r2, [pc, #40]	; (80009d0 <SysTick_Config+0x40>)
 80009a8:	687b      	ldr	r3, [r7, #4]
 80009aa:	3b01      	subs	r3, #1
 80009ac:	6053      	str	r3, [r2, #4]
  NVIC_SetPriority (SysTick_IRQn, (1UL << __NVIC_PRIO_BITS) - 1UL); /* set Priority for Systick Interrupt */
 80009ae:	210f      	movs	r1, #15
 80009b0:	f04f 30ff 	mov.w	r0, #4294967295
 80009b4:	f7ff ff90 	bl	80008d8 <__NVIC_SetPriority>
  SysTick->VAL   = 0UL;                                             /* Load the SysTick Counter Value */
 80009b8:	4b05      	ldr	r3, [pc, #20]	; (80009d0 <SysTick_Config+0x40>)
 80009ba:	2200      	movs	r2, #0
 80009bc:	609a      	str	r2, [r3, #8]
  SysTick->CTRL  = SysTick_CTRL_CLKSOURCE_Msk |
 80009be:	4b04      	ldr	r3, [pc, #16]	; (80009d0 <SysTick_Config+0x40>)
 80009c0:	2207      	movs	r2, #7
 80009c2:	601a      	str	r2, [r3, #0]
                   SysTick_CTRL_TICKINT_Msk   |
                   SysTick_CTRL_ENABLE_Msk;                         /* Enable SysTick IRQ and SysTick Timer */
  return (0UL);                                                     /* Function successful */
 80009c4:	2300      	movs	r3, #0
}
 80009c6:	4618      	mov	r0, r3
 80009c8:	3708      	adds	r7, #8
 80009ca:	46bd      	mov	sp, r7
 80009cc:	bd80      	pop	{r7, pc}
 80009ce:	bf00      	nop
 80009d0:	e000e010 	.word	0xe000e010

080009d4 <HAL_NVIC_SetPriorityGrouping>:
  * @note   When the NVIC_PriorityGroup_0 is selected, IRQ preemption is no more possible. 
  *         The pending IRQ priority will be managed only by the subpriority. 
  * @retval None
  */
void HAL_NVIC_SetPriorityGrouping(uint32_t PriorityGroup)
{
 80009d4:	b580      	push	{r7, lr}
 80009d6:	b082      	sub	sp, #8
 80009d8:	af00      	add	r7, sp, #0
 80009da:	6078      	str	r0, [r7, #4]
  /* Check the parameters */
  assert_param(IS_NVIC_PRIORITY_GROUP(PriorityGroup));
  
  /* Set the PRIGROUP[10:8] bits according to the PriorityGroup parameter value */
  NVIC_SetPriorityGrouping(PriorityGroup);
 80009dc:	6878      	ldr	r0, [r7, #4]
 80009de:	f7ff ff2d 	bl	800083c <__NVIC_SetPriorityGrouping>
}
 80009e2:	bf00      	nop
 80009e4:	3708      	adds	r7, #8
 80009e6:	46bd      	mov	sp, r7
 80009e8:	bd80      	pop	{r7, pc}

080009ea <HAL_NVIC_SetPriority>:
  *         This parameter can be a value between 0 and 15
  *         A lower priority value indicates a higher priority.          
  * @retval None
  */
void HAL_NVIC_SetPriority(IRQn_Type IRQn, uint32_t PreemptPriority, uint32_t SubPriority)
{ 
 80009ea:	b580      	push	{r7, lr}
 80009ec:	b086      	sub	sp, #24
 80009ee:	af00      	add	r7, sp, #0
 80009f0:	4603      	mov	r3, r0
 80009f2:	60b9      	str	r1, [r7, #8]
 80009f4:	607a      	str	r2, [r7, #4]
 80009f6:	73fb      	strb	r3, [r7, #15]
  uint32_t prioritygroup = 0x00U;
 80009f8:	2300      	movs	r3, #0
 80009fa:	617b      	str	r3, [r7, #20]
  
  /* Check the parameters */
  assert_param(IS_NVIC_SUB_PRIORITY(SubPriority));
  assert_param(IS_NVIC_PREEMPTION_PRIORITY(PreemptPriority));
  
  prioritygroup = NVIC_GetPriorityGrouping();
 80009fc:	f7ff ff42 	bl	8000884 <__NVIC_GetPriorityGrouping>
 8000a00:	6178      	str	r0, [r7, #20]
  
  NVIC_SetPriority(IRQn, NVIC_EncodePriority(prioritygroup, PreemptPriority, SubPriority));
 8000a02:	687a      	ldr	r2, [r7, #4]
 8000a04:	68b9      	ldr	r1, [r7, #8]
 8000a06:	6978      	ldr	r0, [r7, #20]
 8000a08:	f7ff ff90 	bl	800092c <NVIC_EncodePriority>
 8000a0c:	4602      	mov	r2, r0
 8000a0e:	f997 300f 	ldrsb.w	r3, [r7, #15]
 8000a12:	4611      	mov	r1, r2
 8000a14:	4618      	mov	r0, r3
 8000a16:	f7ff ff5f 	bl	80008d8 <__NVIC_SetPriority>
}
 8000a1a:	bf00      	nop
 8000a1c:	3718      	adds	r7, #24
 8000a1e:	46bd      	mov	sp, r7
 8000a20:	bd80      	pop	{r7, pc}

08000a22 <HAL_NVIC_EnableIRQ>:
  *         This parameter can be an enumerator of IRQn_Type enumeration
  *         (For the complete STM32 Devices IRQ Channels list, please refer to the appropriate CMSIS device file (stm32f10xxx.h))
  * @retval None
  */
void HAL_NVIC_EnableIRQ(IRQn_Type IRQn)
{
 8000a22:	b580      	push	{r7, lr}
 8000a24:	b082      	sub	sp, #8
 8000a26:	af00      	add	r7, sp, #0
 8000a28:	4603      	mov	r3, r0
 8000a2a:	71fb      	strb	r3, [r7, #7]
  /* Check the parameters */
  assert_param(IS_NVIC_DEVICE_IRQ(IRQn));

  /* Enable interrupt */
  NVIC_EnableIRQ(IRQn);
 8000a2c:	f997 3007 	ldrsb.w	r3, [r7, #7]
 8000a30:	4618      	mov	r0, r3
 8000a32:	f7ff ff35 	bl	80008a0 <__NVIC_EnableIRQ>
}
 8000a36:	bf00      	nop
 8000a38:	3708      	adds	r7, #8
 8000a3a:	46bd      	mov	sp, r7
 8000a3c:	bd80      	pop	{r7, pc}

08000a3e <HAL_SYSTICK_Config>:
  * @param  TicksNumb: Specifies the ticks Number of ticks between two interrupts.
  * @retval status:  - 0  Function succeeded.
  *                  - 1  Function failed.
  */
uint32_t HAL_SYSTICK_Config(uint32_t TicksNumb)
{
 8000a3e:	b580      	push	{r7, lr}
 8000a40:	b082      	sub	sp, #8
 8000a42:	af00      	add	r7, sp, #0
 8000a44:	6078      	str	r0, [r7, #4]
   return SysTick_Config(TicksNumb);
 8000a46:	6878      	ldr	r0, [r7, #4]
 8000a48:	f7ff ffa2 	bl	8000990 <SysTick_Config>
 8000a4c:	4603      	mov	r3, r0
}
 8000a4e:	4618      	mov	r0, r3
 8000a50:	3708      	adds	r7, #8
 8000a52:	46bd      	mov	sp, r7
 8000a54:	bd80      	pop	{r7, pc}
	...

08000a58 <HAL_GPIO_Init>:
  * @param  GPIO_Init: pointer to a GPIO_InitTypeDef structure that contains
  *         the configuration information for the specified GPIO peripheral.
  * @retval None
  */
void HAL_GPIO_Init(GPIO_TypeDef  *GPIOx, GPIO_InitTypeDef *GPIO_Init)
{
 8000a58:	b480      	push	{r7}
 8000a5a:	b08b      	sub	sp, #44	; 0x2c
 8000a5c:	af00      	add	r7, sp, #0
 8000a5e:	6078      	str	r0, [r7, #4]
 8000a60:	6039      	str	r1, [r7, #0]
  uint32_t position = 0x00u;
 8000a62:	2300      	movs	r3, #0
 8000a64:	627b      	str	r3, [r7, #36]	; 0x24
  uint32_t ioposition;
  uint32_t iocurrent;
  uint32_t temp;
  uint32_t config = 0x00u;
 8000a66:	2300      	movs	r3, #0
 8000a68:	623b      	str	r3, [r7, #32]
  assert_param(IS_GPIO_ALL_INSTANCE(GPIOx));
  assert_param(IS_GPIO_PIN(GPIO_Init->Pin));
  assert_param(IS_GPIO_MODE(GPIO_Init->Mode));

  /* Configure the port pins */
  while (((GPIO_Init->Pin) >> position) != 0x00u)
 8000a6a:	e127      	b.n	8000cbc <HAL_GPIO_Init+0x264>
  {
    /* Get the IO position */
    ioposition = (0x01uL << position);
 8000a6c:	2201      	movs	r2, #1
 8000a6e:	6a7b      	ldr	r3, [r7, #36]	; 0x24
 8000a70:	fa02 f303 	lsl.w	r3, r2, r3
 8000a74:	61fb      	str	r3, [r7, #28]

    /* Get the current IO position */
    iocurrent = (uint32_t)(GPIO_Init->Pin) & ioposition;
 8000a76:	683b      	ldr	r3, [r7, #0]
 8000a78:	681b      	ldr	r3, [r3, #0]
 8000a7a:	69fa      	ldr	r2, [r7, #28]
 8000a7c:	4013      	ands	r3, r2
 8000a7e:	61bb      	str	r3, [r7, #24]

    if (iocurrent == ioposition)
 8000a80:	69ba      	ldr	r2, [r7, #24]
 8000a82:	69fb      	ldr	r3, [r7, #28]
 8000a84:	429a      	cmp	r2, r3
 8000a86:	f040 8116 	bne.w	8000cb6 <HAL_GPIO_Init+0x25e>
    {
      /* Check the Alternate function parameters */
      assert_param(IS_GPIO_AF_INSTANCE(GPIOx));

      /* Based on the required mode, filling config variable with MODEy[1:0] and CNFy[3:2] corresponding bits */
      switch (GPIO_Init->Mode)
 8000a8a:	683b      	ldr	r3, [r7, #0]
 8000a8c:	685b      	ldr	r3, [r3, #4]
 8000a8e:	2b12      	cmp	r3, #18
 8000a90:	d034      	beq.n	8000afc <HAL_GPIO_Init+0xa4>
 8000a92:	2b12      	cmp	r3, #18
 8000a94:	d80d      	bhi.n	8000ab2 <HAL_GPIO_Init+0x5a>
 8000a96:	2b02      	cmp	r3, #2
 8000a98:	d02b      	beq.n	8000af2 <HAL_GPIO_Init+0x9a>
 8000a9a:	2b02      	cmp	r3, #2
 8000a9c:	d804      	bhi.n	8000aa8 <HAL_GPIO_Init+0x50>
 8000a9e:	2b00      	cmp	r3, #0
 8000aa0:	d031      	beq.n	8000b06 <HAL_GPIO_Init+0xae>
 8000aa2:	2b01      	cmp	r3, #1
 8000aa4:	d01c      	beq.n	8000ae0 <HAL_GPIO_Init+0x88>
          config = GPIO_CR_MODE_INPUT + GPIO_CR_CNF_ANALOG;
          break;

        /* Parameters are checked with assert_param */
        default:
          break;
 8000aa6:	e048      	b.n	8000b3a <HAL_GPIO_Init+0xe2>
      switch (GPIO_Init->Mode)
 8000aa8:	2b03      	cmp	r3, #3
 8000aaa:	d043      	beq.n	8000b34 <HAL_GPIO_Init+0xdc>
 8000aac:	2b11      	cmp	r3, #17
 8000aae:	d01b      	beq.n	8000ae8 <HAL_GPIO_Init+0x90>
          break;
 8000ab0:	e043      	b.n	8000b3a <HAL_GPIO_Init+0xe2>
      switch (GPIO_Init->Mode)
 8000ab2:	4a89      	ldr	r2, [pc, #548]	; (8000cd8 <HAL_GPIO_Init+0x280>)
 8000ab4:	4293      	cmp	r3, r2
 8000ab6:	d026      	beq.n	8000b06 <HAL_GPIO_Init+0xae>
 8000ab8:	4a87      	ldr	r2, [pc, #540]	; (8000cd8 <HAL_GPIO_Init+0x280>)
 8000aba:	4293      	cmp	r3, r2
 8000abc:	d806      	bhi.n	8000acc <HAL_GPIO_Init+0x74>
 8000abe:	4a87      	ldr	r2, [pc, #540]	; (8000cdc <HAL_GPIO_Init+0x284>)
 8000ac0:	4293      	cmp	r3, r2
 8000ac2:	d020      	beq.n	8000b06 <HAL_GPIO_Init+0xae>
 8000ac4:	4a86      	ldr	r2, [pc, #536]	; (8000ce0 <HAL_GPIO_Init+0x288>)
 8000ac6:	4293      	cmp	r3, r2
 8000ac8:	d01d      	beq.n	8000b06 <HAL_GPIO_Init+0xae>
          break;
 8000aca:	e036      	b.n	8000b3a <HAL_GPIO_Init+0xe2>
      switch (GPIO_Init->Mode)
 8000acc:	4a85      	ldr	r2, [pc, #532]	; (8000ce4 <HAL_GPIO_Init+0x28c>)
 8000ace:	4293      	cmp	r3, r2
 8000ad0:	d019      	beq.n	8000b06 <HAL_GPIO_Init+0xae>
 8000ad2:	4a85      	ldr	r2, [pc, #532]	; (8000ce8 <HAL_GPIO_Init+0x290>)
 8000ad4:	4293      	cmp	r3, r2
 8000ad6:	d016      	beq.n	8000b06 <HAL_GPIO_Init+0xae>
 8000ad8:	4a84      	ldr	r2, [pc, #528]	; (8000cec <HAL_GPIO_Init+0x294>)
 8000ada:	4293      	cmp	r3, r2
 8000adc:	d013      	beq.n	8000b06 <HAL_GPIO_Init+0xae>
          break;
 8000ade:	e02c      	b.n	8000b3a <HAL_GPIO_Init+0xe2>
          config = GPIO_Init->Speed + GPIO_CR_CNF_GP_OUTPUT_PP;
 8000ae0:	683b      	ldr	r3, [r7, #0]
 8000ae2:	68db      	ldr	r3, [r3, #12]
 8000ae4:	623b      	str	r3, [r7, #32]
          break;
 8000ae6:	e028      	b.n	8000b3a <HAL_GPIO_Init+0xe2>
          config = GPIO_Init->Speed + GPIO_CR_CNF_GP_OUTPUT_OD;
 8000ae8:	683b      	ldr	r3, [r7, #0]
 8000aea:	68db      	ldr	r3, [r3, #12]
 8000aec:	3304      	adds	r3, #4
 8000aee:	623b      	str	r3, [r7, #32]
          break;
 8000af0:	e023      	b.n	8000b3a <HAL_GPIO_Init+0xe2>
          config = GPIO_Init->Speed + GPIO_CR_CNF_AF_OUTPUT_PP;
 8000af2:	683b      	ldr	r3, [r7, #0]
 8000af4:	68db      	ldr	r3, [r3, #12]
 8000af6:	3308      	adds	r3, #8
 8000af8:	623b      	str	r3, [r7, #32]
          break;
 8000afa:	e01e      	b.n	8000b3a <HAL_GPIO_Init+0xe2>
          config = GPIO_Init->Speed + GPIO_CR_CNF_AF_OUTPUT_OD;
 8000afc:	683b      	ldr	r3, [r7, #0]
 8000afe:	68db      	ldr	r3, [r3, #12]
 8000b00:	330c      	adds	r3, #12
 8000b02:	623b      	str	r3, [r7, #32]
          break;
 8000b04:	e019      	b.n	8000b3a <HAL_GPIO_Init+0xe2>
          if (GPIO_Init->Pull == GPIO_NOPULL)
 8000b06:	683b      	ldr	r3, [r7, #0]
 8000b08:	689b      	ldr	r3, [r3, #8]
 8000b0a:	2b00      	cmp	r3, #0
 8000b0c:	d102      	bne.n	8000b14 <HAL_GPIO_Init+0xbc>
            config = GPIO_CR_MODE_INPUT + GPIO_CR_CNF_INPUT_FLOATING;
 8000b0e:	2304      	movs	r3, #4
 8000b10:	623b      	str	r3, [r7, #32]
          break;
 8000b12:	e012      	b.n	8000b3a <HAL_GPIO_Init+0xe2>
          else if (GPIO_Init->Pull == GPIO_PULLUP)
 8000b14:	683b      	ldr	r3, [r7, #0]
 8000b16:	689b      	ldr	r3, [r3, #8]
 8000b18:	2b01      	cmp	r3, #1
 8000b1a:	d105      	bne.n	8000b28 <HAL_GPIO_Init+0xd0>
            config = GPIO_CR_MODE_INPUT + GPIO_CR_CNF_INPUT_PU_PD;
 8000b1c:	2308      	movs	r3, #8
 8000b1e:	623b      	str	r3, [r7, #32]
            GPIOx->BSRR = ioposition;
 8000b20:	687b      	ldr	r3, [r7, #4]
 8000b22:	69fa      	ldr	r2, [r7, #28]
 8000b24:	611a      	str	r2, [r3, #16]
          break;
 8000b26:	e008      	b.n	8000b3a <HAL_GPIO_Init+0xe2>
            config = GPIO_CR_MODE_INPUT + GPIO_CR_CNF_INPUT_PU_PD;
 8000b28:	2308      	movs	r3, #8
 8000b2a:	623b      	str	r3, [r7, #32]
            GPIOx->BRR = ioposition;
 8000b2c:	687b      	ldr	r3, [r7, #4]
 8000b2e:	69fa      	ldr	r2, [r7, #28]
 8000b30:	615a      	str	r2, [r3, #20]
          break;
 8000b32:	e002      	b.n	8000b3a <HAL_GPIO_Init+0xe2>
          config = GPIO_CR_MODE_INPUT + GPIO_CR_CNF_ANALOG;
 8000b34:	2300      	movs	r3, #0
 8000b36:	623b      	str	r3, [r7, #32]
          break;
 8000b38:	bf00      	nop
      }

      /* Check if the current bit belongs to first half or last half of the pin count number
       in order to address CRH or CRL register*/
      configregister = (iocurrent < GPIO_PIN_8) ? &GPIOx->CRL     : &GPIOx->CRH;
 8000b3a:	69bb      	ldr	r3, [r7, #24]
 8000b3c:	2bff      	cmp	r3, #255	; 0xff
 8000b3e:	d801      	bhi.n	8000b44 <HAL_GPIO_Init+0xec>
 8000b40:	687b      	ldr	r3, [r7, #4]
 8000b42:	e001      	b.n	8000b48 <HAL_GPIO_Init+0xf0>
 8000b44:	687b      	ldr	r3, [r7, #4]
 8000b46:	3304      	adds	r3, #4
 8000b48:	617b      	str	r3, [r7, #20]
      registeroffset = (iocurrent < GPIO_PIN_8) ? (position << 2u) : ((position - 8u) << 2u);
 8000b4a:	69bb      	ldr	r3, [r7, #24]
 8000b4c:	2bff      	cmp	r3, #255	; 0xff
 8000b4e:	d802      	bhi.n	8000b56 <HAL_GPIO_Init+0xfe>
 8000b50:	6a7b      	ldr	r3, [r7, #36]	; 0x24
 8000b52:	009b      	lsls	r3, r3, #2
 8000b54:	e002      	b.n	8000b5c <HAL_GPIO_Init+0x104>
 8000b56:	6a7b      	ldr	r3, [r7, #36]	; 0x24
 8000b58:	3b08      	subs	r3, #8
 8000b5a:	009b      	lsls	r3, r3, #2
 8000b5c:	613b      	str	r3, [r7, #16]

      /* Apply the new configuration of the pin to the register */
      MODIFY_REG((*configregister), ((GPIO_CRL_MODE0 | GPIO_CRL_CNF0) << registeroffset), (config << registeroffset));
 8000b5e:	697b      	ldr	r3, [r7, #20]
 8000b60:	681a      	ldr	r2, [r3, #0]
 8000b62:	210f      	movs	r1, #15
 8000b64:	693b      	ldr	r3, [r7, #16]
 8000b66:	fa01 f303 	lsl.w	r3, r1, r3
 8000b6a:	43db      	mvns	r3, r3
 8000b6c:	401a      	ands	r2, r3
 8000b6e:	6a39      	ldr	r1, [r7, #32]
 8000b70:	693b      	ldr	r3, [r7, #16]
 8000b72:	fa01 f303 	lsl.w	r3, r1, r3
 8000b76:	431a      	orrs	r2, r3
 8000b78:	697b      	ldr	r3, [r7, #20]
 8000b7a:	601a      	str	r2, [r3, #0]

      /*--------------------- EXTI Mode Configuration ------------------------*/
      /* Configure the External Interrupt or event for the current IO */
      if ((GPIO_Init->Mode & EXTI_MODE) == EXTI_MODE)
 8000b7c:	683b      	ldr	r3, [r7, #0]
 8000b7e:	685b      	ldr	r3, [r3, #4]
 8000b80:	f003 5380 	and.w	r3, r3, #268435456	; 0x10000000
 8000b84:	2b00      	cmp	r3, #0
 8000b86:	f000 8096 	beq.w	8000cb6 <HAL_GPIO_Init+0x25e>
      {
        /* Enable AFIO Clock */
        __HAL_RCC_AFIO_CLK_ENABLE();
 8000b8a:	4b59      	ldr	r3, [pc, #356]	; (8000cf0 <HAL_GPIO_Init+0x298>)
 8000b8c:	699b      	ldr	r3, [r3, #24]
 8000b8e:	4a58      	ldr	r2, [pc, #352]	; (8000cf0 <HAL_GPIO_Init+0x298>)
 8000b90:	f043 0301 	orr.w	r3, r3, #1
 8000b94:	6193      	str	r3, [r2, #24]
 8000b96:	4b56      	ldr	r3, [pc, #344]	; (8000cf0 <HAL_GPIO_Init+0x298>)
 8000b98:	699b      	ldr	r3, [r3, #24]
 8000b9a:	f003 0301 	and.w	r3, r3, #1
 8000b9e:	60bb      	str	r3, [r7, #8]
 8000ba0:	68bb      	ldr	r3, [r7, #8]
        temp = AFIO->EXTICR[position >> 2u];
 8000ba2:	4a54      	ldr	r2, [pc, #336]	; (8000cf4 <HAL_GPIO_Init+0x29c>)
 8000ba4:	6a7b      	ldr	r3, [r7, #36]	; 0x24
 8000ba6:	089b      	lsrs	r3, r3, #2
 8000ba8:	3302      	adds	r3, #2
 8000baa:	f852 3023 	ldr.w	r3, [r2, r3, lsl #2]
 8000bae:	60fb      	str	r3, [r7, #12]
        CLEAR_BIT(temp, (0x0Fu) << (4u * (position & 0x03u)));
 8000bb0:	6a7b      	ldr	r3, [r7, #36]	; 0x24
 8000bb2:	f003 0303 	and.w	r3, r3, #3
 8000bb6:	009b      	lsls	r3, r3, #2
 8000bb8:	220f      	movs	r2, #15
 8000bba:	fa02 f303 	lsl.w	r3, r2, r3
 8000bbe:	43db      	mvns	r3, r3
 8000bc0:	68fa      	ldr	r2, [r7, #12]
 8000bc2:	4013      	ands	r3, r2
 8000bc4:	60fb      	str	r3, [r7, #12]
        SET_BIT(temp, (GPIO_GET_INDEX(GPIOx)) << (4u * (position & 0x03u)));
 8000bc6:	687b      	ldr	r3, [r7, #4]
 8000bc8:	4a4b      	ldr	r2, [pc, #300]	; (8000cf8 <HAL_GPIO_Init+0x2a0>)
 8000bca:	4293      	cmp	r3, r2
 8000bcc:	d013      	beq.n	8000bf6 <HAL_GPIO_Init+0x19e>
 8000bce:	687b      	ldr	r3, [r7, #4]
 8000bd0:	4a4a      	ldr	r2, [pc, #296]	; (8000cfc <HAL_GPIO_Init+0x2a4>)
 8000bd2:	4293      	cmp	r3, r2
 8000bd4:	d00d      	beq.n	8000bf2 <HAL_GPIO_Init+0x19a>
 8000bd6:	687b      	ldr	r3, [r7, #4]
 8000bd8:	4a49      	ldr	r2, [pc, #292]	; (8000d00 <HAL_GPIO_Init+0x2a8>)
 8000bda:	4293      	cmp	r3, r2
 8000bdc:	d007      	beq.n	8000bee <HAL_GPIO_Init+0x196>
 8000bde:	687b      	ldr	r3, [r7, #4]
 8000be0:	4a48      	ldr	r2, [pc, #288]	; (8000d04 <HAL_GPIO_Init+0x2ac>)
 8000be2:	4293      	cmp	r3, r2
 8000be4:	d101      	bne.n	8000bea <HAL_GPIO_Init+0x192>
 8000be6:	2303      	movs	r3, #3
 8000be8:	e006      	b.n	8000bf8 <HAL_GPIO_Init+0x1a0>
 8000bea:	2304      	movs	r3, #4
 8000bec:	e004      	b.n	8000bf8 <HAL_GPIO_Init+0x1a0>
 8000bee:	2302      	movs	r3, #2
 8000bf0:	e002      	b.n	8000bf8 <HAL_GPIO_Init+0x1a0>
 8000bf2:	2301      	movs	r3, #1
 8000bf4:	e000      	b.n	8000bf8 <HAL_GPIO_Init+0x1a0>
 8000bf6:	2300      	movs	r3, #0
 8000bf8:	6a7a      	ldr	r2, [r7, #36]	; 0x24
 8000bfa:	f002 0203 	and.w	r2, r2, #3
 8000bfe:	0092      	lsls	r2, r2, #2
 8000c00:	4093      	lsls	r3, r2
 8000c02:	68fa      	ldr	r2, [r7, #12]
 8000c04:	4313      	orrs	r3, r2
 8000c06:	60fb      	str	r3, [r7, #12]
        AFIO->EXTICR[position >> 2u] = temp;
 8000c08:	493a      	ldr	r1, [pc, #232]	; (8000cf4 <HAL_GPIO_Init+0x29c>)
 8000c0a:	6a7b      	ldr	r3, [r7, #36]	; 0x24
 8000c0c:	089b      	lsrs	r3, r3, #2
 8000c0e:	3302      	adds	r3, #2
 8000c10:	68fa      	ldr	r2, [r7, #12]
 8000c12:	f841 2023 	str.w	r2, [r1, r3, lsl #2]


        /* Configure the interrupt mask */
        if ((GPIO_Init->Mode & GPIO_MODE_IT) == GPIO_MODE_IT)
 8000c16:	683b      	ldr	r3, [r7, #0]
 8000c18:	685b      	ldr	r3, [r3, #4]
 8000c1a:	f403 3380 	and.w	r3, r3, #65536	; 0x10000
 8000c1e:	2b00      	cmp	r3, #0
 8000c20:	d006      	beq.n	8000c30 <HAL_GPIO_Init+0x1d8>
        {
          SET_BIT(EXTI->IMR, iocurrent);
 8000c22:	4b39      	ldr	r3, [pc, #228]	; (8000d08 <HAL_GPIO_Init+0x2b0>)
 8000c24:	681a      	ldr	r2, [r3, #0]
 8000c26:	4938      	ldr	r1, [pc, #224]	; (8000d08 <HAL_GPIO_Init+0x2b0>)
 8000c28:	69bb      	ldr	r3, [r7, #24]
 8000c2a:	4313      	orrs	r3, r2
 8000c2c:	600b      	str	r3, [r1, #0]
 8000c2e:	e006      	b.n	8000c3e <HAL_GPIO_Init+0x1e6>
        }
        else
        {
          CLEAR_BIT(EXTI->IMR, iocurrent);
 8000c30:	4b35      	ldr	r3, [pc, #212]	; (8000d08 <HAL_GPIO_Init+0x2b0>)
 8000c32:	681a      	ldr	r2, [r3, #0]
 8000c34:	69bb      	ldr	r3, [r7, #24]
 8000c36:	43db      	mvns	r3, r3
 8000c38:	4933      	ldr	r1, [pc, #204]	; (8000d08 <HAL_GPIO_Init+0x2b0>)
 8000c3a:	4013      	ands	r3, r2
 8000c3c:	600b      	str	r3, [r1, #0]
        }

        /* Configure the event mask */
        if ((GPIO_Init->Mode & GPIO_MODE_EVT) == GPIO_MODE_EVT)
 8000c3e:	683b      	ldr	r3, [r7, #0]
 8000c40:	685b      	ldr	r3, [r3, #4]
 8000c42:	f403 3300 	and.w	r3, r3, #131072	; 0x20000
 8000c46:	2b00      	cmp	r3, #0
 8000c48:	d006      	beq.n	8000c58 <HAL_GPIO_Init+0x200>
        {
          SET_BIT(EXTI->EMR, iocurrent);
 8000c4a:	4b2f      	ldr	r3, [pc, #188]	; (8000d08 <HAL_GPIO_Init+0x2b0>)
 8000c4c:	685a      	ldr	r2, [r3, #4]
 8000c4e:	492e      	ldr	r1, [pc, #184]	; (8000d08 <HAL_GPIO_Init+0x2b0>)
 8000c50:	69bb      	ldr	r3, [r7, #24]
 8000c52:	4313      	orrs	r3, r2
 8000c54:	604b      	str	r3, [r1, #4]
 8000c56:	e006      	b.n	8000c66 <HAL_GPIO_Init+0x20e>
        }
        else
        {
          CLEAR_BIT(EXTI->EMR, iocurrent);
 8000c58:	4b2b      	ldr	r3, [pc, #172]	; (8000d08 <HAL_GPIO_Init+0x2b0>)
 8000c5a:	685a      	ldr	r2, [r3, #4]
 8000c5c:	69bb      	ldr	r3, [r7, #24]
 8000c5e:	43db      	mvns	r3, r3
 8000c60:	4929      	ldr	r1, [pc, #164]	; (8000d08 <HAL_GPIO_Init+0x2b0>)
 8000c62:	4013      	ands	r3, r2
 8000c64:	604b      	str	r3, [r1, #4]
        }

        /* Enable or disable the rising trigger */
        if ((GPIO_Init->Mode & RISING_EDGE) == RISING_EDGE)
 8000c66:	683b      	ldr	r3, [r7, #0]
 8000c68:	685b      	ldr	r3, [r3, #4]
 8000c6a:	f403 1380 	and.w	r3, r3, #1048576	; 0x100000
 8000c6e:	2b00      	cmp	r3, #0
 8000c70:	d006      	beq.n	8000c80 <HAL_GPIO_Init+0x228>
        {
          SET_BIT(EXTI->RTSR, iocurrent);
 8000c72:	4b25      	ldr	r3, [pc, #148]	; (8000d08 <HAL_GPIO_Init+0x2b0>)
 8000c74:	689a      	ldr	r2, [r3, #8]
 8000c76:	4924      	ldr	r1, [pc, #144]	; (8000d08 <HAL_GPIO_Init+0x2b0>)
 8000c78:	69bb      	ldr	r3, [r7, #24]
 8000c7a:	4313      	orrs	r3, r2
 8000c7c:	608b      	str	r3, [r1, #8]
 8000c7e:	e006      	b.n	8000c8e <HAL_GPIO_Init+0x236>
        }
        else
        {
          CLEAR_BIT(EXTI->RTSR, iocurrent);
 8000c80:	4b21      	ldr	r3, [pc, #132]	; (8000d08 <HAL_GPIO_Init+0x2b0>)
 8000c82:	689a      	ldr	r2, [r3, #8]
 8000c84:	69bb      	ldr	r3, [r7, #24]
 8000c86:	43db      	mvns	r3, r3
 8000c88:	491f      	ldr	r1, [pc, #124]	; (8000d08 <HAL_GPIO_Init+0x2b0>)
 8000c8a:	4013      	ands	r3, r2
 8000c8c:	608b      	str	r3, [r1, #8]
        }

        /* Enable or disable the falling trigger */
        if ((GPIO_Init->Mode & FALLING_EDGE) == FALLING_EDGE)
 8000c8e:	683b      	ldr	r3, [r7, #0]
 8000c90:	685b      	ldr	r3, [r3, #4]
 8000c92:	f403 1300 	and.w	r3, r3, #2097152	; 0x200000
 8000c96:	2b00      	cmp	r3, #0
 8000c98:	d006      	beq.n	8000ca8 <HAL_GPIO_Init+0x250>
        {
          SET_BIT(EXTI->FTSR, iocurrent);
 8000c9a:	4b1b      	ldr	r3, [pc, #108]	; (8000d08 <HAL_GPIO_Init+0x2b0>)
 8000c9c:	68da      	ldr	r2, [r3, #12]
 8000c9e:	491a      	ldr	r1, [pc, #104]	; (8000d08 <HAL_GPIO_Init+0x2b0>)
 8000ca0:	69bb      	ldr	r3, [r7, #24]
 8000ca2:	4313      	orrs	r3, r2
 8000ca4:	60cb      	str	r3, [r1, #12]
 8000ca6:	e006      	b.n	8000cb6 <HAL_GPIO_Init+0x25e>
        }
        else
        {
          CLEAR_BIT(EXTI->FTSR, iocurrent);
 8000ca8:	4b17      	ldr	r3, [pc, #92]	; (8000d08 <HAL_GPIO_Init+0x2b0>)
 8000caa:	68da      	ldr	r2, [r3, #12]
 8000cac:	69bb      	ldr	r3, [r7, #24]
 8000cae:	43db      	mvns	r3, r3
 8000cb0:	4915      	ldr	r1, [pc, #84]	; (8000d08 <HAL_GPIO_Init+0x2b0>)
 8000cb2:	4013      	ands	r3, r2
 8000cb4:	60cb      	str	r3, [r1, #12]
        }
      }
    }

	position++;
 8000cb6:	6a7b      	ldr	r3, [r7, #36]	; 0x24
 8000cb8:	3301      	adds	r3, #1
 8000cba:	627b      	str	r3, [r7, #36]	; 0x24
  while (((GPIO_Init->Pin) >> position) != 0x00u)
 8000cbc:	683b      	ldr	r3, [r7, #0]
 8000cbe:	681a      	ldr	r2, [r3, #0]
 8000cc0:	6a7b      	ldr	r3, [r7, #36]	; 0x24
 8000cc2:	fa22 f303 	lsr.w	r3, r2, r3
 8000cc6:	2b00      	cmp	r3, #0
 8000cc8:	f47f aed0 	bne.w	8000a6c <HAL_GPIO_Init+0x14>
  }
}
 8000ccc:	bf00      	nop
 8000cce:	372c      	adds	r7, #44	; 0x2c
 8000cd0:	46bd      	mov	sp, r7
 8000cd2:	bc80      	pop	{r7}
 8000cd4:	4770      	bx	lr
 8000cd6:	bf00      	nop
 8000cd8:	10210000 	.word	0x10210000
 8000cdc:	10110000 	.word	0x10110000
 8000ce0:	10120000 	.word	0x10120000
 8000ce4:	10310000 	.word	0x10310000
 8000ce8:	10320000 	.word	0x10320000
 8000cec:	10220000 	.word	0x10220000
 8000cf0:	40021000 	.word	0x40021000
 8000cf4:	40010000 	.word	0x40010000
 8000cf8:	40010800 	.word	0x40010800
 8000cfc:	40010c00 	.word	0x40010c00
 8000d00:	40011000 	.word	0x40011000
 8000d04:	40011400 	.word	0x40011400
 8000d08:	40010400 	.word	0x40010400

08000d0c <HAL_GPIO_ReadPin>:
  * @param  GPIO_Pin: specifies the port bit to read.
  *         This parameter can be GPIO_PIN_x where x can be (0..15).
  * @retval The input port pin value.
  */
GPIO_PinState HAL_GPIO_ReadPin(GPIO_TypeDef *GPIOx, uint16_t GPIO_Pin)
{
 8000d0c:	b480      	push	{r7}
 8000d0e:	b085      	sub	sp, #20
 8000d10:	af00      	add	r7, sp, #0
 8000d12:	6078      	str	r0, [r7, #4]
 8000d14:	460b      	mov	r3, r1
 8000d16:	807b      	strh	r3, [r7, #2]
  GPIO_PinState bitstatus;

  /* Check the parameters */
  assert_param(IS_GPIO_PIN(GPIO_Pin));

  if ((GPIOx->IDR & GPIO_Pin) != (uint32_t)GPIO_PIN_RESET)
 8000d18:	687b      	ldr	r3, [r7, #4]
 8000d1a:	689a      	ldr	r2, [r3, #8]
 8000d1c:	887b      	ldrh	r3, [r7, #2]
 8000d1e:	4013      	ands	r3, r2
 8000d20:	2b00      	cmp	r3, #0
 8000d22:	d002      	beq.n	8000d2a <HAL_GPIO_ReadPin+0x1e>
  {
    bitstatus = GPIO_PIN_SET;
 8000d24:	2301      	movs	r3, #1
 8000d26:	73fb      	strb	r3, [r7, #15]
 8000d28:	e001      	b.n	8000d2e <HAL_GPIO_ReadPin+0x22>
  }
  else
  {
    bitstatus = GPIO_PIN_RESET;
 8000d2a:	2300      	movs	r3, #0
 8000d2c:	73fb      	strb	r3, [r7, #15]
  }
  return bitstatus;
 8000d2e:	7bfb      	ldrb	r3, [r7, #15]
}
 8000d30:	4618      	mov	r0, r3
 8000d32:	3714      	adds	r7, #20
 8000d34:	46bd      	mov	sp, r7
 8000d36:	bc80      	pop	{r7}
 8000d38:	4770      	bx	lr

08000d3a <HAL_GPIO_WritePin>:
  *            @arg GPIO_PIN_RESET: to clear the port pin
  *            @arg GPIO_PIN_SET: to set the port pin
  * @retval None
  */
void HAL_GPIO_WritePin(GPIO_TypeDef *GPIOx, uint16_t GPIO_Pin, GPIO_PinState PinState)
{
 8000d3a:	b480      	push	{r7}
 8000d3c:	b083      	sub	sp, #12
 8000d3e:	af00      	add	r7, sp, #0
 8000d40:	6078      	str	r0, [r7, #4]
 8000d42:	460b      	mov	r3, r1
 8000d44:	807b      	strh	r3, [r7, #2]
 8000d46:	4613      	mov	r3, r2
 8000d48:	707b      	strb	r3, [r7, #1]
  /* Check the parameters */
  assert_param(IS_GPIO_PIN(GPIO_Pin));
  assert_param(IS_GPIO_PIN_ACTION(PinState));

  if (PinState != GPIO_PIN_RESET)
 8000d4a:	787b      	ldrb	r3, [r7, #1]
 8000d4c:	2b00      	cmp	r3, #0
 8000d4e:	d003      	beq.n	8000d58 <HAL_GPIO_WritePin+0x1e>
  {
    GPIOx->BSRR = GPIO_Pin;
 8000d50:	887a      	ldrh	r2, [r7, #2]
 8000d52:	687b      	ldr	r3, [r7, #4]
 8000d54:	611a      	str	r2, [r3, #16]
  }
  else
  {
    GPIOx->BSRR = (uint32_t)GPIO_Pin << 16u;
  }
}
 8000d56:	e003      	b.n	8000d60 <HAL_GPIO_WritePin+0x26>
    GPIOx->BSRR = (uint32_t)GPIO_Pin << 16u;
 8000d58:	887b      	ldrh	r3, [r7, #2]
 8000d5a:	041a      	lsls	r2, r3, #16
 8000d5c:	687b      	ldr	r3, [r7, #4]
 8000d5e:	611a      	str	r2, [r3, #16]
}
 8000d60:	bf00      	nop
 8000d62:	370c      	adds	r7, #12
 8000d64:	46bd      	mov	sp, r7
 8000d66:	bc80      	pop	{r7}
 8000d68:	4770      	bx	lr
	...

08000d6c <HAL_GPIO_EXTI_IRQHandler>:
  * @brief  This function handles EXTI interrupt request.
  * @param  GPIO_Pin: Specifies the pins connected EXTI line
  * @retval None
  */
void HAL_GPIO_EXTI_IRQHandler(uint16_t GPIO_Pin)
{
 8000d6c:	b580      	push	{r7, lr}
 8000d6e:	b082      	sub	sp, #8
 8000d70:	af00      	add	r7, sp, #0
 8000d72:	4603      	mov	r3, r0
 8000d74:	80fb      	strh	r3, [r7, #6]
  /* EXTI line interrupt detected */
  if (__HAL_GPIO_EXTI_GET_IT(GPIO_Pin) != 0x00u)
 8000d76:	4b08      	ldr	r3, [pc, #32]	; (8000d98 <HAL_GPIO_EXTI_IRQHandler+0x2c>)
 8000d78:	695a      	ldr	r2, [r3, #20]
 8000d7a:	88fb      	ldrh	r3, [r7, #6]
 8000d7c:	4013      	ands	r3, r2
 8000d7e:	2b00      	cmp	r3, #0
 8000d80:	d006      	beq.n	8000d90 <HAL_GPIO_EXTI_IRQHandler+0x24>
  {
    __HAL_GPIO_EXTI_CLEAR_IT(GPIO_Pin);
 8000d82:	4a05      	ldr	r2, [pc, #20]	; (8000d98 <HAL_GPIO_EXTI_IRQHandler+0x2c>)
 8000d84:	88fb      	ldrh	r3, [r7, #6]
 8000d86:	6153      	str	r3, [r2, #20]
    HAL_GPIO_EXTI_Callback(GPIO_Pin);
 8000d88:	88fb      	ldrh	r3, [r7, #6]
 8000d8a:	4618      	mov	r0, r3
 8000d8c:	f000 f806 	bl	8000d9c <HAL_GPIO_EXTI_Callback>
  }
}
 8000d90:	bf00      	nop
 8000d92:	3708      	adds	r7, #8
 8000d94:	46bd      	mov	sp, r7
 8000d96:	bd80      	pop	{r7, pc}
 8000d98:	40010400 	.word	0x40010400

08000d9c <HAL_GPIO_EXTI_Callback>:
  * @brief  EXTI line detection callbacks.
  * @param  GPIO_Pin: Specifies the pins connected EXTI line
  * @retval None
  */
__weak void HAL_GPIO_EXTI_Callback(uint16_t GPIO_Pin)
{
 8000d9c:	b480      	push	{r7}
 8000d9e:	b083      	sub	sp, #12
 8000da0:	af00      	add	r7, sp, #0
 8000da2:	4603      	mov	r3, r0
 8000da4:	80fb      	strh	r3, [r7, #6]
  /* Prevent unused argument(s) compilation warning */
  UNUSED(GPIO_Pin);
  /* NOTE: This function Should not be modified, when the callback is needed,
           the HAL_GPIO_EXTI_Callback could be implemented in the user file
   */
}
 8000da6:	bf00      	nop
 8000da8:	370c      	adds	r7, #12
 8000daa:	46bd      	mov	sp, r7
 8000dac:	bc80      	pop	{r7}
 8000dae:	4770      	bx	lr

08000db0 <HAL_RCC_OscConfig>:
  *         supported by this macro. User should request a transition to HSE Off
  *         first and then HSE On or HSE Bypass.
  * @retval HAL status
  */
HAL_StatusTypeDef HAL_RCC_OscConfig(RCC_OscInitTypeDef  *RCC_OscInitStruct)
{
 8000db0:	b580      	push	{r7, lr}
 8000db2:	b086      	sub	sp, #24
 8000db4:	af00      	add	r7, sp, #0
 8000db6:	6078      	str	r0, [r7, #4]
  uint32_t tickstart;
  uint32_t pll_config;

  /* Check Null pointer */
  if (RCC_OscInitStruct == NULL)
 8000db8:	687b      	ldr	r3, [r7, #4]
 8000dba:	2b00      	cmp	r3, #0
 8000dbc:	d101      	bne.n	8000dc2 <HAL_RCC_OscConfig+0x12>
  {
    return HAL_ERROR;
 8000dbe:	2301      	movs	r3, #1
 8000dc0:	e26c      	b.n	800129c <HAL_RCC_OscConfig+0x4ec>

  /* Check the parameters */
  assert_param(IS_RCC_OSCILLATORTYPE(RCC_OscInitStruct->OscillatorType));

  /*------------------------------- HSE Configuration ------------------------*/
  if (((RCC_OscInitStruct->OscillatorType) & RCC_OSCILLATORTYPE_HSE) == RCC_OSCILLATORTYPE_HSE)
 8000dc2:	687b      	ldr	r3, [r7, #4]
 8000dc4:	681b      	ldr	r3, [r3, #0]
 8000dc6:	f003 0301 	and.w	r3, r3, #1
 8000dca:	2b00      	cmp	r3, #0
 8000dcc:	f000 8087 	beq.w	8000ede <HAL_RCC_OscConfig+0x12e>
  {
    /* Check the parameters */
    assert_param(IS_RCC_HSE(RCC_OscInitStruct->HSEState));

    /* When the HSE is used as system clock or clock source for PLL in these cases it is not allowed to be disabled */
    if ((__HAL_RCC_GET_SYSCLK_SOURCE() == RCC_SYSCLKSOURCE_STATUS_HSE)
 8000dd0:	4b92      	ldr	r3, [pc, #584]	; (800101c <HAL_RCC_OscConfig+0x26c>)
 8000dd2:	685b      	ldr	r3, [r3, #4]
 8000dd4:	f003 030c 	and.w	r3, r3, #12
 8000dd8:	2b04      	cmp	r3, #4
 8000dda:	d00c      	beq.n	8000df6 <HAL_RCC_OscConfig+0x46>
        || ((__HAL_RCC_GET_SYSCLK_SOURCE() == RCC_SYSCLKSOURCE_STATUS_PLLCLK) && (__HAL_RCC_GET_PLL_OSCSOURCE() == RCC_PLLSOURCE_HSE)))
 8000ddc:	4b8f      	ldr	r3, [pc, #572]	; (800101c <HAL_RCC_OscConfig+0x26c>)
 8000dde:	685b      	ldr	r3, [r3, #4]
 8000de0:	f003 030c 	and.w	r3, r3, #12
 8000de4:	2b08      	cmp	r3, #8
 8000de6:	d112      	bne.n	8000e0e <HAL_RCC_OscConfig+0x5e>
 8000de8:	4b8c      	ldr	r3, [pc, #560]	; (800101c <HAL_RCC_OscConfig+0x26c>)
 8000dea:	685b      	ldr	r3, [r3, #4]
 8000dec:	f403 3380 	and.w	r3, r3, #65536	; 0x10000
 8000df0:	f5b3 3f80 	cmp.w	r3, #65536	; 0x10000
 8000df4:	d10b      	bne.n	8000e0e <HAL_RCC_OscConfig+0x5e>
    {
      if ((__HAL_RCC_GET_FLAG(RCC_FLAG_HSERDY) != RESET) && (RCC_OscInitStruct->HSEState == RCC_HSE_OFF))
 8000df6:	4b89      	ldr	r3, [pc, #548]	; (800101c <HAL_RCC_OscConfig+0x26c>)
 8000df8:	681b      	ldr	r3, [r3, #0]
 8000dfa:	f403 3300 	and.w	r3, r3, #131072	; 0x20000
 8000dfe:	2b00      	cmp	r3, #0
 8000e00:	d06c      	beq.n	8000edc <HAL_RCC_OscConfig+0x12c>
 8000e02:	687b      	ldr	r3, [r7, #4]
 8000e04:	685b      	ldr	r3, [r3, #4]
 8000e06:	2b00      	cmp	r3, #0
 8000e08:	d168      	bne.n	8000edc <HAL_RCC_OscConfig+0x12c>
      {
        return HAL_ERROR;
 8000e0a:	2301      	movs	r3, #1
 8000e0c:	e246      	b.n	800129c <HAL_RCC_OscConfig+0x4ec>
      }
    }
    else
    {
      /* Set the new HSE configuration ---------------------------------------*/
      __HAL_RCC_HSE_CONFIG(RCC_OscInitStruct->HSEState);
 8000e0e:	687b      	ldr	r3, [r7, #4]
 8000e10:	685b      	ldr	r3, [r3, #4]
 8000e12:	f5b3 3f80 	cmp.w	r3, #65536	; 0x10000
 8000e16:	d106      	bne.n	8000e26 <HAL_RCC_OscConfig+0x76>
 8000e18:	4b80      	ldr	r3, [pc, #512]	; (800101c <HAL_RCC_OscConfig+0x26c>)
 8000e1a:	681b      	ldr	r3, [r3, #0]
 8000e1c:	4a7f      	ldr	r2, [pc, #508]	; (800101c <HAL_RCC_OscConfig+0x26c>)
 8000e1e:	f443 3380 	orr.w	r3, r3, #65536	; 0x10000
 8000e22:	6013      	str	r3, [r2, #0]
 8000e24:	e02e      	b.n	8000e84 <HAL_RCC_OscConfig+0xd4>
 8000e26:	687b      	ldr	r3, [r7, #4]
 8000e28:	685b      	ldr	r3, [r3, #4]
 8000e2a:	2b00      	cmp	r3, #0
 8000e2c:	d10c      	bne.n	8000e48 <HAL_RCC_OscConfig+0x98>
 8000e2e:	4b7b      	ldr	r3, [pc, #492]	; (800101c <HAL_RCC_OscConfig+0x26c>)
 8000e30:	681b      	ldr	r3, [r3, #0]
 8000e32:	4a7a      	ldr	r2, [pc, #488]	; (800101c <HAL_RCC_OscConfig+0x26c>)
 8000e34:	f423 3380 	bic.w	r3, r3, #65536	; 0x10000
 8000e38:	6013      	str	r3, [r2, #0]
 8000e3a:	4b78      	ldr	r3, [pc, #480]	; (800101c <HAL_RCC_OscConfig+0x26c>)
 8000e3c:	681b      	ldr	r3, [r3, #0]
 8000e3e:	4a77      	ldr	r2, [pc, #476]	; (800101c <HAL_RCC_OscConfig+0x26c>)
 8000e40:	f423 2380 	bic.w	r3, r3, #262144	; 0x40000
 8000e44:	6013      	str	r3, [r2, #0]
 8000e46:	e01d      	b.n	8000e84 <HAL_RCC_OscConfig+0xd4>
 8000e48:	687b      	ldr	r3, [r7, #4]
 8000e4a:	685b      	ldr	r3, [r3, #4]
 8000e4c:	f5b3 2fa0 	cmp.w	r3, #327680	; 0x50000
 8000e50:	d10c      	bne.n	8000e6c <HAL_RCC_OscConfig+0xbc>
 8000e52:	4b72      	ldr	r3, [pc, #456]	; (800101c <HAL_RCC_OscConfig+0x26c>)
 8000e54:	681b      	ldr	r3, [r3, #0]
 8000e56:	4a71      	ldr	r2, [pc, #452]	; (800101c <HAL_RCC_OscConfig+0x26c>)
 8000e58:	f443 2380 	orr.w	r3, r3, #262144	; 0x40000
 8000e5c:	6013      	str	r3, [r2, #0]
 8000e5e:	4b6f      	ldr	r3, [pc, #444]	; (800101c <HAL_RCC_OscConfig+0x26c>)
 8000e60:	681b      	ldr	r3, [r3, #0]
 8000e62:	4a6e      	ldr	r2, [pc, #440]	; (800101c <HAL_RCC_OscConfig+0x26c>)
 8000e64:	f443 3380 	orr.w	r3, r3, #65536	; 0x10000
 8000e68:	6013      	str	r3, [r2, #0]
 8000e6a:	e00b      	b.n	8000e84 <HAL_RCC_OscConfig+0xd4>
 8000e6c:	4b6b      	ldr	r3, [pc, #428]	; (800101c <HAL_RCC_OscConfig+0x26c>)
 8000e6e:	681b      	ldr	r3, [r3, #0]
 8000e70:	4a6a      	ldr	r2, [pc, #424]	; (800101c <HAL_RCC_OscConfig+0x26c>)
 8000e72:	f423 3380 	bic.w	r3, r3, #65536	; 0x10000
 8000e76:	6013      	str	r3, [r2, #0]
 8000e78:	4b68      	ldr	r3, [pc, #416]	; (800101c <HAL_RCC_OscConfig+0x26c>)
 8000e7a:	681b      	ldr	r3, [r3, #0]
 8000e7c:	4a67      	ldr	r2, [pc, #412]	; (800101c <HAL_RCC_OscConfig+0x26c>)
 8000e7e:	f423 2380 	bic.w	r3, r3, #262144	; 0x40000
 8000e82:	6013      	str	r3, [r2, #0]


      /* Check the HSE State */
      if (RCC_OscInitStruct->HSEState != RCC_HSE_OFF)
 8000e84:	687b      	ldr	r3, [r7, #4]
 8000e86:	685b      	ldr	r3, [r3, #4]
 8000e88:	2b00      	cmp	r3, #0
 8000e8a:	d013      	beq.n	8000eb4 <HAL_RCC_OscConfig+0x104>
      {
        /* Get Start Tick */
        tickstart = HAL_GetTick();
 8000e8c:	f7ff fcaa 	bl	80007e4 <HAL_GetTick>
 8000e90:	6138      	str	r0, [r7, #16]

        /* Wait till HSE is ready */
        while (__HAL_RCC_GET_FLAG(RCC_FLAG_HSERDY) == RESET)
 8000e92:	e008      	b.n	8000ea6 <HAL_RCC_OscConfig+0xf6>
        {
          if ((HAL_GetTick() - tickstart) > HSE_TIMEOUT_VALUE)
 8000e94:	f7ff fca6 	bl	80007e4 <HAL_GetTick>
 8000e98:	4602      	mov	r2, r0
 8000e9a:	693b      	ldr	r3, [r7, #16]
 8000e9c:	1ad3      	subs	r3, r2, r3
 8000e9e:	2b64      	cmp	r3, #100	; 0x64
 8000ea0:	d901      	bls.n	8000ea6 <HAL_RCC_OscConfig+0xf6>
          {
            return HAL_TIMEOUT;
 8000ea2:	2303      	movs	r3, #3
 8000ea4:	e1fa      	b.n	800129c <HAL_RCC_OscConfig+0x4ec>
        while (__HAL_RCC_GET_FLAG(RCC_FLAG_HSERDY) == RESET)
 8000ea6:	4b5d      	ldr	r3, [pc, #372]	; (800101c <HAL_RCC_OscConfig+0x26c>)
 8000ea8:	681b      	ldr	r3, [r3, #0]
 8000eaa:	f403 3300 	and.w	r3, r3, #131072	; 0x20000
 8000eae:	2b00      	cmp	r3, #0
 8000eb0:	d0f0      	beq.n	8000e94 <HAL_RCC_OscConfig+0xe4>
 8000eb2:	e014      	b.n	8000ede <HAL_RCC_OscConfig+0x12e>
        }
      }
      else
      {
        /* Get Start Tick */
        tickstart = HAL_GetTick();
 8000eb4:	f7ff fc96 	bl	80007e4 <HAL_GetTick>
 8000eb8:	6138      	str	r0, [r7, #16]

        /* Wait till HSE is disabled */
        while (__HAL_RCC_GET_FLAG(RCC_FLAG_HSERDY) != RESET)
 8000eba:	e008      	b.n	8000ece <HAL_RCC_OscConfig+0x11e>
        {
          if ((HAL_GetTick() - tickstart) > HSE_TIMEOUT_VALUE)
 8000ebc:	f7ff fc92 	bl	80007e4 <HAL_GetTick>
 8000ec0:	4602      	mov	r2, r0
 8000ec2:	693b      	ldr	r3, [r7, #16]
 8000ec4:	1ad3      	subs	r3, r2, r3
 8000ec6:	2b64      	cmp	r3, #100	; 0x64
 8000ec8:	d901      	bls.n	8000ece <HAL_RCC_OscConfig+0x11e>
          {
            return HAL_TIMEOUT;
 8000eca:	2303      	movs	r3, #3
 8000ecc:	e1e6      	b.n	800129c <HAL_RCC_OscConfig+0x4ec>
        while (__HAL_RCC_GET_FLAG(RCC_FLAG_HSERDY) != RESET)
 8000ece:	4b53      	ldr	r3, [pc, #332]	; (800101c <HAL_RCC_OscConfig+0x26c>)
 8000ed0:	681b      	ldr	r3, [r3, #0]
 8000ed2:	f403 3300 	and.w	r3, r3, #131072	; 0x20000
 8000ed6:	2b00      	cmp	r3, #0
 8000ed8:	d1f0      	bne.n	8000ebc <HAL_RCC_OscConfig+0x10c>
 8000eda:	e000      	b.n	8000ede <HAL_RCC_OscConfig+0x12e>
      if ((__HAL_RCC_GET_FLAG(RCC_FLAG_HSERDY) != RESET) && (RCC_OscInitStruct->HSEState == RCC_HSE_OFF))
 8000edc:	bf00      	nop
        }
      }
    }
  }
  /*----------------------------- HSI Configuration --------------------------*/
  if (((RCC_OscInitStruct->OscillatorType) & RCC_OSCILLATORTYPE_HSI) == RCC_OSCILLATORTYPE_HSI)
 8000ede:	687b      	ldr	r3, [r7, #4]
 8000ee0:	681b      	ldr	r3, [r3, #0]
 8000ee2:	f003 0302 	and.w	r3, r3, #2
 8000ee6:	2b00      	cmp	r3, #0
 8000ee8:	d063      	beq.n	8000fb2 <HAL_RCC_OscConfig+0x202>
    /* Check the parameters */
    assert_param(IS_RCC_HSI(RCC_OscInitStruct->HSIState));
    assert_param(IS_RCC_CALIBRATION_VALUE(RCC_OscInitStruct->HSICalibrationValue));

    /* Check if HSI is used as system clock or as PLL source when PLL is selected as system clock */
    if ((__HAL_RCC_GET_SYSCLK_SOURCE() == RCC_SYSCLKSOURCE_STATUS_HSI)
 8000eea:	4b4c      	ldr	r3, [pc, #304]	; (800101c <HAL_RCC_OscConfig+0x26c>)
 8000eec:	685b      	ldr	r3, [r3, #4]
 8000eee:	f003 030c 	and.w	r3, r3, #12
 8000ef2:	2b00      	cmp	r3, #0
 8000ef4:	d00b      	beq.n	8000f0e <HAL_RCC_OscConfig+0x15e>
        || ((__HAL_RCC_GET_SYSCLK_SOURCE() == RCC_SYSCLKSOURCE_STATUS_PLLCLK) && (__HAL_RCC_GET_PLL_OSCSOURCE() == RCC_PLLSOURCE_HSI_DIV2)))
 8000ef6:	4b49      	ldr	r3, [pc, #292]	; (800101c <HAL_RCC_OscConfig+0x26c>)
 8000ef8:	685b      	ldr	r3, [r3, #4]
 8000efa:	f003 030c 	and.w	r3, r3, #12
 8000efe:	2b08      	cmp	r3, #8
 8000f00:	d11c      	bne.n	8000f3c <HAL_RCC_OscConfig+0x18c>
 8000f02:	4b46      	ldr	r3, [pc, #280]	; (800101c <HAL_RCC_OscConfig+0x26c>)
 8000f04:	685b      	ldr	r3, [r3, #4]
 8000f06:	f403 3380 	and.w	r3, r3, #65536	; 0x10000
 8000f0a:	2b00      	cmp	r3, #0
 8000f0c:	d116      	bne.n	8000f3c <HAL_RCC_OscConfig+0x18c>
    {
      /* When HSI is used as system clock it will not disabled */
      if ((__HAL_RCC_GET_FLAG(RCC_FLAG_HSIRDY) != RESET) && (RCC_OscInitStruct->HSIState != RCC_HSI_ON))
 8000f0e:	4b43      	ldr	r3, [pc, #268]	; (800101c <HAL_RCC_OscConfig+0x26c>)
 8000f10:	681b      	ldr	r3, [r3, #0]
 8000f12:	f003 0302 	and.w	r3, r3, #2
 8000f16:	2b00      	cmp	r3, #0
 8000f18:	d005      	beq.n	8000f26 <HAL_RCC_OscConfig+0x176>
 8000f1a:	687b      	ldr	r3, [r7, #4]
 8000f1c:	691b      	ldr	r3, [r3, #16]
 8000f1e:	2b01      	cmp	r3, #1
 8000f20:	d001      	beq.n	8000f26 <HAL_RCC_OscConfig+0x176>
      {
        return HAL_ERROR;
 8000f22:	2301      	movs	r3, #1
 8000f24:	e1ba      	b.n	800129c <HAL_RCC_OscConfig+0x4ec>
      }
      /* Otherwise, just the calibration is allowed */
      else
      {
        /* Adjusts the Internal High Speed oscillator (HSI) calibration value.*/
        __HAL_RCC_HSI_CALIBRATIONVALUE_ADJUST(RCC_OscInitStruct->HSICalibrationValue);
 8000f26:	4b3d      	ldr	r3, [pc, #244]	; (800101c <HAL_RCC_OscConfig+0x26c>)
 8000f28:	681b      	ldr	r3, [r3, #0]
 8000f2a:	f023 02f8 	bic.w	r2, r3, #248	; 0xf8
 8000f2e:	687b      	ldr	r3, [r7, #4]
 8000f30:	695b      	ldr	r3, [r3, #20]
 8000f32:	00db      	lsls	r3, r3, #3
 8000f34:	4939      	ldr	r1, [pc, #228]	; (800101c <HAL_RCC_OscConfig+0x26c>)
 8000f36:	4313      	orrs	r3, r2
 8000f38:	600b      	str	r3, [r1, #0]
      if ((__HAL_RCC_GET_FLAG(RCC_FLAG_HSIRDY) != RESET) && (RCC_OscInitStruct->HSIState != RCC_HSI_ON))
 8000f3a:	e03a      	b.n	8000fb2 <HAL_RCC_OscConfig+0x202>
      }
    }
    else
    {
      /* Check the HSI State */
      if (RCC_OscInitStruct->HSIState != RCC_HSI_OFF)
 8000f3c:	687b      	ldr	r3, [r7, #4]
 8000f3e:	691b      	ldr	r3, [r3, #16]
 8000f40:	2b00      	cmp	r3, #0
 8000f42:	d020      	beq.n	8000f86 <HAL_RCC_OscConfig+0x1d6>
      {
        /* Enable the Internal High Speed oscillator (HSI). */
        __HAL_RCC_HSI_ENABLE();
 8000f44:	4b36      	ldr	r3, [pc, #216]	; (8001020 <HAL_RCC_OscConfig+0x270>)
 8000f46:	2201      	movs	r2, #1
 8000f48:	601a      	str	r2, [r3, #0]

        /* Get Start Tick */
        tickstart = HAL_GetTick();
 8000f4a:	f7ff fc4b 	bl	80007e4 <HAL_GetTick>
 8000f4e:	6138      	str	r0, [r7, #16]

        /* Wait till HSI is ready */
        while (__HAL_RCC_GET_FLAG(RCC_FLAG_HSIRDY) == RESET)
 8000f50:	e008      	b.n	8000f64 <HAL_RCC_OscConfig+0x1b4>
        {
          if ((HAL_GetTick() - tickstart) > HSI_TIMEOUT_VALUE)
 8000f52:	f7ff fc47 	bl	80007e4 <HAL_GetTick>
 8000f56:	4602      	mov	r2, r0
 8000f58:	693b      	ldr	r3, [r7, #16]
 8000f5a:	1ad3      	subs	r3, r2, r3
 8000f5c:	2b02      	cmp	r3, #2
 8000f5e:	d901      	bls.n	8000f64 <HAL_RCC_OscConfig+0x1b4>
          {
            return HAL_TIMEOUT;
 8000f60:	2303      	movs	r3, #3
 8000f62:	e19b      	b.n	800129c <HAL_RCC_OscConfig+0x4ec>
        while (__HAL_RCC_GET_FLAG(RCC_FLAG_HSIRDY) == RESET)
 8000f64:	4b2d      	ldr	r3, [pc, #180]	; (800101c <HAL_RCC_OscConfig+0x26c>)
 8000f66:	681b      	ldr	r3, [r3, #0]
 8000f68:	f003 0302 	and.w	r3, r3, #2
 8000f6c:	2b00      	cmp	r3, #0
 8000f6e:	d0f0      	beq.n	8000f52 <HAL_RCC_OscConfig+0x1a2>
          }
        }

        /* Adjusts the Internal High Speed oscillator (HSI) calibration value.*/
        __HAL_RCC_HSI_CALIBRATIONVALUE_ADJUST(RCC_OscInitStruct->HSICalibrationValue);
 8000f70:	4b2a      	ldr	r3, [pc, #168]	; (800101c <HAL_RCC_OscConfig+0x26c>)
 8000f72:	681b      	ldr	r3, [r3, #0]
 8000f74:	f023 02f8 	bic.w	r2, r3, #248	; 0xf8
 8000f78:	687b      	ldr	r3, [r7, #4]
 8000f7a:	695b      	ldr	r3, [r3, #20]
 8000f7c:	00db      	lsls	r3, r3, #3
 8000f7e:	4927      	ldr	r1, [pc, #156]	; (800101c <HAL_RCC_OscConfig+0x26c>)
 8000f80:	4313      	orrs	r3, r2
 8000f82:	600b      	str	r3, [r1, #0]
 8000f84:	e015      	b.n	8000fb2 <HAL_RCC_OscConfig+0x202>
      }
      else
      {
        /* Disable the Internal High Speed oscillator (HSI). */
        __HAL_RCC_HSI_DISABLE();
 8000f86:	4b26      	ldr	r3, [pc, #152]	; (8001020 <HAL_RCC_OscConfig+0x270>)
 8000f88:	2200      	movs	r2, #0
 8000f8a:	601a      	str	r2, [r3, #0]

        /* Get Start Tick */
        tickstart = HAL_GetTick();
 8000f8c:	f7ff fc2a 	bl	80007e4 <HAL_GetTick>
 8000f90:	6138      	str	r0, [r7, #16]

        /* Wait till HSI is disabled */
        while (__HAL_RCC_GET_FLAG(RCC_FLAG_HSIRDY) != RESET)
 8000f92:	e008      	b.n	8000fa6 <HAL_RCC_OscConfig+0x1f6>
        {
          if ((HAL_GetTick() - tickstart) > HSI_TIMEOUT_VALUE)
 8000f94:	f7ff fc26 	bl	80007e4 <HAL_GetTick>
 8000f98:	4602      	mov	r2, r0
 8000f9a:	693b      	ldr	r3, [r7, #16]
 8000f9c:	1ad3      	subs	r3, r2, r3
 8000f9e:	2b02      	cmp	r3, #2
 8000fa0:	d901      	bls.n	8000fa6 <HAL_RCC_OscConfig+0x1f6>
          {
            return HAL_TIMEOUT;
 8000fa2:	2303      	movs	r3, #3
 8000fa4:	e17a      	b.n	800129c <HAL_RCC_OscConfig+0x4ec>
        while (__HAL_RCC_GET_FLAG(RCC_FLAG_HSIRDY) != RESET)
 8000fa6:	4b1d      	ldr	r3, [pc, #116]	; (800101c <HAL_RCC_OscConfig+0x26c>)
 8000fa8:	681b      	ldr	r3, [r3, #0]
 8000faa:	f003 0302 	and.w	r3, r3, #2
 8000fae:	2b00      	cmp	r3, #0
 8000fb0:	d1f0      	bne.n	8000f94 <HAL_RCC_OscConfig+0x1e4>
        }
      }
    }
  }
  /*------------------------------ LSI Configuration -------------------------*/
  if (((RCC_OscInitStruct->OscillatorType) & RCC_OSCILLATORTYPE_LSI) == RCC_OSCILLATORTYPE_LSI)
 8000fb2:	687b      	ldr	r3, [r7, #4]
 8000fb4:	681b      	ldr	r3, [r3, #0]
 8000fb6:	f003 0308 	and.w	r3, r3, #8
 8000fba:	2b00      	cmp	r3, #0
 8000fbc:	d03a      	beq.n	8001034 <HAL_RCC_OscConfig+0x284>
  {
    /* Check the parameters */
    assert_param(IS_RCC_LSI(RCC_OscInitStruct->LSIState));

    /* Check the LSI State */
    if (RCC_OscInitStruct->LSIState != RCC_LSI_OFF)
 8000fbe:	687b      	ldr	r3, [r7, #4]
 8000fc0:	699b      	ldr	r3, [r3, #24]
 8000fc2:	2b00      	cmp	r3, #0
 8000fc4:	d019      	beq.n	8000ffa <HAL_RCC_OscConfig+0x24a>
    {
      /* Enable the Internal Low Speed oscillator (LSI). */
      __HAL_RCC_LSI_ENABLE();
 8000fc6:	4b17      	ldr	r3, [pc, #92]	; (8001024 <HAL_RCC_OscConfig+0x274>)
 8000fc8:	2201      	movs	r2, #1
 8000fca:	601a      	str	r2, [r3, #0]

      /* Get Start Tick */
      tickstart = HAL_GetTick();
 8000fcc:	f7ff fc0a 	bl	80007e4 <HAL_GetTick>
 8000fd0:	6138      	str	r0, [r7, #16]

      /* Wait till LSI is ready */
      while (__HAL_RCC_GET_FLAG(RCC_FLAG_LSIRDY) == RESET)
 8000fd2:	e008      	b.n	8000fe6 <HAL_RCC_OscConfig+0x236>
      {
        if ((HAL_GetTick() - tickstart) > LSI_TIMEOUT_VALUE)
 8000fd4:	f7ff fc06 	bl	80007e4 <HAL_GetTick>
 8000fd8:	4602      	mov	r2, r0
 8000fda:	693b      	ldr	r3, [r7, #16]
 8000fdc:	1ad3      	subs	r3, r2, r3
 8000fde:	2b02      	cmp	r3, #2
 8000fe0:	d901      	bls.n	8000fe6 <HAL_RCC_OscConfig+0x236>
        {
          return HAL_TIMEOUT;
 8000fe2:	2303      	movs	r3, #3
 8000fe4:	e15a      	b.n	800129c <HAL_RCC_OscConfig+0x4ec>
      while (__HAL_RCC_GET_FLAG(RCC_FLAG_LSIRDY) == RESET)
 8000fe6:	4b0d      	ldr	r3, [pc, #52]	; (800101c <HAL_RCC_OscConfig+0x26c>)
 8000fe8:	6a5b      	ldr	r3, [r3, #36]	; 0x24
 8000fea:	f003 0302 	and.w	r3, r3, #2
 8000fee:	2b00      	cmp	r3, #0
 8000ff0:	d0f0      	beq.n	8000fd4 <HAL_RCC_OscConfig+0x224>
        }
      }
      /*  To have a fully stabilized clock in the specified range, a software delay of 1ms
          should be added.*/
      RCC_Delay(1);
 8000ff2:	2001      	movs	r0, #1
 8000ff4:	f000 fada 	bl	80015ac <RCC_Delay>
 8000ff8:	e01c      	b.n	8001034 <HAL_RCC_OscConfig+0x284>
    }
    else
    {
      /* Disable the Internal Low Speed oscillator (LSI). */
      __HAL_RCC_LSI_DISABLE();
 8000ffa:	4b0a      	ldr	r3, [pc, #40]	; (8001024 <HAL_RCC_OscConfig+0x274>)
 8000ffc:	2200      	movs	r2, #0
 8000ffe:	601a      	str	r2, [r3, #0]

      /* Get Start Tick */
      tickstart = HAL_GetTick();
 8001000:	f7ff fbf0 	bl	80007e4 <HAL_GetTick>
 8001004:	6138      	str	r0, [r7, #16]

      /* Wait till LSI is disabled */
      while (__HAL_RCC_GET_FLAG(RCC_FLAG_LSIRDY) != RESET)
 8001006:	e00f      	b.n	8001028 <HAL_RCC_OscConfig+0x278>
      {
        if ((HAL_GetTick() - tickstart) > LSI_TIMEOUT_VALUE)
 8001008:	f7ff fbec 	bl	80007e4 <HAL_GetTick>
 800100c:	4602      	mov	r2, r0
 800100e:	693b      	ldr	r3, [r7, #16]
 8001010:	1ad3      	subs	r3, r2, r3
 8001012:	2b02      	cmp	r3, #2
 8001014:	d908      	bls.n	8001028 <HAL_RCC_OscConfig+0x278>
        {
          return HAL_TIMEOUT;
 8001016:	2303      	movs	r3, #3
 8001018:	e140      	b.n	800129c <HAL_RCC_OscConfig+0x4ec>
 800101a:	bf00      	nop
 800101c:	40021000 	.word	0x40021000
 8001020:	42420000 	.word	0x42420000
 8001024:	42420480 	.word	0x42420480
      while (__HAL_RCC_GET_FLAG(RCC_FLAG_LSIRDY) != RESET)
 8001028:	4b9e      	ldr	r3, [pc, #632]	; (80012a4 <HAL_RCC_OscConfig+0x4f4>)
 800102a:	6a5b      	ldr	r3, [r3, #36]	; 0x24
 800102c:	f003 0302 	and.w	r3, r3, #2
 8001030:	2b00      	cmp	r3, #0
 8001032:	d1e9      	bne.n	8001008 <HAL_RCC_OscConfig+0x258>
        }
      }
    }
  }
  /*------------------------------ LSE Configuration -------------------------*/
  if (((RCC_OscInitStruct->OscillatorType) & RCC_OSCILLATORTYPE_LSE) == RCC_OSCILLATORTYPE_LSE)
 8001034:	687b      	ldr	r3, [r7, #4]
 8001036:	681b      	ldr	r3, [r3, #0]
 8001038:	f003 0304 	and.w	r3, r3, #4
 800103c:	2b00      	cmp	r3, #0
 800103e:	f000 80a6 	beq.w	800118e <HAL_RCC_OscConfig+0x3de>
  {
    FlagStatus       pwrclkchanged = RESET;
 8001042:	2300      	movs	r3, #0
 8001044:	75fb      	strb	r3, [r7, #23]
    /* Check the parameters */
    assert_param(IS_RCC_LSE(RCC_OscInitStruct->LSEState));

    /* Update LSE configuration in Backup Domain control register    */
    /* Requires to enable write access to Backup Domain of necessary */
    if (__HAL_RCC_PWR_IS_CLK_DISABLED())
 8001046:	4b97      	ldr	r3, [pc, #604]	; (80012a4 <HAL_RCC_OscConfig+0x4f4>)
 8001048:	69db      	ldr	r3, [r3, #28]
 800104a:	f003 5380 	and.w	r3, r3, #268435456	; 0x10000000
 800104e:	2b00      	cmp	r3, #0
 8001050:	d10d      	bne.n	800106e <HAL_RCC_OscConfig+0x2be>
    {
      __HAL_RCC_PWR_CLK_ENABLE();
 8001052:	4b94      	ldr	r3, [pc, #592]	; (80012a4 <HAL_RCC_OscConfig+0x4f4>)
 8001054:	69db      	ldr	r3, [r3, #28]
 8001056:	4a93      	ldr	r2, [pc, #588]	; (80012a4 <HAL_RCC_OscConfig+0x4f4>)
 8001058:	f043 5380 	orr.w	r3, r3, #268435456	; 0x10000000
 800105c:	61d3      	str	r3, [r2, #28]
 800105e:	4b91      	ldr	r3, [pc, #580]	; (80012a4 <HAL_RCC_OscConfig+0x4f4>)
 8001060:	69db      	ldr	r3, [r3, #28]
 8001062:	f003 5380 	and.w	r3, r3, #268435456	; 0x10000000
 8001066:	60bb      	str	r3, [r7, #8]
 8001068:	68bb      	ldr	r3, [r7, #8]
      pwrclkchanged = SET;
 800106a:	2301      	movs	r3, #1
 800106c:	75fb      	strb	r3, [r7, #23]
    }

    if (HAL_IS_BIT_CLR(PWR->CR, PWR_CR_DBP))
 800106e:	4b8e      	ldr	r3, [pc, #568]	; (80012a8 <HAL_RCC_OscConfig+0x4f8>)
 8001070:	681b      	ldr	r3, [r3, #0]
 8001072:	f403 7380 	and.w	r3, r3, #256	; 0x100
 8001076:	2b00      	cmp	r3, #0
 8001078:	d118      	bne.n	80010ac <HAL_RCC_OscConfig+0x2fc>
    {
      /* Enable write access to Backup domain */
      SET_BIT(PWR->CR, PWR_CR_DBP);
 800107a:	4b8b      	ldr	r3, [pc, #556]	; (80012a8 <HAL_RCC_OscConfig+0x4f8>)
 800107c:	681b      	ldr	r3, [r3, #0]
 800107e:	4a8a      	ldr	r2, [pc, #552]	; (80012a8 <HAL_RCC_OscConfig+0x4f8>)
 8001080:	f443 7380 	orr.w	r3, r3, #256	; 0x100
 8001084:	6013      	str	r3, [r2, #0]

      /* Wait for Backup domain Write protection disable */
      tickstart = HAL_GetTick();
 8001086:	f7ff fbad 	bl	80007e4 <HAL_GetTick>
 800108a:	6138      	str	r0, [r7, #16]

      while (HAL_IS_BIT_CLR(PWR->CR, PWR_CR_DBP))
 800108c:	e008      	b.n	80010a0 <HAL_RCC_OscConfig+0x2f0>
      {
        if ((HAL_GetTick() - tickstart) > RCC_DBP_TIMEOUT_VALUE)
 800108e:	f7ff fba9 	bl	80007e4 <HAL_GetTick>
 8001092:	4602      	mov	r2, r0
 8001094:	693b      	ldr	r3, [r7, #16]
 8001096:	1ad3      	subs	r3, r2, r3
 8001098:	2b64      	cmp	r3, #100	; 0x64
 800109a:	d901      	bls.n	80010a0 <HAL_RCC_OscConfig+0x2f0>
        {
          return HAL_TIMEOUT;
 800109c:	2303      	movs	r3, #3
 800109e:	e0fd      	b.n	800129c <HAL_RCC_OscConfig+0x4ec>
      while (HAL_IS_BIT_CLR(PWR->CR, PWR_CR_DBP))
 80010a0:	4b81      	ldr	r3, [pc, #516]	; (80012a8 <HAL_RCC_OscConfig+0x4f8>)
 80010a2:	681b      	ldr	r3, [r3, #0]
 80010a4:	f403 7380 	and.w	r3, r3, #256	; 0x100
 80010a8:	2b00      	cmp	r3, #0
 80010aa:	d0f0      	beq.n	800108e <HAL_RCC_OscConfig+0x2de>
        }
      }
    }

    /* Set the new LSE configuration -----------------------------------------*/
    __HAL_RCC_LSE_CONFIG(RCC_OscInitStruct->LSEState);
 80010ac:	687b      	ldr	r3, [r7, #4]
 80010ae:	68db      	ldr	r3, [r3, #12]
 80010b0:	2b01      	cmp	r3, #1
 80010b2:	d106      	bne.n	80010c2 <HAL_RCC_OscConfig+0x312>
 80010b4:	4b7b      	ldr	r3, [pc, #492]	; (80012a4 <HAL_RCC_OscConfig+0x4f4>)
 80010b6:	6a1b      	ldr	r3, [r3, #32]
 80010b8:	4a7a      	ldr	r2, [pc, #488]	; (80012a4 <HAL_RCC_OscConfig+0x4f4>)
 80010ba:	f043 0301 	orr.w	r3, r3, #1
 80010be:	6213      	str	r3, [r2, #32]
 80010c0:	e02d      	b.n	800111e <HAL_RCC_OscConfig+0x36e>
 80010c2:	687b      	ldr	r3, [r7, #4]
 80010c4:	68db      	ldr	r3, [r3, #12]
 80010c6:	2b00      	cmp	r3, #0
 80010c8:	d10c      	bne.n	80010e4 <HAL_RCC_OscConfig+0x334>
 80010ca:	4b76      	ldr	r3, [pc, #472]	; (80012a4 <HAL_RCC_OscConfig+0x4f4>)
 80010cc:	6a1b      	ldr	r3, [r3, #32]
 80010ce:	4a75      	ldr	r2, [pc, #468]	; (80012a4 <HAL_RCC_OscConfig+0x4f4>)
 80010d0:	f023 0301 	bic.w	r3, r3, #1
 80010d4:	6213      	str	r3, [r2, #32]
 80010d6:	4b73      	ldr	r3, [pc, #460]	; (80012a4 <HAL_RCC_OscConfig+0x4f4>)
 80010d8:	6a1b      	ldr	r3, [r3, #32]
 80010da:	4a72      	ldr	r2, [pc, #456]	; (80012a4 <HAL_RCC_OscConfig+0x4f4>)
 80010dc:	f023 0304 	bic.w	r3, r3, #4
 80010e0:	6213      	str	r3, [r2, #32]
 80010e2:	e01c      	b.n	800111e <HAL_RCC_OscConfig+0x36e>
 80010e4:	687b      	ldr	r3, [r7, #4]
 80010e6:	68db      	ldr	r3, [r3, #12]
 80010e8:	2b05      	cmp	r3, #5
 80010ea:	d10c      	bne.n	8001106 <HAL_RCC_OscConfig+0x356>
 80010ec:	4b6d      	ldr	r3, [pc, #436]	; (80012a4 <HAL_RCC_OscConfig+0x4f4>)
 80010ee:	6a1b      	ldr	r3, [r3, #32]
 80010f0:	4a6c      	ldr	r2, [pc, #432]	; (80012a4 <HAL_RCC_OscConfig+0x4f4>)
 80010f2:	f043 0304 	orr.w	r3, r3, #4
 80010f6:	6213      	str	r3, [r2, #32]
 80010f8:	4b6a      	ldr	r3, [pc, #424]	; (80012a4 <HAL_RCC_OscConfig+0x4f4>)
 80010fa:	6a1b      	ldr	r3, [r3, #32]
 80010fc:	4a69      	ldr	r2, [pc, #420]	; (80012a4 <HAL_RCC_OscConfig+0x4f4>)
 80010fe:	f043 0301 	orr.w	r3, r3, #1
 8001102:	6213      	str	r3, [r2, #32]
 8001104:	e00b      	b.n	800111e <HAL_RCC_OscConfig+0x36e>
 8001106:	4b67      	ldr	r3, [pc, #412]	; (80012a4 <HAL_RCC_OscConfig+0x4f4>)
 8001108:	6a1b      	ldr	r3, [r3, #32]
 800110a:	4a66      	ldr	r2, [pc, #408]	; (80012a4 <HAL_RCC_OscConfig+0x4f4>)
 800110c:	f023 0301 	bic.w	r3, r3, #1
 8001110:	6213      	str	r3, [r2, #32]
 8001112:	4b64      	ldr	r3, [pc, #400]	; (80012a4 <HAL_RCC_OscConfig+0x4f4>)
 8001114:	6a1b      	ldr	r3, [r3, #32]
 8001116:	4a63      	ldr	r2, [pc, #396]	; (80012a4 <HAL_RCC_OscConfig+0x4f4>)
 8001118:	f023 0304 	bic.w	r3, r3, #4
 800111c:	6213      	str	r3, [r2, #32]
    /* Check the LSE State */
    if (RCC_OscInitStruct->LSEState != RCC_LSE_OFF)
 800111e:	687b      	ldr	r3, [r7, #4]
 8001120:	68db      	ldr	r3, [r3, #12]
 8001122:	2b00      	cmp	r3, #0
 8001124:	d015      	beq.n	8001152 <HAL_RCC_OscConfig+0x3a2>
    {
      /* Get Start Tick */
      tickstart = HAL_GetTick();
 8001126:	f7ff fb5d 	bl	80007e4 <HAL_GetTick>
 800112a:	6138      	str	r0, [r7, #16]

      /* Wait till LSE is ready */
      while (__HAL_RCC_GET_FLAG(RCC_FLAG_LSERDY) == RESET)
 800112c:	e00a      	b.n	8001144 <HAL_RCC_OscConfig+0x394>
      {
        if ((HAL_GetTick() - tickstart) > RCC_LSE_TIMEOUT_VALUE)
 800112e:	f7ff fb59 	bl	80007e4 <HAL_GetTick>
 8001132:	4602      	mov	r2, r0
 8001134:	693b      	ldr	r3, [r7, #16]
 8001136:	1ad3      	subs	r3, r2, r3
 8001138:	f241 3288 	movw	r2, #5000	; 0x1388
 800113c:	4293      	cmp	r3, r2
 800113e:	d901      	bls.n	8001144 <HAL_RCC_OscConfig+0x394>
        {
          return HAL_TIMEOUT;
 8001140:	2303      	movs	r3, #3
 8001142:	e0ab      	b.n	800129c <HAL_RCC_OscConfig+0x4ec>
      while (__HAL_RCC_GET_FLAG(RCC_FLAG_LSERDY) == RESET)
 8001144:	4b57      	ldr	r3, [pc, #348]	; (80012a4 <HAL_RCC_OscConfig+0x4f4>)
 8001146:	6a1b      	ldr	r3, [r3, #32]
 8001148:	f003 0302 	and.w	r3, r3, #2
 800114c:	2b00      	cmp	r3, #0
 800114e:	d0ee      	beq.n	800112e <HAL_RCC_OscConfig+0x37e>
 8001150:	e014      	b.n	800117c <HAL_RCC_OscConfig+0x3cc>
      }
    }
    else
    {
      /* Get Start Tick */
      tickstart = HAL_GetTick();
 8001152:	f7ff fb47 	bl	80007e4 <HAL_GetTick>
 8001156:	6138      	str	r0, [r7, #16]

      /* Wait till LSE is disabled */
      while (__HAL_RCC_GET_FLAG(RCC_FLAG_LSERDY) != RESET)
 8001158:	e00a      	b.n	8001170 <HAL_RCC_OscConfig+0x3c0>
      {
        if ((HAL_GetTick() - tickstart) > RCC_LSE_TIMEOUT_VALUE)
 800115a:	f7ff fb43 	bl	80007e4 <HAL_GetTick>
 800115e:	4602      	mov	r2, r0
 8001160:	693b      	ldr	r3, [r7, #16]
 8001162:	1ad3      	subs	r3, r2, r3
 8001164:	f241 3288 	movw	r2, #5000	; 0x1388
 8001168:	4293      	cmp	r3, r2
 800116a:	d901      	bls.n	8001170 <HAL_RCC_OscConfig+0x3c0>
        {
          return HAL_TIMEOUT;
 800116c:	2303      	movs	r3, #3
 800116e:	e095      	b.n	800129c <HAL_RCC_OscConfig+0x4ec>
      while (__HAL_RCC_GET_FLAG(RCC_FLAG_LSERDY) != RESET)
 8001170:	4b4c      	ldr	r3, [pc, #304]	; (80012a4 <HAL_RCC_OscConfig+0x4f4>)
 8001172:	6a1b      	ldr	r3, [r3, #32]
 8001174:	f003 0302 	and.w	r3, r3, #2
 8001178:	2b00      	cmp	r3, #0
 800117a:	d1ee      	bne.n	800115a <HAL_RCC_OscConfig+0x3aa>
        }
      }
    }

    /* Require to disable power clock if necessary */
    if (pwrclkchanged == SET)
 800117c:	7dfb      	ldrb	r3, [r7, #23]
 800117e:	2b01      	cmp	r3, #1
 8001180:	d105      	bne.n	800118e <HAL_RCC_OscConfig+0x3de>
    {
      __HAL_RCC_PWR_CLK_DISABLE();
 8001182:	4b48      	ldr	r3, [pc, #288]	; (80012a4 <HAL_RCC_OscConfig+0x4f4>)
 8001184:	69db      	ldr	r3, [r3, #28]
 8001186:	4a47      	ldr	r2, [pc, #284]	; (80012a4 <HAL_RCC_OscConfig+0x4f4>)
 8001188:	f023 5380 	bic.w	r3, r3, #268435456	; 0x10000000
 800118c:	61d3      	str	r3, [r2, #28]

#endif /* RCC_CR_PLL2ON */
  /*-------------------------------- PLL Configuration -----------------------*/
  /* Check the parameters */
  assert_param(IS_RCC_PLL(RCC_OscInitStruct->PLL.PLLState));
  if ((RCC_OscInitStruct->PLL.PLLState) != RCC_PLL_NONE)
 800118e:	687b      	ldr	r3, [r7, #4]
 8001190:	69db      	ldr	r3, [r3, #28]
 8001192:	2b00      	cmp	r3, #0
 8001194:	f000 8081 	beq.w	800129a <HAL_RCC_OscConfig+0x4ea>
  {
    /* Check if the PLL is used as system clock or not */
    if (__HAL_RCC_GET_SYSCLK_SOURCE() != RCC_SYSCLKSOURCE_STATUS_PLLCLK)
 8001198:	4b42      	ldr	r3, [pc, #264]	; (80012a4 <HAL_RCC_OscConfig+0x4f4>)
 800119a:	685b      	ldr	r3, [r3, #4]
 800119c:	f003 030c 	and.w	r3, r3, #12
 80011a0:	2b08      	cmp	r3, #8
 80011a2:	d061      	beq.n	8001268 <HAL_RCC_OscConfig+0x4b8>
    {
      if ((RCC_OscInitStruct->PLL.PLLState) == RCC_PLL_ON)
 80011a4:	687b      	ldr	r3, [r7, #4]
 80011a6:	69db      	ldr	r3, [r3, #28]
 80011a8:	2b02      	cmp	r3, #2
 80011aa:	d146      	bne.n	800123a <HAL_RCC_OscConfig+0x48a>
        /* Check the parameters */
        assert_param(IS_RCC_PLLSOURCE(RCC_OscInitStruct->PLL.PLLSource));
        assert_param(IS_RCC_PLL_MUL(RCC_OscInitStruct->PLL.PLLMUL));

        /* Disable the main PLL. */
        __HAL_RCC_PLL_DISABLE();
 80011ac:	4b3f      	ldr	r3, [pc, #252]	; (80012ac <HAL_RCC_OscConfig+0x4fc>)
 80011ae:	2200      	movs	r2, #0
 80011b0:	601a      	str	r2, [r3, #0]

        /* Get Start Tick */
        tickstart = HAL_GetTick();
 80011b2:	f7ff fb17 	bl	80007e4 <HAL_GetTick>
 80011b6:	6138      	str	r0, [r7, #16]

        /* Wait till PLL is disabled */
        while (__HAL_RCC_GET_FLAG(RCC_FLAG_PLLRDY)  != RESET)
 80011b8:	e008      	b.n	80011cc <HAL_RCC_OscConfig+0x41c>
        {
          if ((HAL_GetTick() - tickstart) > PLL_TIMEOUT_VALUE)
 80011ba:	f7ff fb13 	bl	80007e4 <HAL_GetTick>
 80011be:	4602      	mov	r2, r0
 80011c0:	693b      	ldr	r3, [r7, #16]
 80011c2:	1ad3      	subs	r3, r2, r3
 80011c4:	2b02      	cmp	r3, #2
 80011c6:	d901      	bls.n	80011cc <HAL_RCC_OscConfig+0x41c>
          {
            return HAL_TIMEOUT;
 80011c8:	2303      	movs	r3, #3
 80011ca:	e067      	b.n	800129c <HAL_RCC_OscConfig+0x4ec>
        while (__HAL_RCC_GET_FLAG(RCC_FLAG_PLLRDY)  != RESET)
 80011cc:	4b35      	ldr	r3, [pc, #212]	; (80012a4 <HAL_RCC_OscConfig+0x4f4>)
 80011ce:	681b      	ldr	r3, [r3, #0]
 80011d0:	f003 7300 	and.w	r3, r3, #33554432	; 0x2000000
 80011d4:	2b00      	cmp	r3, #0
 80011d6:	d1f0      	bne.n	80011ba <HAL_RCC_OscConfig+0x40a>
          }
        }

        /* Configure the HSE prediv factor --------------------------------*/
        /* It can be written only when the PLL is disabled. Not used in PLL source is different than HSE */
        if (RCC_OscInitStruct->PLL.PLLSource == RCC_PLLSOURCE_HSE)
 80011d8:	687b      	ldr	r3, [r7, #4]
 80011da:	6a1b      	ldr	r3, [r3, #32]
 80011dc:	f5b3 3f80 	cmp.w	r3, #65536	; 0x10000
 80011e0:	d108      	bne.n	80011f4 <HAL_RCC_OscConfig+0x444>
          /* Set PREDIV1 source */
          SET_BIT(RCC->CFGR2, RCC_OscInitStruct->Prediv1Source);
#endif /* RCC_CFGR2_PREDIV1SRC */

          /* Set PREDIV1 Value */
          __HAL_RCC_HSE_PREDIV_CONFIG(RCC_OscInitStruct->HSEPredivValue);
 80011e2:	4b30      	ldr	r3, [pc, #192]	; (80012a4 <HAL_RCC_OscConfig+0x4f4>)
 80011e4:	685b      	ldr	r3, [r3, #4]
 80011e6:	f423 3200 	bic.w	r2, r3, #131072	; 0x20000
 80011ea:	687b      	ldr	r3, [r7, #4]
 80011ec:	689b      	ldr	r3, [r3, #8]
 80011ee:	492d      	ldr	r1, [pc, #180]	; (80012a4 <HAL_RCC_OscConfig+0x4f4>)
 80011f0:	4313      	orrs	r3, r2
 80011f2:	604b      	str	r3, [r1, #4]
        }

        /* Configure the main PLL clock source and multiplication factors. */
        __HAL_RCC_PLL_CONFIG(RCC_OscInitStruct->PLL.PLLSource,
 80011f4:	4b2b      	ldr	r3, [pc, #172]	; (80012a4 <HAL_RCC_OscConfig+0x4f4>)
 80011f6:	685b      	ldr	r3, [r3, #4]
 80011f8:	f423 1274 	bic.w	r2, r3, #3997696	; 0x3d0000
 80011fc:	687b      	ldr	r3, [r7, #4]
 80011fe:	6a19      	ldr	r1, [r3, #32]
 8001200:	687b      	ldr	r3, [r7, #4]
 8001202:	6a5b      	ldr	r3, [r3, #36]	; 0x24
 8001204:	430b      	orrs	r3, r1
 8001206:	4927      	ldr	r1, [pc, #156]	; (80012a4 <HAL_RCC_OscConfig+0x4f4>)
 8001208:	4313      	orrs	r3, r2
 800120a:	604b      	str	r3, [r1, #4]
                             RCC_OscInitStruct->PLL.PLLMUL);
        /* Enable the main PLL. */
        __HAL_RCC_PLL_ENABLE();
 800120c:	4b27      	ldr	r3, [pc, #156]	; (80012ac <HAL_RCC_OscConfig+0x4fc>)
 800120e:	2201      	movs	r2, #1
 8001210:	601a      	str	r2, [r3, #0]

        /* Get Start Tick */
        tickstart = HAL_GetTick();
 8001212:	f7ff fae7 	bl	80007e4 <HAL_GetTick>
 8001216:	6138      	str	r0, [r7, #16]

        /* Wait till PLL is ready */
        while (__HAL_RCC_GET_FLAG(RCC_FLAG_PLLRDY)  == RESET)
 8001218:	e008      	b.n	800122c <HAL_RCC_OscConfig+0x47c>
        {
          if ((HAL_GetTick() - tickstart) > PLL_TIMEOUT_VALUE)
 800121a:	f7ff fae3 	bl	80007e4 <HAL_GetTick>
 800121e:	4602      	mov	r2, r0
 8001220:	693b      	ldr	r3, [r7, #16]
 8001222:	1ad3      	subs	r3, r2, r3
 8001224:	2b02      	cmp	r3, #2
 8001226:	d901      	bls.n	800122c <HAL_RCC_OscConfig+0x47c>
          {
            return HAL_TIMEOUT;
 8001228:	2303      	movs	r3, #3
 800122a:	e037      	b.n	800129c <HAL_RCC_OscConfig+0x4ec>
        while (__HAL_RCC_GET_FLAG(RCC_FLAG_PLLRDY)  == RESET)
 800122c:	4b1d      	ldr	r3, [pc, #116]	; (80012a4 <HAL_RCC_OscConfig+0x4f4>)
 800122e:	681b      	ldr	r3, [r3, #0]
 8001230:	f003 7300 	and.w	r3, r3, #33554432	; 0x2000000
 8001234:	2b00      	cmp	r3, #0
 8001236:	d0f0      	beq.n	800121a <HAL_RCC_OscConfig+0x46a>
 8001238:	e02f      	b.n	800129a <HAL_RCC_OscConfig+0x4ea>
        }
      }
      else
      {
        /* Disable the main PLL. */
        __HAL_RCC_PLL_DISABLE();
 800123a:	4b1c      	ldr	r3, [pc, #112]	; (80012ac <HAL_RCC_OscConfig+0x4fc>)
 800123c:	2200      	movs	r2, #0
 800123e:	601a      	str	r2, [r3, #0]

        /* Get Start Tick */
        tickstart = HAL_GetTick();
 8001240:	f7ff fad0 	bl	80007e4 <HAL_GetTick>
 8001244:	6138      	str	r0, [r7, #16]

        /* Wait till PLL is disabled */
        while (__HAL_RCC_GET_FLAG(RCC_FLAG_PLLRDY)  != RESET)
 8001246:	e008      	b.n	800125a <HAL_RCC_OscConfig+0x4aa>
        {
          if ((HAL_GetTick() - tickstart) > PLL_TIMEOUT_VALUE)
 8001248:	f7ff facc 	bl	80007e4 <HAL_GetTick>
 800124c:	4602      	mov	r2, r0
 800124e:	693b      	ldr	r3, [r7, #16]
 8001250:	1ad3      	subs	r3, r2, r3
 8001252:	2b02      	cmp	r3, #2
 8001254:	d901      	bls.n	800125a <HAL_RCC_OscConfig+0x4aa>
          {
            return HAL_TIMEOUT;
 8001256:	2303      	movs	r3, #3
 8001258:	e020      	b.n	800129c <HAL_RCC_OscConfig+0x4ec>
        while (__HAL_RCC_GET_FLAG(RCC_FLAG_PLLRDY)  != RESET)
 800125a:	4b12      	ldr	r3, [pc, #72]	; (80012a4 <HAL_RCC_OscConfig+0x4f4>)
 800125c:	681b      	ldr	r3, [r3, #0]
 800125e:	f003 7300 	and.w	r3, r3, #33554432	; 0x2000000
 8001262:	2b00      	cmp	r3, #0
 8001264:	d1f0      	bne.n	8001248 <HAL_RCC_OscConfig+0x498>
 8001266:	e018      	b.n	800129a <HAL_RCC_OscConfig+0x4ea>
      }
    }
    else
    {
      /* Check if there is a request to disable the PLL used as System clock source */
      if ((RCC_OscInitStruct->PLL.PLLState) == RCC_PLL_OFF)
 8001268:	687b      	ldr	r3, [r7, #4]
 800126a:	69db      	ldr	r3, [r3, #28]
 800126c:	2b01      	cmp	r3, #1
 800126e:	d101      	bne.n	8001274 <HAL_RCC_OscConfig+0x4c4>
      {
        return HAL_ERROR;
 8001270:	2301      	movs	r3, #1
 8001272:	e013      	b.n	800129c <HAL_RCC_OscConfig+0x4ec>
      }
      else
      {
        /* Do not return HAL_ERROR if request repeats the current configuration */
        pll_config = RCC->CFGR;
 8001274:	4b0b      	ldr	r3, [pc, #44]	; (80012a4 <HAL_RCC_OscConfig+0x4f4>)
 8001276:	685b      	ldr	r3, [r3, #4]
 8001278:	60fb      	str	r3, [r7, #12]
        if ((READ_BIT(pll_config, RCC_CFGR_PLLSRC) != RCC_OscInitStruct->PLL.PLLSource) ||
 800127a:	68fb      	ldr	r3, [r7, #12]
 800127c:	f403 3280 	and.w	r2, r3, #65536	; 0x10000
 8001280:	687b      	ldr	r3, [r7, #4]
 8001282:	6a1b      	ldr	r3, [r3, #32]
 8001284:	429a      	cmp	r2, r3
 8001286:	d106      	bne.n	8001296 <HAL_RCC_OscConfig+0x4e6>
            (READ_BIT(pll_config, RCC_CFGR_PLLMULL) != RCC_OscInitStruct->PLL.PLLMUL))
 8001288:	68fb      	ldr	r3, [r7, #12]
 800128a:	f403 1270 	and.w	r2, r3, #3932160	; 0x3c0000
 800128e:	687b      	ldr	r3, [r7, #4]
 8001290:	6a5b      	ldr	r3, [r3, #36]	; 0x24
        if ((READ_BIT(pll_config, RCC_CFGR_PLLSRC) != RCC_OscInitStruct->PLL.PLLSource) ||
 8001292:	429a      	cmp	r2, r3
 8001294:	d001      	beq.n	800129a <HAL_RCC_OscConfig+0x4ea>
        {
          return HAL_ERROR;
 8001296:	2301      	movs	r3, #1
 8001298:	e000      	b.n	800129c <HAL_RCC_OscConfig+0x4ec>
        }
      }
    }
  }

  return HAL_OK;
 800129a:	2300      	movs	r3, #0
}
 800129c:	4618      	mov	r0, r3
 800129e:	3718      	adds	r7, #24
 80012a0:	46bd      	mov	sp, r7
 80012a2:	bd80      	pop	{r7, pc}
 80012a4:	40021000 	.word	0x40021000
 80012a8:	40007000 	.word	0x40007000
 80012ac:	42420060 	.word	0x42420060

080012b0 <HAL_RCC_ClockConfig>:
  *         You can use @ref HAL_RCC_GetClockConfig() function to know which clock is
  *         currently used as system clock source.
  * @retval HAL status
  */
HAL_StatusTypeDef HAL_RCC_ClockConfig(RCC_ClkInitTypeDef  *RCC_ClkInitStruct, uint32_t FLatency)
{
 80012b0:	b580      	push	{r7, lr}
 80012b2:	b084      	sub	sp, #16
 80012b4:	af00      	add	r7, sp, #0
 80012b6:	6078      	str	r0, [r7, #4]
 80012b8:	6039      	str	r1, [r7, #0]
  uint32_t tickstart;

  /* Check Null pointer */
  if (RCC_ClkInitStruct == NULL)
 80012ba:	687b      	ldr	r3, [r7, #4]
 80012bc:	2b00      	cmp	r3, #0
 80012be:	d101      	bne.n	80012c4 <HAL_RCC_ClockConfig+0x14>
  {
    return HAL_ERROR;
 80012c0:	2301      	movs	r3, #1
 80012c2:	e0d0      	b.n	8001466 <HAL_RCC_ClockConfig+0x1b6>
  must be correctly programmed according to the frequency of the CPU clock
    (HCLK) of the device. */

#if defined(FLASH_ACR_LATENCY)
  /* Increasing the number of wait states because of higher CPU frequency */
  if (FLatency > __HAL_FLASH_GET_LATENCY())
 80012c4:	4b6a      	ldr	r3, [pc, #424]	; (8001470 <HAL_RCC_ClockConfig+0x1c0>)
 80012c6:	681b      	ldr	r3, [r3, #0]
 80012c8:	f003 0307 	and.w	r3, r3, #7
 80012cc:	683a      	ldr	r2, [r7, #0]
 80012ce:	429a      	cmp	r2, r3
 80012d0:	d910      	bls.n	80012f4 <HAL_RCC_ClockConfig+0x44>
  {
    /* Program the new number of wait states to the LATENCY bits in the FLASH_ACR register */
    __HAL_FLASH_SET_LATENCY(FLatency);
 80012d2:	4b67      	ldr	r3, [pc, #412]	; (8001470 <HAL_RCC_ClockConfig+0x1c0>)
 80012d4:	681b      	ldr	r3, [r3, #0]
 80012d6:	f023 0207 	bic.w	r2, r3, #7
 80012da:	4965      	ldr	r1, [pc, #404]	; (8001470 <HAL_RCC_ClockConfig+0x1c0>)
 80012dc:	683b      	ldr	r3, [r7, #0]
 80012de:	4313      	orrs	r3, r2
 80012e0:	600b      	str	r3, [r1, #0]

    /* Check that the new number of wait states is taken into account to access the Flash
    memory by reading the FLASH_ACR register */
    if (__HAL_FLASH_GET_LATENCY() != FLatency)
 80012e2:	4b63      	ldr	r3, [pc, #396]	; (8001470 <HAL_RCC_ClockConfig+0x1c0>)
 80012e4:	681b      	ldr	r3, [r3, #0]
 80012e6:	f003 0307 	and.w	r3, r3, #7
 80012ea:	683a      	ldr	r2, [r7, #0]
 80012ec:	429a      	cmp	r2, r3
 80012ee:	d001      	beq.n	80012f4 <HAL_RCC_ClockConfig+0x44>
  {
    return HAL_ERROR;
 80012f0:	2301      	movs	r3, #1
 80012f2:	e0b8      	b.n	8001466 <HAL_RCC_ClockConfig+0x1b6>
  }
}

#endif /* FLASH_ACR_LATENCY */
/*-------------------------- HCLK Configuration --------------------------*/
if (((RCC_ClkInitStruct->ClockType) & RCC_CLOCKTYPE_HCLK) == RCC_CLOCKTYPE_HCLK)
 80012f4:	687b      	ldr	r3, [r7, #4]
 80012f6:	681b      	ldr	r3, [r3, #0]
 80012f8:	f003 0302 	and.w	r3, r3, #2
 80012fc:	2b00      	cmp	r3, #0
 80012fe:	d020      	beq.n	8001342 <HAL_RCC_ClockConfig+0x92>
  {
    /* Set the highest APBx dividers in order to ensure that we do not go through
    a non-spec phase whatever we decrease or increase HCLK. */
    if (((RCC_ClkInitStruct->ClockType) & RCC_CLOCKTYPE_PCLK1) == RCC_CLOCKTYPE_PCLK1)
 8001300:	687b      	ldr	r3, [r7, #4]
 8001302:	681b      	ldr	r3, [r3, #0]
 8001304:	f003 0304 	and.w	r3, r3, #4
 8001308:	2b00      	cmp	r3, #0
 800130a:	d005      	beq.n	8001318 <HAL_RCC_ClockConfig+0x68>
    {
      MODIFY_REG(RCC->CFGR, RCC_CFGR_PPRE1, RCC_HCLK_DIV16);
 800130c:	4b59      	ldr	r3, [pc, #356]	; (8001474 <HAL_RCC_ClockConfig+0x1c4>)
 800130e:	685b      	ldr	r3, [r3, #4]
 8001310:	4a58      	ldr	r2, [pc, #352]	; (8001474 <HAL_RCC_ClockConfig+0x1c4>)
 8001312:	f443 63e0 	orr.w	r3, r3, #1792	; 0x700
 8001316:	6053      	str	r3, [r2, #4]
    }

    if (((RCC_ClkInitStruct->ClockType) & RCC_CLOCKTYPE_PCLK2) == RCC_CLOCKTYPE_PCLK2)
 8001318:	687b      	ldr	r3, [r7, #4]
 800131a:	681b      	ldr	r3, [r3, #0]
 800131c:	f003 0308 	and.w	r3, r3, #8
 8001320:	2b00      	cmp	r3, #0
 8001322:	d005      	beq.n	8001330 <HAL_RCC_ClockConfig+0x80>
    {
      MODIFY_REG(RCC->CFGR, RCC_CFGR_PPRE2, (RCC_HCLK_DIV16 << 3));
 8001324:	4b53      	ldr	r3, [pc, #332]	; (8001474 <HAL_RCC_ClockConfig+0x1c4>)
 8001326:	685b      	ldr	r3, [r3, #4]
 8001328:	4a52      	ldr	r2, [pc, #328]	; (8001474 <HAL_RCC_ClockConfig+0x1c4>)
 800132a:	f443 5360 	orr.w	r3, r3, #14336	; 0x3800
 800132e:	6053      	str	r3, [r2, #4]
    }

    /* Set the new HCLK clock divider */
    assert_param(IS_RCC_HCLK(RCC_ClkInitStruct->AHBCLKDivider));
    MODIFY_REG(RCC->CFGR, RCC_CFGR_HPRE, RCC_ClkInitStruct->AHBCLKDivider);
 8001330:	4b50      	ldr	r3, [pc, #320]	; (8001474 <HAL_RCC_ClockConfig+0x1c4>)
 8001332:	685b      	ldr	r3, [r3, #4]
 8001334:	f023 02f0 	bic.w	r2, r3, #240	; 0xf0
 8001338:	687b      	ldr	r3, [r7, #4]
 800133a:	689b      	ldr	r3, [r3, #8]
 800133c:	494d      	ldr	r1, [pc, #308]	; (8001474 <HAL_RCC_ClockConfig+0x1c4>)
 800133e:	4313      	orrs	r3, r2
 8001340:	604b      	str	r3, [r1, #4]
  }

  /*------------------------- SYSCLK Configuration ---------------------------*/
  if (((RCC_ClkInitStruct->ClockType) & RCC_CLOCKTYPE_SYSCLK) == RCC_CLOCKTYPE_SYSCLK)
 8001342:	687b      	ldr	r3, [r7, #4]
 8001344:	681b      	ldr	r3, [r3, #0]
 8001346:	f003 0301 	and.w	r3, r3, #1
 800134a:	2b00      	cmp	r3, #0
 800134c:	d040      	beq.n	80013d0 <HAL_RCC_ClockConfig+0x120>
  {
    assert_param(IS_RCC_SYSCLKSOURCE(RCC_ClkInitStruct->SYSCLKSource));

    /* HSE is selected as System Clock Source */
    if (RCC_ClkInitStruct->SYSCLKSource == RCC_SYSCLKSOURCE_HSE)
 800134e:	687b      	ldr	r3, [r7, #4]
 8001350:	685b      	ldr	r3, [r3, #4]
 8001352:	2b01      	cmp	r3, #1
 8001354:	d107      	bne.n	8001366 <HAL_RCC_ClockConfig+0xb6>
    {
      /* Check the HSE ready flag */
      if (__HAL_RCC_GET_FLAG(RCC_FLAG_HSERDY) == RESET)
 8001356:	4b47      	ldr	r3, [pc, #284]	; (8001474 <HAL_RCC_ClockConfig+0x1c4>)
 8001358:	681b      	ldr	r3, [r3, #0]
 800135a:	f403 3300 	and.w	r3, r3, #131072	; 0x20000
 800135e:	2b00      	cmp	r3, #0
 8001360:	d115      	bne.n	800138e <HAL_RCC_ClockConfig+0xde>
      {
        return HAL_ERROR;
 8001362:	2301      	movs	r3, #1
 8001364:	e07f      	b.n	8001466 <HAL_RCC_ClockConfig+0x1b6>
      }
    }
    /* PLL is selected as System Clock Source */
    else if (RCC_ClkInitStruct->SYSCLKSource == RCC_SYSCLKSOURCE_PLLCLK)
 8001366:	687b      	ldr	r3, [r7, #4]
 8001368:	685b      	ldr	r3, [r3, #4]
 800136a:	2b02      	cmp	r3, #2
 800136c:	d107      	bne.n	800137e <HAL_RCC_ClockConfig+0xce>
    {
      /* Check the PLL ready flag */
      if (__HAL_RCC_GET_FLAG(RCC_FLAG_PLLRDY) == RESET)
 800136e:	4b41      	ldr	r3, [pc, #260]	; (8001474 <HAL_RCC_ClockConfig+0x1c4>)
 8001370:	681b      	ldr	r3, [r3, #0]
 8001372:	f003 7300 	and.w	r3, r3, #33554432	; 0x2000000
 8001376:	2b00      	cmp	r3, #0
 8001378:	d109      	bne.n	800138e <HAL_RCC_ClockConfig+0xde>
      {
        return HAL_ERROR;
 800137a:	2301      	movs	r3, #1
 800137c:	e073      	b.n	8001466 <HAL_RCC_ClockConfig+0x1b6>
    }
    /* HSI is selected as System Clock Source */
    else
    {
      /* Check the HSI ready flag */
      if (__HAL_RCC_GET_FLAG(RCC_FLAG_HSIRDY) == RESET)
 800137e:	4b3d      	ldr	r3, [pc, #244]	; (8001474 <HAL_RCC_ClockConfig+0x1c4>)
 8001380:	681b      	ldr	r3, [r3, #0]
 8001382:	f003 0302 	and.w	r3, r3, #2
 8001386:	2b00      	cmp	r3, #0
 8001388:	d101      	bne.n	800138e <HAL_RCC_ClockConfig+0xde>
      {
        return HAL_ERROR;
 800138a:	2301      	movs	r3, #1
 800138c:	e06b      	b.n	8001466 <HAL_RCC_ClockConfig+0x1b6>
      }
    }
    __HAL_RCC_SYSCLK_CONFIG(RCC_ClkInitStruct->SYSCLKSource);
 800138e:	4b39      	ldr	r3, [pc, #228]	; (8001474 <HAL_RCC_ClockConfig+0x1c4>)
 8001390:	685b      	ldr	r3, [r3, #4]
 8001392:	f023 0203 	bic.w	r2, r3, #3
 8001396:	687b      	ldr	r3, [r7, #4]
 8001398:	685b      	ldr	r3, [r3, #4]
 800139a:	4936      	ldr	r1, [pc, #216]	; (8001474 <HAL_RCC_ClockConfig+0x1c4>)
 800139c:	4313      	orrs	r3, r2
 800139e:	604b      	str	r3, [r1, #4]

    /* Get Start Tick */
    tickstart = HAL_GetTick();
 80013a0:	f7ff fa20 	bl	80007e4 <HAL_GetTick>
 80013a4:	60f8      	str	r0, [r7, #12]

    while (__HAL_RCC_GET_SYSCLK_SOURCE() != (RCC_ClkInitStruct->SYSCLKSource << RCC_CFGR_SWS_Pos))
 80013a6:	e00a      	b.n	80013be <HAL_RCC_ClockConfig+0x10e>
    {
      if ((HAL_GetTick() - tickstart) > CLOCKSWITCH_TIMEOUT_VALUE)
 80013a8:	f7ff fa1c 	bl	80007e4 <HAL_GetTick>
 80013ac:	4602      	mov	r2, r0
 80013ae:	68fb      	ldr	r3, [r7, #12]
 80013b0:	1ad3      	subs	r3, r2, r3
 80013b2:	f241 3288 	movw	r2, #5000	; 0x1388
 80013b6:	4293      	cmp	r3, r2
 80013b8:	d901      	bls.n	80013be <HAL_RCC_ClockConfig+0x10e>
      {
        return HAL_TIMEOUT;
 80013ba:	2303      	movs	r3, #3
 80013bc:	e053      	b.n	8001466 <HAL_RCC_ClockConfig+0x1b6>
    while (__HAL_RCC_GET_SYSCLK_SOURCE() != (RCC_ClkInitStruct->SYSCLKSource << RCC_CFGR_SWS_Pos))
 80013be:	4b2d      	ldr	r3, [pc, #180]	; (8001474 <HAL_RCC_ClockConfig+0x1c4>)
 80013c0:	685b      	ldr	r3, [r3, #4]
 80013c2:	f003 020c 	and.w	r2, r3, #12
 80013c6:	687b      	ldr	r3, [r7, #4]
 80013c8:	685b      	ldr	r3, [r3, #4]
 80013ca:	009b      	lsls	r3, r3, #2
 80013cc:	429a      	cmp	r2, r3
 80013ce:	d1eb      	bne.n	80013a8 <HAL_RCC_ClockConfig+0xf8>
    }
  }

#if defined(FLASH_ACR_LATENCY)
  /* Decreasing the number of wait states because of lower CPU frequency */
  if (FLatency < __HAL_FLASH_GET_LATENCY())
 80013d0:	4b27      	ldr	r3, [pc, #156]	; (8001470 <HAL_RCC_ClockConfig+0x1c0>)
 80013d2:	681b      	ldr	r3, [r3, #0]
 80013d4:	f003 0307 	and.w	r3, r3, #7
 80013d8:	683a      	ldr	r2, [r7, #0]
 80013da:	429a      	cmp	r2, r3
 80013dc:	d210      	bcs.n	8001400 <HAL_RCC_ClockConfig+0x150>
  {
    /* Program the new number of wait states to the LATENCY bits in the FLASH_ACR register */
    __HAL_FLASH_SET_LATENCY(FLatency);
 80013de:	4b24      	ldr	r3, [pc, #144]	; (8001470 <HAL_RCC_ClockConfig+0x1c0>)
 80013e0:	681b      	ldr	r3, [r3, #0]
 80013e2:	f023 0207 	bic.w	r2, r3, #7
 80013e6:	4922      	ldr	r1, [pc, #136]	; (8001470 <HAL_RCC_ClockConfig+0x1c0>)
 80013e8:	683b      	ldr	r3, [r7, #0]
 80013ea:	4313      	orrs	r3, r2
 80013ec:	600b      	str	r3, [r1, #0]

    /* Check that the new number of wait states is taken into account to access the Flash
    memory by reading the FLASH_ACR register */
    if (__HAL_FLASH_GET_LATENCY() != FLatency)
 80013ee:	4b20      	ldr	r3, [pc, #128]	; (8001470 <HAL_RCC_ClockConfig+0x1c0>)
 80013f0:	681b      	ldr	r3, [r3, #0]
 80013f2:	f003 0307 	and.w	r3, r3, #7
 80013f6:	683a      	ldr	r2, [r7, #0]
 80013f8:	429a      	cmp	r2, r3
 80013fa:	d001      	beq.n	8001400 <HAL_RCC_ClockConfig+0x150>
  {
    return HAL_ERROR;
 80013fc:	2301      	movs	r3, #1
 80013fe:	e032      	b.n	8001466 <HAL_RCC_ClockConfig+0x1b6>
  }
}
#endif /* FLASH_ACR_LATENCY */

/*-------------------------- PCLK1 Configuration ---------------------------*/
if (((RCC_ClkInitStruct->ClockType) & RCC_CLOCKTYPE_PCLK1) == RCC_CLOCKTYPE_PCLK1)
 8001400:	687b      	ldr	r3, [r7, #4]
 8001402:	681b      	ldr	r3, [r3, #0]
 8001404:	f003 0304 	and.w	r3, r3, #4
 8001408:	2b00      	cmp	r3, #0
 800140a:	d008      	beq.n	800141e <HAL_RCC_ClockConfig+0x16e>
  {
    assert_param(IS_RCC_PCLK(RCC_ClkInitStruct->APB1CLKDivider));
    MODIFY_REG(RCC->CFGR, RCC_CFGR_PPRE1, RCC_ClkInitStruct->APB1CLKDivider);
 800140c:	4b19      	ldr	r3, [pc, #100]	; (8001474 <HAL_RCC_ClockConfig+0x1c4>)
 800140e:	685b      	ldr	r3, [r3, #4]
 8001410:	f423 62e0 	bic.w	r2, r3, #1792	; 0x700
 8001414:	687b      	ldr	r3, [r7, #4]
 8001416:	68db      	ldr	r3, [r3, #12]
 8001418:	4916      	ldr	r1, [pc, #88]	; (8001474 <HAL_RCC_ClockConfig+0x1c4>)
 800141a:	4313      	orrs	r3, r2
 800141c:	604b      	str	r3, [r1, #4]
  }

  /*-------------------------- PCLK2 Configuration ---------------------------*/
  if (((RCC_ClkInitStruct->ClockType) & RCC_CLOCKTYPE_PCLK2) == RCC_CLOCKTYPE_PCLK2)
 800141e:	687b      	ldr	r3, [r7, #4]
 8001420:	681b      	ldr	r3, [r3, #0]
 8001422:	f003 0308 	and.w	r3, r3, #8
 8001426:	2b00      	cmp	r3, #0
 8001428:	d009      	beq.n	800143e <HAL_RCC_ClockConfig+0x18e>
  {
    assert_param(IS_RCC_PCLK(RCC_ClkInitStruct->APB2CLKDivider));
    MODIFY_REG(RCC->CFGR, RCC_CFGR_PPRE2, ((RCC_ClkInitStruct->APB2CLKDivider) << 3));
 800142a:	4b12      	ldr	r3, [pc, #72]	; (8001474 <HAL_RCC_ClockConfig+0x1c4>)
 800142c:	685b      	ldr	r3, [r3, #4]
 800142e:	f423 5260 	bic.w	r2, r3, #14336	; 0x3800
 8001432:	687b      	ldr	r3, [r7, #4]
 8001434:	691b      	ldr	r3, [r3, #16]
 8001436:	00db      	lsls	r3, r3, #3
 8001438:	490e      	ldr	r1, [pc, #56]	; (8001474 <HAL_RCC_ClockConfig+0x1c4>)
 800143a:	4313      	orrs	r3, r2
 800143c:	604b      	str	r3, [r1, #4]
  }

  /* Update the SystemCoreClock global variable */
  SystemCoreClock = HAL_RCC_GetSysClockFreq() >> AHBPrescTable[(RCC->CFGR & RCC_CFGR_HPRE) >> RCC_CFGR_HPRE_Pos];
 800143e:	f000 f821 	bl	8001484 <HAL_RCC_GetSysClockFreq>
 8001442:	4601      	mov	r1, r0
 8001444:	4b0b      	ldr	r3, [pc, #44]	; (8001474 <HAL_RCC_ClockConfig+0x1c4>)
 8001446:	685b      	ldr	r3, [r3, #4]
 8001448:	091b      	lsrs	r3, r3, #4
 800144a:	f003 030f 	and.w	r3, r3, #15
 800144e:	4a0a      	ldr	r2, [pc, #40]	; (8001478 <HAL_RCC_ClockConfig+0x1c8>)
 8001450:	5cd3      	ldrb	r3, [r2, r3]
 8001452:	fa21 f303 	lsr.w	r3, r1, r3
 8001456:	4a09      	ldr	r2, [pc, #36]	; (800147c <HAL_RCC_ClockConfig+0x1cc>)
 8001458:	6013      	str	r3, [r2, #0]

  /* Configure the source of time base considering new system clocks settings*/
  HAL_InitTick(uwTickPrio);
 800145a:	4b09      	ldr	r3, [pc, #36]	; (8001480 <HAL_RCC_ClockConfig+0x1d0>)
 800145c:	681b      	ldr	r3, [r3, #0]
 800145e:	4618      	mov	r0, r3
 8001460:	f7ff f97e 	bl	8000760 <HAL_InitTick>

  return HAL_OK;
 8001464:	2300      	movs	r3, #0
}
 8001466:	4618      	mov	r0, r3
 8001468:	3710      	adds	r7, #16
 800146a:	46bd      	mov	sp, r7
 800146c:	bd80      	pop	{r7, pc}
 800146e:	bf00      	nop
 8001470:	40022000 	.word	0x40022000
 8001474:	40021000 	.word	0x40021000
 8001478:	08002ab0 	.word	0x08002ab0
 800147c:	20000000 	.word	0x20000000
 8001480:	20000004 	.word	0x20000004

08001484 <HAL_RCC_GetSysClockFreq>:
  *         right SYSCLK value. Otherwise, any configuration based on this function will be incorrect.
  *
  * @retval SYSCLK frequency
  */
uint32_t HAL_RCC_GetSysClockFreq(void)
{
 8001484:	b490      	push	{r4, r7}
 8001486:	b08a      	sub	sp, #40	; 0x28
 8001488:	af00      	add	r7, sp, #0
#if defined(RCC_CFGR2_PREDIV1SRC)
  const uint8_t aPLLMULFactorTable[14] = {0, 0, 4, 5, 6, 7, 8, 9, 0, 0, 0, 0, 0, 13};
  const uint8_t aPredivFactorTable[16] = {1, 2, 3, 4, 5, 6, 7, 8, 9, 10, 11, 12, 13, 14, 15, 16};
#else
  const uint8_t aPLLMULFactorTable[16] = {2, 3, 4, 5, 6, 7, 8, 9, 10, 11, 12, 13, 14, 15, 16, 16};
 800148a:	4b2a      	ldr	r3, [pc, #168]	; (8001534 <HAL_RCC_GetSysClockFreq+0xb0>)
 800148c:	1d3c      	adds	r4, r7, #4
 800148e:	cb0f      	ldmia	r3, {r0, r1, r2, r3}
 8001490:	e884 000f 	stmia.w	r4, {r0, r1, r2, r3}
#if defined(RCC_CFGR2_PREDIV1)
  const uint8_t aPredivFactorTable[16] = {1, 2, 3, 4, 5, 6, 7, 8, 9, 10, 11, 12, 13, 14, 15, 16};
#else
  const uint8_t aPredivFactorTable[2] = {1, 2};
 8001494:	4b28      	ldr	r3, [pc, #160]	; (8001538 <HAL_RCC_GetSysClockFreq+0xb4>)
 8001496:	881b      	ldrh	r3, [r3, #0]
 8001498:	803b      	strh	r3, [r7, #0]
#endif /*RCC_CFGR2_PREDIV1*/

#endif
  uint32_t tmpreg = 0U, prediv = 0U, pllclk = 0U, pllmul = 0U;
 800149a:	2300      	movs	r3, #0
 800149c:	61fb      	str	r3, [r7, #28]
 800149e:	2300      	movs	r3, #0
 80014a0:	61bb      	str	r3, [r7, #24]
 80014a2:	2300      	movs	r3, #0
 80014a4:	627b      	str	r3, [r7, #36]	; 0x24
 80014a6:	2300      	movs	r3, #0
 80014a8:	617b      	str	r3, [r7, #20]
  uint32_t sysclockfreq = 0U;
 80014aa:	2300      	movs	r3, #0
 80014ac:	623b      	str	r3, [r7, #32]
#if defined(RCC_CFGR2_PREDIV1SRC)
  uint32_t prediv2 = 0U, pll2mul = 0U;
#endif /*RCC_CFGR2_PREDIV1SRC*/

  tmpreg = RCC->CFGR;
 80014ae:	4b23      	ldr	r3, [pc, #140]	; (800153c <HAL_RCC_GetSysClockFreq+0xb8>)
 80014b0:	685b      	ldr	r3, [r3, #4]
 80014b2:	61fb      	str	r3, [r7, #28]

  /* Get SYSCLK source -------------------------------------------------------*/
  switch (tmpreg & RCC_CFGR_SWS)
 80014b4:	69fb      	ldr	r3, [r7, #28]
 80014b6:	f003 030c 	and.w	r3, r3, #12
 80014ba:	2b04      	cmp	r3, #4
 80014bc:	d002      	beq.n	80014c4 <HAL_RCC_GetSysClockFreq+0x40>
 80014be:	2b08      	cmp	r3, #8
 80014c0:	d003      	beq.n	80014ca <HAL_RCC_GetSysClockFreq+0x46>
 80014c2:	e02d      	b.n	8001520 <HAL_RCC_GetSysClockFreq+0x9c>
  {
    case RCC_SYSCLKSOURCE_STATUS_HSE:  /* HSE used as system clock */
    {
      sysclockfreq = HSE_VALUE;
 80014c4:	4b1e      	ldr	r3, [pc, #120]	; (8001540 <HAL_RCC_GetSysClockFreq+0xbc>)
 80014c6:	623b      	str	r3, [r7, #32]
      break;
 80014c8:	e02d      	b.n	8001526 <HAL_RCC_GetSysClockFreq+0xa2>
    }
    case RCC_SYSCLKSOURCE_STATUS_PLLCLK:  /* PLL used as system clock */
    {
      pllmul = aPLLMULFactorTable[(uint32_t)(tmpreg & RCC_CFGR_PLLMULL) >> RCC_CFGR_PLLMULL_Pos];
 80014ca:	69fb      	ldr	r3, [r7, #28]
 80014cc:	0c9b      	lsrs	r3, r3, #18
 80014ce:	f003 030f 	and.w	r3, r3, #15
 80014d2:	f107 0228 	add.w	r2, r7, #40	; 0x28
 80014d6:	4413      	add	r3, r2
 80014d8:	f813 3c24 	ldrb.w	r3, [r3, #-36]
 80014dc:	617b      	str	r3, [r7, #20]
      if ((tmpreg & RCC_CFGR_PLLSRC) != RCC_PLLSOURCE_HSI_DIV2)
 80014de:	69fb      	ldr	r3, [r7, #28]
 80014e0:	f403 3380 	and.w	r3, r3, #65536	; 0x10000
 80014e4:	2b00      	cmp	r3, #0
 80014e6:	d013      	beq.n	8001510 <HAL_RCC_GetSysClockFreq+0x8c>
      {
#if defined(RCC_CFGR2_PREDIV1)
        prediv = aPredivFactorTable[(uint32_t)(RCC->CFGR2 & RCC_CFGR2_PREDIV1) >> RCC_CFGR2_PREDIV1_Pos];
#else
        prediv = aPredivFactorTable[(uint32_t)(RCC->CFGR & RCC_CFGR_PLLXTPRE) >> RCC_CFGR_PLLXTPRE_Pos];
 80014e8:	4b14      	ldr	r3, [pc, #80]	; (800153c <HAL_RCC_GetSysClockFreq+0xb8>)
 80014ea:	685b      	ldr	r3, [r3, #4]
 80014ec:	0c5b      	lsrs	r3, r3, #17
 80014ee:	f003 0301 	and.w	r3, r3, #1
 80014f2:	f107 0228 	add.w	r2, r7, #40	; 0x28
 80014f6:	4413      	add	r3, r2
 80014f8:	f813 3c28 	ldrb.w	r3, [r3, #-40]
 80014fc:	61bb      	str	r3, [r7, #24]
        {
          pllclk = pllclk / 2;
        }
#else
        /* HSE used as PLL clock source : PLLCLK = HSE/PREDIV1 * PLLMUL */
        pllclk = (uint32_t)((HSE_VALUE  * pllmul) / prediv);
 80014fe:	697b      	ldr	r3, [r7, #20]
 8001500:	4a0f      	ldr	r2, [pc, #60]	; (8001540 <HAL_RCC_GetSysClockFreq+0xbc>)
 8001502:	fb02 f203 	mul.w	r2, r2, r3
 8001506:	69bb      	ldr	r3, [r7, #24]
 8001508:	fbb2 f3f3 	udiv	r3, r2, r3
 800150c:	627b      	str	r3, [r7, #36]	; 0x24
 800150e:	e004      	b.n	800151a <HAL_RCC_GetSysClockFreq+0x96>
#endif /*RCC_CFGR2_PREDIV1SRC*/
      }
      else
      {
        /* HSI used as PLL clock source : PLLCLK = HSI/2 * PLLMUL */
        pllclk = (uint32_t)((HSI_VALUE >> 1) * pllmul);
 8001510:	697b      	ldr	r3, [r7, #20]
 8001512:	4a0c      	ldr	r2, [pc, #48]	; (8001544 <HAL_RCC_GetSysClockFreq+0xc0>)
 8001514:	fb02 f303 	mul.w	r3, r2, r3
 8001518:	627b      	str	r3, [r7, #36]	; 0x24
      }
      sysclockfreq = pllclk;
 800151a:	6a7b      	ldr	r3, [r7, #36]	; 0x24
 800151c:	623b      	str	r3, [r7, #32]
      break;
 800151e:	e002      	b.n	8001526 <HAL_RCC_GetSysClockFreq+0xa2>
    }
    case RCC_SYSCLKSOURCE_STATUS_HSI:  /* HSI used as system clock source */
    default: /* HSI used as system clock */
    {
      sysclockfreq = HSI_VALUE;
 8001520:	4b07      	ldr	r3, [pc, #28]	; (8001540 <HAL_RCC_GetSysClockFreq+0xbc>)
 8001522:	623b      	str	r3, [r7, #32]
      break;
 8001524:	bf00      	nop
    }
  }
  return sysclockfreq;
 8001526:	6a3b      	ldr	r3, [r7, #32]
}
 8001528:	4618      	mov	r0, r3
 800152a:	3728      	adds	r7, #40	; 0x28
 800152c:	46bd      	mov	sp, r7
 800152e:	bc90      	pop	{r4, r7}
 8001530:	4770      	bx	lr
 8001532:	bf00      	nop
 8001534:	08002908 	.word	0x08002908
 8001538:	08002918 	.word	0x08002918
 800153c:	40021000 	.word	0x40021000
 8001540:	007a1200 	.word	0x007a1200
 8001544:	003d0900 	.word	0x003d0900

08001548 <HAL_RCC_GetHCLKFreq>:
  * @note   The SystemCoreClock CMSIS variable is used to store System Clock Frequency
  *         and updated within this function
  * @retval HCLK frequency
  */
uint32_t HAL_RCC_GetHCLKFreq(void)
{
 8001548:	b480      	push	{r7}
 800154a:	af00      	add	r7, sp, #0
  return SystemCoreClock;
 800154c:	4b02      	ldr	r3, [pc, #8]	; (8001558 <HAL_RCC_GetHCLKFreq+0x10>)
 800154e:	681b      	ldr	r3, [r3, #0]
}
 8001550:	4618      	mov	r0, r3
 8001552:	46bd      	mov	sp, r7
 8001554:	bc80      	pop	{r7}
 8001556:	4770      	bx	lr
 8001558:	20000000 	.word	0x20000000

0800155c <HAL_RCC_GetPCLK1Freq>:
  * @note   Each time PCLK1 changes, this function must be called to update the
  *         right PCLK1 value. Otherwise, any configuration based on this function will be incorrect.
  * @retval PCLK1 frequency
  */
uint32_t HAL_RCC_GetPCLK1Freq(void)
{
 800155c:	b580      	push	{r7, lr}
 800155e:	af00      	add	r7, sp, #0
  /* Get HCLK source and Compute PCLK1 frequency ---------------------------*/
  return (HAL_RCC_GetHCLKFreq() >> APBPrescTable[(RCC->CFGR & RCC_CFGR_PPRE1) >> RCC_CFGR_PPRE1_Pos]);
 8001560:	f7ff fff2 	bl	8001548 <HAL_RCC_GetHCLKFreq>
 8001564:	4601      	mov	r1, r0
 8001566:	4b05      	ldr	r3, [pc, #20]	; (800157c <HAL_RCC_GetPCLK1Freq+0x20>)
 8001568:	685b      	ldr	r3, [r3, #4]
 800156a:	0a1b      	lsrs	r3, r3, #8
 800156c:	f003 0307 	and.w	r3, r3, #7
 8001570:	4a03      	ldr	r2, [pc, #12]	; (8001580 <HAL_RCC_GetPCLK1Freq+0x24>)
 8001572:	5cd3      	ldrb	r3, [r2, r3]
 8001574:	fa21 f303 	lsr.w	r3, r1, r3
}
 8001578:	4618      	mov	r0, r3
 800157a:	bd80      	pop	{r7, pc}
 800157c:	40021000 	.word	0x40021000
 8001580:	08002ac0 	.word	0x08002ac0

08001584 <HAL_RCC_GetPCLK2Freq>:
  * @note   Each time PCLK2 changes, this function must be called to update the
  *         right PCLK2 value. Otherwise, any configuration based on this function will be incorrect.
  * @retval PCLK2 frequency
  */
uint32_t HAL_RCC_GetPCLK2Freq(void)
{
 8001584:	b580      	push	{r7, lr}
 8001586:	af00      	add	r7, sp, #0
  /* Get HCLK source and Compute PCLK2 frequency ---------------------------*/
  return (HAL_RCC_GetHCLKFreq() >> APBPrescTable[(RCC->CFGR & RCC_CFGR_PPRE2) >> RCC_CFGR_PPRE2_Pos]);
 8001588:	f7ff ffde 	bl	8001548 <HAL_RCC_GetHCLKFreq>
 800158c:	4601      	mov	r1, r0
 800158e:	4b05      	ldr	r3, [pc, #20]	; (80015a4 <HAL_RCC_GetPCLK2Freq+0x20>)
 8001590:	685b      	ldr	r3, [r3, #4]
 8001592:	0adb      	lsrs	r3, r3, #11
 8001594:	f003 0307 	and.w	r3, r3, #7
 8001598:	4a03      	ldr	r2, [pc, #12]	; (80015a8 <HAL_RCC_GetPCLK2Freq+0x24>)
 800159a:	5cd3      	ldrb	r3, [r2, r3]
 800159c:	fa21 f303 	lsr.w	r3, r1, r3
}
 80015a0:	4618      	mov	r0, r3
 80015a2:	bd80      	pop	{r7, pc}
 80015a4:	40021000 	.word	0x40021000
 80015a8:	08002ac0 	.word	0x08002ac0

080015ac <RCC_Delay>:
  * @brief  This function provides delay (in milliseconds) based on CPU cycles method.
  * @param  mdelay: specifies the delay time length, in milliseconds.
  * @retval None
  */
static void RCC_Delay(uint32_t mdelay)
{
 80015ac:	b480      	push	{r7}
 80015ae:	b085      	sub	sp, #20
 80015b0:	af00      	add	r7, sp, #0
 80015b2:	6078      	str	r0, [r7, #4]
  __IO uint32_t Delay = mdelay * (SystemCoreClock / 8U / 1000U);
 80015b4:	4b0a      	ldr	r3, [pc, #40]	; (80015e0 <RCC_Delay+0x34>)
 80015b6:	681b      	ldr	r3, [r3, #0]
 80015b8:	4a0a      	ldr	r2, [pc, #40]	; (80015e4 <RCC_Delay+0x38>)
 80015ba:	fba2 2303 	umull	r2, r3, r2, r3
 80015be:	0a5b      	lsrs	r3, r3, #9
 80015c0:	687a      	ldr	r2, [r7, #4]
 80015c2:	fb02 f303 	mul.w	r3, r2, r3
 80015c6:	60fb      	str	r3, [r7, #12]
  do
  {
    __NOP();
 80015c8:	bf00      	nop
  }
  while (Delay --);
 80015ca:	68fb      	ldr	r3, [r7, #12]
 80015cc:	1e5a      	subs	r2, r3, #1
 80015ce:	60fa      	str	r2, [r7, #12]
 80015d0:	2b00      	cmp	r3, #0
 80015d2:	d1f9      	bne.n	80015c8 <RCC_Delay+0x1c>
}
 80015d4:	bf00      	nop
 80015d6:	3714      	adds	r7, #20
 80015d8:	46bd      	mov	sp, r7
 80015da:	bc80      	pop	{r7}
 80015dc:	4770      	bx	lr
 80015de:	bf00      	nop
 80015e0:	20000000 	.word	0x20000000
 80015e4:	10624dd3 	.word	0x10624dd3

080015e8 <HAL_SPI_Init>:
  * @param  hspi pointer to a SPI_HandleTypeDef structure that contains
  *               the configuration information for SPI module.
  * @retval HAL status
  */
HAL_StatusTypeDef HAL_SPI_Init(SPI_HandleTypeDef *hspi)
{
 80015e8:	b580      	push	{r7, lr}
 80015ea:	b082      	sub	sp, #8
 80015ec:	af00      	add	r7, sp, #0
 80015ee:	6078      	str	r0, [r7, #4]
  /* Check the SPI handle allocation */
  if (hspi == NULL)
 80015f0:	687b      	ldr	r3, [r7, #4]
 80015f2:	2b00      	cmp	r3, #0
 80015f4:	d101      	bne.n	80015fa <HAL_SPI_Init+0x12>
  {
    return HAL_ERROR;
 80015f6:	2301      	movs	r3, #1
 80015f8:	e076      	b.n	80016e8 <HAL_SPI_Init+0x100>
  assert_param(IS_SPI_BAUDRATE_PRESCALER(hspi->Init.BaudRatePrescaler));
  assert_param(IS_SPI_FIRST_BIT(hspi->Init.FirstBit));
  /* TI mode is not supported on this device.
     TIMode parameter is mandatory equal to SPI_TIMODE_DISABLE */
  assert_param(IS_SPI_TIMODE(hspi->Init.TIMode));
  if (hspi->Init.TIMode == SPI_TIMODE_DISABLE)
 80015fa:	687b      	ldr	r3, [r7, #4]
 80015fc:	6a5b      	ldr	r3, [r3, #36]	; 0x24
 80015fe:	2b00      	cmp	r3, #0
 8001600:	d108      	bne.n	8001614 <HAL_SPI_Init+0x2c>
  {
    assert_param(IS_SPI_CPOL(hspi->Init.CLKPolarity));
    assert_param(IS_SPI_CPHA(hspi->Init.CLKPhase));

    if (hspi->Init.Mode == SPI_MODE_MASTER)
 8001602:	687b      	ldr	r3, [r7, #4]
 8001604:	685b      	ldr	r3, [r3, #4]
 8001606:	f5b3 7f82 	cmp.w	r3, #260	; 0x104
 800160a:	d009      	beq.n	8001620 <HAL_SPI_Init+0x38>
      assert_param(IS_SPI_BAUDRATE_PRESCALER(hspi->Init.BaudRatePrescaler));
    }
    else
    {
      /* Baudrate prescaler not use in Motoraola Slave mode. force to default value */
      hspi->Init.BaudRatePrescaler = SPI_BAUDRATEPRESCALER_2;
 800160c:	687b      	ldr	r3, [r7, #4]
 800160e:	2200      	movs	r2, #0
 8001610:	61da      	str	r2, [r3, #28]
 8001612:	e005      	b.n	8001620 <HAL_SPI_Init+0x38>
  else
  {
    assert_param(IS_SPI_BAUDRATE_PRESCALER(hspi->Init.BaudRatePrescaler));

    /* Force polarity and phase to TI protocaol requirements */
    hspi->Init.CLKPolarity = SPI_POLARITY_LOW;
 8001614:	687b      	ldr	r3, [r7, #4]
 8001616:	2200      	movs	r2, #0
 8001618:	611a      	str	r2, [r3, #16]
    hspi->Init.CLKPhase    = SPI_PHASE_1EDGE;
 800161a:	687b      	ldr	r3, [r7, #4]
 800161c:	2200      	movs	r2, #0
 800161e:	615a      	str	r2, [r3, #20]
  if (hspi->Init.CRCCalculation == SPI_CRCCALCULATION_ENABLE)
  {
    assert_param(IS_SPI_CRC_POLYNOMIAL(hspi->Init.CRCPolynomial));
  }
#else
  hspi->Init.CRCCalculation = SPI_CRCCALCULATION_DISABLE;
 8001620:	687b      	ldr	r3, [r7, #4]
 8001622:	2200      	movs	r2, #0
 8001624:	629a      	str	r2, [r3, #40]	; 0x28
#endif /* USE_SPI_CRC */

  if (hspi->State == HAL_SPI_STATE_RESET)
 8001626:	687b      	ldr	r3, [r7, #4]
 8001628:	f893 3051 	ldrb.w	r3, [r3, #81]	; 0x51
 800162c:	b2db      	uxtb	r3, r3
 800162e:	2b00      	cmp	r3, #0
 8001630:	d106      	bne.n	8001640 <HAL_SPI_Init+0x58>
  {
    /* Allocate lock resource and initialize it */
    hspi->Lock = HAL_UNLOCKED;
 8001632:	687b      	ldr	r3, [r7, #4]
 8001634:	2200      	movs	r2, #0
 8001636:	f883 2050 	strb.w	r2, [r3, #80]	; 0x50

    /* Init the low level hardware : GPIO, CLOCK, NVIC... */
    hspi->MspInitCallback(hspi);
#else
    /* Init the low level hardware : GPIO, CLOCK, NVIC... */
    HAL_SPI_MspInit(hspi);
 800163a:	6878      	ldr	r0, [r7, #4]
 800163c:	f7fe ff86 	bl	800054c <HAL_SPI_MspInit>
#endif /* USE_HAL_SPI_REGISTER_CALLBACKS */
  }

  hspi->State = HAL_SPI_STATE_BUSY;
 8001640:	687b      	ldr	r3, [r7, #4]
 8001642:	2202      	movs	r2, #2
 8001644:	f883 2051 	strb.w	r2, [r3, #81]	; 0x51

  /* Disable the selected SPI peripheral */
  __HAL_SPI_DISABLE(hspi);
 8001648:	687b      	ldr	r3, [r7, #4]
 800164a:	681b      	ldr	r3, [r3, #0]
 800164c:	681a      	ldr	r2, [r3, #0]
 800164e:	687b      	ldr	r3, [r7, #4]
 8001650:	681b      	ldr	r3, [r3, #0]
 8001652:	f022 0240 	bic.w	r2, r2, #64	; 0x40
 8001656:	601a      	str	r2, [r3, #0]

  /*----------------------- SPIx CR1 & CR2 Configuration ---------------------*/
  /* Configure : SPI Mode, Communication Mode, Data size, Clock polarity and phase, NSS management,
  Communication speed, First bit and CRC calculation state */
  WRITE_REG(hspi->Instance->CR1, ((hspi->Init.Mode & (SPI_CR1_MSTR | SPI_CR1_SSI)) |
 8001658:	687b      	ldr	r3, [r7, #4]
 800165a:	685b      	ldr	r3, [r3, #4]
 800165c:	f403 7282 	and.w	r2, r3, #260	; 0x104
 8001660:	687b      	ldr	r3, [r7, #4]
 8001662:	689b      	ldr	r3, [r3, #8]
 8001664:	f403 4304 	and.w	r3, r3, #33792	; 0x8400
 8001668:	431a      	orrs	r2, r3
 800166a:	687b      	ldr	r3, [r7, #4]
 800166c:	68db      	ldr	r3, [r3, #12]
 800166e:	f403 6300 	and.w	r3, r3, #2048	; 0x800
 8001672:	431a      	orrs	r2, r3
 8001674:	687b      	ldr	r3, [r7, #4]
 8001676:	691b      	ldr	r3, [r3, #16]
 8001678:	f003 0302 	and.w	r3, r3, #2
 800167c:	431a      	orrs	r2, r3
 800167e:	687b      	ldr	r3, [r7, #4]
 8001680:	695b      	ldr	r3, [r3, #20]
 8001682:	f003 0301 	and.w	r3, r3, #1
 8001686:	431a      	orrs	r2, r3
 8001688:	687b      	ldr	r3, [r7, #4]
 800168a:	699b      	ldr	r3, [r3, #24]
 800168c:	f403 7300 	and.w	r3, r3, #512	; 0x200
 8001690:	431a      	orrs	r2, r3
 8001692:	687b      	ldr	r3, [r7, #4]
 8001694:	69db      	ldr	r3, [r3, #28]
 8001696:	f003 0338 	and.w	r3, r3, #56	; 0x38
 800169a:	431a      	orrs	r2, r3
 800169c:	687b      	ldr	r3, [r7, #4]
 800169e:	6a1b      	ldr	r3, [r3, #32]
 80016a0:	f003 0380 	and.w	r3, r3, #128	; 0x80
 80016a4:	ea42 0103 	orr.w	r1, r2, r3
 80016a8:	687b      	ldr	r3, [r7, #4]
 80016aa:	6a9b      	ldr	r3, [r3, #40]	; 0x28
 80016ac:	f403 5200 	and.w	r2, r3, #8192	; 0x2000
 80016b0:	687b      	ldr	r3, [r7, #4]
 80016b2:	681b      	ldr	r3, [r3, #0]
 80016b4:	430a      	orrs	r2, r1
 80016b6:	601a      	str	r2, [r3, #0]
                                  (hspi->Init.BaudRatePrescaler & SPI_CR1_BR_Msk) |
                                  (hspi->Init.FirstBit  & SPI_CR1_LSBFIRST) |
                                  (hspi->Init.CRCCalculation & SPI_CR1_CRCEN)));

  /* Configure : NSS management */
  WRITE_REG(hspi->Instance->CR2, ((hspi->Init.NSS >> 16U) & SPI_CR2_SSOE));
 80016b8:	687b      	ldr	r3, [r7, #4]
 80016ba:	699b      	ldr	r3, [r3, #24]
 80016bc:	0c1a      	lsrs	r2, r3, #16
 80016be:	687b      	ldr	r3, [r7, #4]
 80016c0:	681b      	ldr	r3, [r3, #0]
 80016c2:	f002 0204 	and.w	r2, r2, #4
 80016c6:	605a      	str	r2, [r3, #4]
  }
#endif /* USE_SPI_CRC */

#if defined(SPI_I2SCFGR_I2SMOD)
  /* Activate the SPI mode (Make sure that I2SMOD bit in I2SCFGR register is reset) */
  CLEAR_BIT(hspi->Instance->I2SCFGR, SPI_I2SCFGR_I2SMOD);
 80016c8:	687b      	ldr	r3, [r7, #4]
 80016ca:	681b      	ldr	r3, [r3, #0]
 80016cc:	69da      	ldr	r2, [r3, #28]
 80016ce:	687b      	ldr	r3, [r7, #4]
 80016d0:	681b      	ldr	r3, [r3, #0]
 80016d2:	f422 6200 	bic.w	r2, r2, #2048	; 0x800
 80016d6:	61da      	str	r2, [r3, #28]
#endif /* SPI_I2SCFGR_I2SMOD */

  hspi->ErrorCode = HAL_SPI_ERROR_NONE;
 80016d8:	687b      	ldr	r3, [r7, #4]
 80016da:	2200      	movs	r2, #0
 80016dc:	655a      	str	r2, [r3, #84]	; 0x54
  hspi->State     = HAL_SPI_STATE_READY;
 80016de:	687b      	ldr	r3, [r7, #4]
 80016e0:	2201      	movs	r2, #1
 80016e2:	f883 2051 	strb.w	r2, [r3, #81]	; 0x51

  return HAL_OK;
 80016e6:	2300      	movs	r3, #0
}
 80016e8:	4618      	mov	r0, r3
 80016ea:	3708      	adds	r7, #8
 80016ec:	46bd      	mov	sp, r7
 80016ee:	bd80      	pop	{r7, pc}

080016f0 <HAL_SPI_Transmit>:
  * @param  Size amount of data to be sent
  * @param  Timeout Timeout duration
  * @retval HAL status
  */
HAL_StatusTypeDef HAL_SPI_Transmit(SPI_HandleTypeDef *hspi, uint8_t *pData, uint16_t Size, uint32_t Timeout)
{
 80016f0:	b580      	push	{r7, lr}
 80016f2:	b088      	sub	sp, #32
 80016f4:	af00      	add	r7, sp, #0
 80016f6:	60f8      	str	r0, [r7, #12]
 80016f8:	60b9      	str	r1, [r7, #8]
 80016fa:	603b      	str	r3, [r7, #0]
 80016fc:	4613      	mov	r3, r2
 80016fe:	80fb      	strh	r3, [r7, #6]
  uint32_t tickstart;
  HAL_StatusTypeDef errorcode = HAL_OK;
 8001700:	2300      	movs	r3, #0
 8001702:	77fb      	strb	r3, [r7, #31]

  /* Check Direction parameter */
  assert_param(IS_SPI_DIRECTION_2LINES_OR_1LINE(hspi->Init.Direction));

  /* Process Locked */
  __HAL_LOCK(hspi);
 8001704:	68fb      	ldr	r3, [r7, #12]
 8001706:	f893 3050 	ldrb.w	r3, [r3, #80]	; 0x50
 800170a:	2b01      	cmp	r3, #1
 800170c:	d101      	bne.n	8001712 <HAL_SPI_Transmit+0x22>
 800170e:	2302      	movs	r3, #2
 8001710:	e126      	b.n	8001960 <HAL_SPI_Transmit+0x270>
 8001712:	68fb      	ldr	r3, [r7, #12]
 8001714:	2201      	movs	r2, #1
 8001716:	f883 2050 	strb.w	r2, [r3, #80]	; 0x50

  /* Init tickstart for timeout management*/
  tickstart = HAL_GetTick();
 800171a:	f7ff f863 	bl	80007e4 <HAL_GetTick>
 800171e:	61b8      	str	r0, [r7, #24]
  initial_TxXferCount = Size;
 8001720:	88fb      	ldrh	r3, [r7, #6]
 8001722:	82fb      	strh	r3, [r7, #22]

  if (hspi->State != HAL_SPI_STATE_READY)
 8001724:	68fb      	ldr	r3, [r7, #12]
 8001726:	f893 3051 	ldrb.w	r3, [r3, #81]	; 0x51
 800172a:	b2db      	uxtb	r3, r3
 800172c:	2b01      	cmp	r3, #1
 800172e:	d002      	beq.n	8001736 <HAL_SPI_Transmit+0x46>
  {
    errorcode = HAL_BUSY;
 8001730:	2302      	movs	r3, #2
 8001732:	77fb      	strb	r3, [r7, #31]
    goto error;
 8001734:	e10b      	b.n	800194e <HAL_SPI_Transmit+0x25e>
  }

  if ((pData == NULL) || (Size == 0U))
 8001736:	68bb      	ldr	r3, [r7, #8]
 8001738:	2b00      	cmp	r3, #0
 800173a:	d002      	beq.n	8001742 <HAL_SPI_Transmit+0x52>
 800173c:	88fb      	ldrh	r3, [r7, #6]
 800173e:	2b00      	cmp	r3, #0
 8001740:	d102      	bne.n	8001748 <HAL_SPI_Transmit+0x58>
  {
    errorcode = HAL_ERROR;
 8001742:	2301      	movs	r3, #1
 8001744:	77fb      	strb	r3, [r7, #31]
    goto error;
 8001746:	e102      	b.n	800194e <HAL_SPI_Transmit+0x25e>
  }

  /* Set the transaction information */
  hspi->State       = HAL_SPI_STATE_BUSY_TX;
 8001748:	68fb      	ldr	r3, [r7, #12]
 800174a:	2203      	movs	r2, #3
 800174c:	f883 2051 	strb.w	r2, [r3, #81]	; 0x51
  hspi->ErrorCode   = HAL_SPI_ERROR_NONE;
 8001750:	68fb      	ldr	r3, [r7, #12]
 8001752:	2200      	movs	r2, #0
 8001754:	655a      	str	r2, [r3, #84]	; 0x54
  hspi->pTxBuffPtr  = (uint8_t *)pData;
 8001756:	68fb      	ldr	r3, [r7, #12]
 8001758:	68ba      	ldr	r2, [r7, #8]
 800175a:	631a      	str	r2, [r3, #48]	; 0x30
  hspi->TxXferSize  = Size;
 800175c:	68fb      	ldr	r3, [r7, #12]
 800175e:	88fa      	ldrh	r2, [r7, #6]
 8001760:	869a      	strh	r2, [r3, #52]	; 0x34
  hspi->TxXferCount = Size;
 8001762:	68fb      	ldr	r3, [r7, #12]
 8001764:	88fa      	ldrh	r2, [r7, #6]
 8001766:	86da      	strh	r2, [r3, #54]	; 0x36

  /*Init field not used in handle to zero */
  hspi->pRxBuffPtr  = (uint8_t *)NULL;
 8001768:	68fb      	ldr	r3, [r7, #12]
 800176a:	2200      	movs	r2, #0
 800176c:	639a      	str	r2, [r3, #56]	; 0x38
  hspi->RxXferSize  = 0U;
 800176e:	68fb      	ldr	r3, [r7, #12]
 8001770:	2200      	movs	r2, #0
 8001772:	879a      	strh	r2, [r3, #60]	; 0x3c
  hspi->RxXferCount = 0U;
 8001774:	68fb      	ldr	r3, [r7, #12]
 8001776:	2200      	movs	r2, #0
 8001778:	87da      	strh	r2, [r3, #62]	; 0x3e
  hspi->TxISR       = NULL;
 800177a:	68fb      	ldr	r3, [r7, #12]
 800177c:	2200      	movs	r2, #0
 800177e:	645a      	str	r2, [r3, #68]	; 0x44
  hspi->RxISR       = NULL;
 8001780:	68fb      	ldr	r3, [r7, #12]
 8001782:	2200      	movs	r2, #0
 8001784:	641a      	str	r2, [r3, #64]	; 0x40

  /* Configure communication direction : 1Line */
  if (hspi->Init.Direction == SPI_DIRECTION_1LINE)
 8001786:	68fb      	ldr	r3, [r7, #12]
 8001788:	689b      	ldr	r3, [r3, #8]
 800178a:	f5b3 4f00 	cmp.w	r3, #32768	; 0x8000
 800178e:	d10f      	bne.n	80017b0 <HAL_SPI_Transmit+0xc0>
  {
    /* Disable SPI Peripheral before set 1Line direction (BIDIOE bit) */
    __HAL_SPI_DISABLE(hspi);
 8001790:	68fb      	ldr	r3, [r7, #12]
 8001792:	681b      	ldr	r3, [r3, #0]
 8001794:	681a      	ldr	r2, [r3, #0]
 8001796:	68fb      	ldr	r3, [r7, #12]
 8001798:	681b      	ldr	r3, [r3, #0]
 800179a:	f022 0240 	bic.w	r2, r2, #64	; 0x40
 800179e:	601a      	str	r2, [r3, #0]
    SPI_1LINE_TX(hspi);
 80017a0:	68fb      	ldr	r3, [r7, #12]
 80017a2:	681b      	ldr	r3, [r3, #0]
 80017a4:	681a      	ldr	r2, [r3, #0]
 80017a6:	68fb      	ldr	r3, [r7, #12]
 80017a8:	681b      	ldr	r3, [r3, #0]
 80017aa:	f442 4280 	orr.w	r2, r2, #16384	; 0x4000
 80017ae:	601a      	str	r2, [r3, #0]
    SPI_RESET_CRC(hspi);
  }
#endif /* USE_SPI_CRC */

  /* Check if the SPI is already enabled */
  if ((hspi->Instance->CR1 & SPI_CR1_SPE) != SPI_CR1_SPE)
 80017b0:	68fb      	ldr	r3, [r7, #12]
 80017b2:	681b      	ldr	r3, [r3, #0]
 80017b4:	681b      	ldr	r3, [r3, #0]
 80017b6:	f003 0340 	and.w	r3, r3, #64	; 0x40
 80017ba:	2b40      	cmp	r3, #64	; 0x40
 80017bc:	d007      	beq.n	80017ce <HAL_SPI_Transmit+0xde>
  {
    /* Enable SPI peripheral */
    __HAL_SPI_ENABLE(hspi);
 80017be:	68fb      	ldr	r3, [r7, #12]
 80017c0:	681b      	ldr	r3, [r3, #0]
 80017c2:	681a      	ldr	r2, [r3, #0]
 80017c4:	68fb      	ldr	r3, [r7, #12]
 80017c6:	681b      	ldr	r3, [r3, #0]
 80017c8:	f042 0240 	orr.w	r2, r2, #64	; 0x40
 80017cc:	601a      	str	r2, [r3, #0]
  }

  /* Transmit data in 16 Bit mode */
  if (hspi->Init.DataSize == SPI_DATASIZE_16BIT)
 80017ce:	68fb      	ldr	r3, [r7, #12]
 80017d0:	68db      	ldr	r3, [r3, #12]
 80017d2:	f5b3 6f00 	cmp.w	r3, #2048	; 0x800
 80017d6:	d14b      	bne.n	8001870 <HAL_SPI_Transmit+0x180>
  {
    if ((hspi->Init.Mode == SPI_MODE_SLAVE) || (initial_TxXferCount == 0x01U))
 80017d8:	68fb      	ldr	r3, [r7, #12]
 80017da:	685b      	ldr	r3, [r3, #4]
 80017dc:	2b00      	cmp	r3, #0
 80017de:	d002      	beq.n	80017e6 <HAL_SPI_Transmit+0xf6>
 80017e0:	8afb      	ldrh	r3, [r7, #22]
 80017e2:	2b01      	cmp	r3, #1
 80017e4:	d13e      	bne.n	8001864 <HAL_SPI_Transmit+0x174>
    {
      hspi->Instance->DR = *((uint16_t *)hspi->pTxBuffPtr);
 80017e6:	68fb      	ldr	r3, [r7, #12]
 80017e8:	6b1b      	ldr	r3, [r3, #48]	; 0x30
 80017ea:	881a      	ldrh	r2, [r3, #0]
 80017ec:	68fb      	ldr	r3, [r7, #12]
 80017ee:	681b      	ldr	r3, [r3, #0]
 80017f0:	60da      	str	r2, [r3, #12]
      hspi->pTxBuffPtr += sizeof(uint16_t);
 80017f2:	68fb      	ldr	r3, [r7, #12]
 80017f4:	6b1b      	ldr	r3, [r3, #48]	; 0x30
 80017f6:	1c9a      	adds	r2, r3, #2
 80017f8:	68fb      	ldr	r3, [r7, #12]
 80017fa:	631a      	str	r2, [r3, #48]	; 0x30
      hspi->TxXferCount--;
 80017fc:	68fb      	ldr	r3, [r7, #12]
 80017fe:	8edb      	ldrh	r3, [r3, #54]	; 0x36
 8001800:	b29b      	uxth	r3, r3
 8001802:	3b01      	subs	r3, #1
 8001804:	b29a      	uxth	r2, r3
 8001806:	68fb      	ldr	r3, [r7, #12]
 8001808:	86da      	strh	r2, [r3, #54]	; 0x36
    }
    /* Transmit data in 16 Bit mode */
    while (hspi->TxXferCount > 0U)
 800180a:	e02b      	b.n	8001864 <HAL_SPI_Transmit+0x174>
    {
      /* Wait until TXE flag is set to send data */
      if (__HAL_SPI_GET_FLAG(hspi, SPI_FLAG_TXE))
 800180c:	68fb      	ldr	r3, [r7, #12]
 800180e:	681b      	ldr	r3, [r3, #0]
 8001810:	689b      	ldr	r3, [r3, #8]
 8001812:	f003 0302 	and.w	r3, r3, #2
 8001816:	2b02      	cmp	r3, #2
 8001818:	d112      	bne.n	8001840 <HAL_SPI_Transmit+0x150>
      {
        hspi->Instance->DR = *((uint16_t *)hspi->pTxBuffPtr);
 800181a:	68fb      	ldr	r3, [r7, #12]
 800181c:	6b1b      	ldr	r3, [r3, #48]	; 0x30
 800181e:	881a      	ldrh	r2, [r3, #0]
 8001820:	68fb      	ldr	r3, [r7, #12]
 8001822:	681b      	ldr	r3, [r3, #0]
 8001824:	60da      	str	r2, [r3, #12]
        hspi->pTxBuffPtr += sizeof(uint16_t);
 8001826:	68fb      	ldr	r3, [r7, #12]
 8001828:	6b1b      	ldr	r3, [r3, #48]	; 0x30
 800182a:	1c9a      	adds	r2, r3, #2
 800182c:	68fb      	ldr	r3, [r7, #12]
 800182e:	631a      	str	r2, [r3, #48]	; 0x30
        hspi->TxXferCount--;
 8001830:	68fb      	ldr	r3, [r7, #12]
 8001832:	8edb      	ldrh	r3, [r3, #54]	; 0x36
 8001834:	b29b      	uxth	r3, r3
 8001836:	3b01      	subs	r3, #1
 8001838:	b29a      	uxth	r2, r3
 800183a:	68fb      	ldr	r3, [r7, #12]
 800183c:	86da      	strh	r2, [r3, #54]	; 0x36
 800183e:	e011      	b.n	8001864 <HAL_SPI_Transmit+0x174>
      }
      else
      {
        /* Timeout management */
        if ((((HAL_GetTick() - tickstart) >=  Timeout) && (Timeout != HAL_MAX_DELAY)) || (Timeout == 0U))
 8001840:	f7fe ffd0 	bl	80007e4 <HAL_GetTick>
 8001844:	4602      	mov	r2, r0
 8001846:	69bb      	ldr	r3, [r7, #24]
 8001848:	1ad3      	subs	r3, r2, r3
 800184a:	683a      	ldr	r2, [r7, #0]
 800184c:	429a      	cmp	r2, r3
 800184e:	d803      	bhi.n	8001858 <HAL_SPI_Transmit+0x168>
 8001850:	683b      	ldr	r3, [r7, #0]
 8001852:	f1b3 3fff 	cmp.w	r3, #4294967295
 8001856:	d102      	bne.n	800185e <HAL_SPI_Transmit+0x16e>
 8001858:	683b      	ldr	r3, [r7, #0]
 800185a:	2b00      	cmp	r3, #0
 800185c:	d102      	bne.n	8001864 <HAL_SPI_Transmit+0x174>
        {
          errorcode = HAL_TIMEOUT;
 800185e:	2303      	movs	r3, #3
 8001860:	77fb      	strb	r3, [r7, #31]
          goto error;
 8001862:	e074      	b.n	800194e <HAL_SPI_Transmit+0x25e>
    while (hspi->TxXferCount > 0U)
 8001864:	68fb      	ldr	r3, [r7, #12]
 8001866:	8edb      	ldrh	r3, [r3, #54]	; 0x36
 8001868:	b29b      	uxth	r3, r3
 800186a:	2b00      	cmp	r3, #0
 800186c:	d1ce      	bne.n	800180c <HAL_SPI_Transmit+0x11c>
 800186e:	e04c      	b.n	800190a <HAL_SPI_Transmit+0x21a>
    }
  }
  /* Transmit data in 8 Bit mode */
  else
  {
    if ((hspi->Init.Mode == SPI_MODE_SLAVE) || (initial_TxXferCount == 0x01U))
 8001870:	68fb      	ldr	r3, [r7, #12]
 8001872:	685b      	ldr	r3, [r3, #4]
 8001874:	2b00      	cmp	r3, #0
 8001876:	d002      	beq.n	800187e <HAL_SPI_Transmit+0x18e>
 8001878:	8afb      	ldrh	r3, [r7, #22]
 800187a:	2b01      	cmp	r3, #1
 800187c:	d140      	bne.n	8001900 <HAL_SPI_Transmit+0x210>
    {
      *((__IO uint8_t *)&hspi->Instance->DR) = (*hspi->pTxBuffPtr);
 800187e:	68fb      	ldr	r3, [r7, #12]
 8001880:	6b1a      	ldr	r2, [r3, #48]	; 0x30
 8001882:	68fb      	ldr	r3, [r7, #12]
 8001884:	681b      	ldr	r3, [r3, #0]
 8001886:	330c      	adds	r3, #12
 8001888:	7812      	ldrb	r2, [r2, #0]
 800188a:	701a      	strb	r2, [r3, #0]
      hspi->pTxBuffPtr += sizeof(uint8_t);
 800188c:	68fb      	ldr	r3, [r7, #12]
 800188e:	6b1b      	ldr	r3, [r3, #48]	; 0x30
 8001890:	1c5a      	adds	r2, r3, #1
 8001892:	68fb      	ldr	r3, [r7, #12]
 8001894:	631a      	str	r2, [r3, #48]	; 0x30
      hspi->TxXferCount--;
 8001896:	68fb      	ldr	r3, [r7, #12]
 8001898:	8edb      	ldrh	r3, [r3, #54]	; 0x36
 800189a:	b29b      	uxth	r3, r3
 800189c:	3b01      	subs	r3, #1
 800189e:	b29a      	uxth	r2, r3
 80018a0:	68fb      	ldr	r3, [r7, #12]
 80018a2:	86da      	strh	r2, [r3, #54]	; 0x36
    }
    while (hspi->TxXferCount > 0U)
 80018a4:	e02c      	b.n	8001900 <HAL_SPI_Transmit+0x210>
    {
      /* Wait until TXE flag is set to send data */
      if (__HAL_SPI_GET_FLAG(hspi, SPI_FLAG_TXE))
 80018a6:	68fb      	ldr	r3, [r7, #12]
 80018a8:	681b      	ldr	r3, [r3, #0]
 80018aa:	689b      	ldr	r3, [r3, #8]
 80018ac:	f003 0302 	and.w	r3, r3, #2
 80018b0:	2b02      	cmp	r3, #2
 80018b2:	d113      	bne.n	80018dc <HAL_SPI_Transmit+0x1ec>
      {
        *((__IO uint8_t *)&hspi->Instance->DR) = (*hspi->pTxBuffPtr);
 80018b4:	68fb      	ldr	r3, [r7, #12]
 80018b6:	6b1a      	ldr	r2, [r3, #48]	; 0x30
 80018b8:	68fb      	ldr	r3, [r7, #12]
 80018ba:	681b      	ldr	r3, [r3, #0]
 80018bc:	330c      	adds	r3, #12
 80018be:	7812      	ldrb	r2, [r2, #0]
 80018c0:	701a      	strb	r2, [r3, #0]
        hspi->pTxBuffPtr += sizeof(uint8_t);
 80018c2:	68fb      	ldr	r3, [r7, #12]
 80018c4:	6b1b      	ldr	r3, [r3, #48]	; 0x30
 80018c6:	1c5a      	adds	r2, r3, #1
 80018c8:	68fb      	ldr	r3, [r7, #12]
 80018ca:	631a      	str	r2, [r3, #48]	; 0x30
        hspi->TxXferCount--;
 80018cc:	68fb      	ldr	r3, [r7, #12]
 80018ce:	8edb      	ldrh	r3, [r3, #54]	; 0x36
 80018d0:	b29b      	uxth	r3, r3
 80018d2:	3b01      	subs	r3, #1
 80018d4:	b29a      	uxth	r2, r3
 80018d6:	68fb      	ldr	r3, [r7, #12]
 80018d8:	86da      	strh	r2, [r3, #54]	; 0x36
 80018da:	e011      	b.n	8001900 <HAL_SPI_Transmit+0x210>
      }
      else
      {
        /* Timeout management */
        if ((((HAL_GetTick() - tickstart) >=  Timeout) && (Timeout != HAL_MAX_DELAY)) || (Timeout == 0U))
 80018dc:	f7fe ff82 	bl	80007e4 <HAL_GetTick>
 80018e0:	4602      	mov	r2, r0
 80018e2:	69bb      	ldr	r3, [r7, #24]
 80018e4:	1ad3      	subs	r3, r2, r3
 80018e6:	683a      	ldr	r2, [r7, #0]
 80018e8:	429a      	cmp	r2, r3
 80018ea:	d803      	bhi.n	80018f4 <HAL_SPI_Transmit+0x204>
 80018ec:	683b      	ldr	r3, [r7, #0]
 80018ee:	f1b3 3fff 	cmp.w	r3, #4294967295
 80018f2:	d102      	bne.n	80018fa <HAL_SPI_Transmit+0x20a>
 80018f4:	683b      	ldr	r3, [r7, #0]
 80018f6:	2b00      	cmp	r3, #0
 80018f8:	d102      	bne.n	8001900 <HAL_SPI_Transmit+0x210>
        {
          errorcode = HAL_TIMEOUT;
 80018fa:	2303      	movs	r3, #3
 80018fc:	77fb      	strb	r3, [r7, #31]
          goto error;
 80018fe:	e026      	b.n	800194e <HAL_SPI_Transmit+0x25e>
    while (hspi->TxXferCount > 0U)
 8001900:	68fb      	ldr	r3, [r7, #12]
 8001902:	8edb      	ldrh	r3, [r3, #54]	; 0x36
 8001904:	b29b      	uxth	r3, r3
 8001906:	2b00      	cmp	r3, #0
 8001908:	d1cd      	bne.n	80018a6 <HAL_SPI_Transmit+0x1b6>
    SET_BIT(hspi->Instance->CR1, SPI_CR1_CRCNEXT);
  }
#endif /* USE_SPI_CRC */

  /* Check the end of the transaction */
  if (SPI_EndRxTxTransaction(hspi, Timeout, tickstart) != HAL_OK)
 800190a:	69ba      	ldr	r2, [r7, #24]
 800190c:	6839      	ldr	r1, [r7, #0]
 800190e:	68f8      	ldr	r0, [r7, #12]
 8001910:	f000 fbb8 	bl	8002084 <SPI_EndRxTxTransaction>
 8001914:	4603      	mov	r3, r0
 8001916:	2b00      	cmp	r3, #0
 8001918:	d002      	beq.n	8001920 <HAL_SPI_Transmit+0x230>
  {
    hspi->ErrorCode = HAL_SPI_ERROR_FLAG;
 800191a:	68fb      	ldr	r3, [r7, #12]
 800191c:	2220      	movs	r2, #32
 800191e:	655a      	str	r2, [r3, #84]	; 0x54
  }

  /* Clear overrun flag in 2 Lines communication mode because received is not read */
  if (hspi->Init.Direction == SPI_DIRECTION_2LINES)
 8001920:	68fb      	ldr	r3, [r7, #12]
 8001922:	689b      	ldr	r3, [r3, #8]
 8001924:	2b00      	cmp	r3, #0
 8001926:	d10a      	bne.n	800193e <HAL_SPI_Transmit+0x24e>
  {
    __HAL_SPI_CLEAR_OVRFLAG(hspi);
 8001928:	2300      	movs	r3, #0
 800192a:	613b      	str	r3, [r7, #16]
 800192c:	68fb      	ldr	r3, [r7, #12]
 800192e:	681b      	ldr	r3, [r3, #0]
 8001930:	68db      	ldr	r3, [r3, #12]
 8001932:	613b      	str	r3, [r7, #16]
 8001934:	68fb      	ldr	r3, [r7, #12]
 8001936:	681b      	ldr	r3, [r3, #0]
 8001938:	689b      	ldr	r3, [r3, #8]
 800193a:	613b      	str	r3, [r7, #16]
 800193c:	693b      	ldr	r3, [r7, #16]
  }

  if (hspi->ErrorCode != HAL_SPI_ERROR_NONE)
 800193e:	68fb      	ldr	r3, [r7, #12]
 8001940:	6d5b      	ldr	r3, [r3, #84]	; 0x54
 8001942:	2b00      	cmp	r3, #0
 8001944:	d002      	beq.n	800194c <HAL_SPI_Transmit+0x25c>
  {
    errorcode = HAL_ERROR;
 8001946:	2301      	movs	r3, #1
 8001948:	77fb      	strb	r3, [r7, #31]
 800194a:	e000      	b.n	800194e <HAL_SPI_Transmit+0x25e>
  }

error:
 800194c:	bf00      	nop
  hspi->State = HAL_SPI_STATE_READY;
 800194e:	68fb      	ldr	r3, [r7, #12]
 8001950:	2201      	movs	r2, #1
 8001952:	f883 2051 	strb.w	r2, [r3, #81]	; 0x51
  /* Process Unlocked */
  __HAL_UNLOCK(hspi);
 8001956:	68fb      	ldr	r3, [r7, #12]
 8001958:	2200      	movs	r2, #0
 800195a:	f883 2050 	strb.w	r2, [r3, #80]	; 0x50
  return errorcode;
 800195e:	7ffb      	ldrb	r3, [r7, #31]
}
 8001960:	4618      	mov	r0, r3
 8001962:	3720      	adds	r7, #32
 8001964:	46bd      	mov	sp, r7
 8001966:	bd80      	pop	{r7, pc}

08001968 <HAL_SPI_Receive>:
  * @param  Size amount of data to be received
  * @param  Timeout Timeout duration
  * @retval HAL status
  */
HAL_StatusTypeDef HAL_SPI_Receive(SPI_HandleTypeDef *hspi, uint8_t *pData, uint16_t Size, uint32_t Timeout)
{
 8001968:	b580      	push	{r7, lr}
 800196a:	b088      	sub	sp, #32
 800196c:	af02      	add	r7, sp, #8
 800196e:	60f8      	str	r0, [r7, #12]
 8001970:	60b9      	str	r1, [r7, #8]
 8001972:	603b      	str	r3, [r7, #0]
 8001974:	4613      	mov	r3, r2
 8001976:	80fb      	strh	r3, [r7, #6]
#if (USE_SPI_CRC != 0U)
  __IO uint32_t tmpreg = 0U;
#endif /* USE_SPI_CRC */
  uint32_t tickstart;
  HAL_StatusTypeDef errorcode = HAL_OK;
 8001978:	2300      	movs	r3, #0
 800197a:	75fb      	strb	r3, [r7, #23]

  if ((hspi->Init.Mode == SPI_MODE_MASTER) && (hspi->Init.Direction == SPI_DIRECTION_2LINES))
 800197c:	68fb      	ldr	r3, [r7, #12]
 800197e:	685b      	ldr	r3, [r3, #4]
 8001980:	f5b3 7f82 	cmp.w	r3, #260	; 0x104
 8001984:	d112      	bne.n	80019ac <HAL_SPI_Receive+0x44>
 8001986:	68fb      	ldr	r3, [r7, #12]
 8001988:	689b      	ldr	r3, [r3, #8]
 800198a:	2b00      	cmp	r3, #0
 800198c:	d10e      	bne.n	80019ac <HAL_SPI_Receive+0x44>
  {
    hspi->State = HAL_SPI_STATE_BUSY_RX;
 800198e:	68fb      	ldr	r3, [r7, #12]
 8001990:	2204      	movs	r2, #4
 8001992:	f883 2051 	strb.w	r2, [r3, #81]	; 0x51
    /* Call transmit-receive function to send Dummy data on Tx line and generate clock on CLK line */
    return HAL_SPI_TransmitReceive(hspi, pData, pData, Size, Timeout);
 8001996:	88fa      	ldrh	r2, [r7, #6]
 8001998:	683b      	ldr	r3, [r7, #0]
 800199a:	9300      	str	r3, [sp, #0]
 800199c:	4613      	mov	r3, r2
 800199e:	68ba      	ldr	r2, [r7, #8]
 80019a0:	68b9      	ldr	r1, [r7, #8]
 80019a2:	68f8      	ldr	r0, [r7, #12]
 80019a4:	f000 f8f1 	bl	8001b8a <HAL_SPI_TransmitReceive>
 80019a8:	4603      	mov	r3, r0
 80019aa:	e0ea      	b.n	8001b82 <HAL_SPI_Receive+0x21a>
  }

  /* Process Locked */
  __HAL_LOCK(hspi);
 80019ac:	68fb      	ldr	r3, [r7, #12]
 80019ae:	f893 3050 	ldrb.w	r3, [r3, #80]	; 0x50
 80019b2:	2b01      	cmp	r3, #1
 80019b4:	d101      	bne.n	80019ba <HAL_SPI_Receive+0x52>
 80019b6:	2302      	movs	r3, #2
 80019b8:	e0e3      	b.n	8001b82 <HAL_SPI_Receive+0x21a>
 80019ba:	68fb      	ldr	r3, [r7, #12]
 80019bc:	2201      	movs	r2, #1
 80019be:	f883 2050 	strb.w	r2, [r3, #80]	; 0x50

  /* Init tickstart for timeout management*/
  tickstart = HAL_GetTick();
 80019c2:	f7fe ff0f 	bl	80007e4 <HAL_GetTick>
 80019c6:	6138      	str	r0, [r7, #16]

  if (hspi->State != HAL_SPI_STATE_READY)
 80019c8:	68fb      	ldr	r3, [r7, #12]
 80019ca:	f893 3051 	ldrb.w	r3, [r3, #81]	; 0x51
 80019ce:	b2db      	uxtb	r3, r3
 80019d0:	2b01      	cmp	r3, #1
 80019d2:	d002      	beq.n	80019da <HAL_SPI_Receive+0x72>
  {
    errorcode = HAL_BUSY;
 80019d4:	2302      	movs	r3, #2
 80019d6:	75fb      	strb	r3, [r7, #23]
    goto error;
 80019d8:	e0ca      	b.n	8001b70 <HAL_SPI_Receive+0x208>
  }

  if ((pData == NULL) || (Size == 0U))
 80019da:	68bb      	ldr	r3, [r7, #8]
 80019dc:	2b00      	cmp	r3, #0
 80019de:	d002      	beq.n	80019e6 <HAL_SPI_Receive+0x7e>
 80019e0:	88fb      	ldrh	r3, [r7, #6]
 80019e2:	2b00      	cmp	r3, #0
 80019e4:	d102      	bne.n	80019ec <HAL_SPI_Receive+0x84>
  {
    errorcode = HAL_ERROR;
 80019e6:	2301      	movs	r3, #1
 80019e8:	75fb      	strb	r3, [r7, #23]
    goto error;
 80019ea:	e0c1      	b.n	8001b70 <HAL_SPI_Receive+0x208>
  }

  /* Set the transaction information */
  hspi->State       = HAL_SPI_STATE_BUSY_RX;
 80019ec:	68fb      	ldr	r3, [r7, #12]
 80019ee:	2204      	movs	r2, #4
 80019f0:	f883 2051 	strb.w	r2, [r3, #81]	; 0x51
  hspi->ErrorCode   = HAL_SPI_ERROR_NONE;
 80019f4:	68fb      	ldr	r3, [r7, #12]
 80019f6:	2200      	movs	r2, #0
 80019f8:	655a      	str	r2, [r3, #84]	; 0x54
  hspi->pRxBuffPtr  = (uint8_t *)pData;
 80019fa:	68fb      	ldr	r3, [r7, #12]
 80019fc:	68ba      	ldr	r2, [r7, #8]
 80019fe:	639a      	str	r2, [r3, #56]	; 0x38
  hspi->RxXferSize  = Size;
 8001a00:	68fb      	ldr	r3, [r7, #12]
 8001a02:	88fa      	ldrh	r2, [r7, #6]
 8001a04:	879a      	strh	r2, [r3, #60]	; 0x3c
  hspi->RxXferCount = Size;
 8001a06:	68fb      	ldr	r3, [r7, #12]
 8001a08:	88fa      	ldrh	r2, [r7, #6]
 8001a0a:	87da      	strh	r2, [r3, #62]	; 0x3e

  /*Init field not used in handle to zero */
  hspi->pTxBuffPtr  = (uint8_t *)NULL;
 8001a0c:	68fb      	ldr	r3, [r7, #12]
 8001a0e:	2200      	movs	r2, #0
 8001a10:	631a      	str	r2, [r3, #48]	; 0x30
  hspi->TxXferSize  = 0U;
 8001a12:	68fb      	ldr	r3, [r7, #12]
 8001a14:	2200      	movs	r2, #0
 8001a16:	869a      	strh	r2, [r3, #52]	; 0x34
  hspi->TxXferCount = 0U;
 8001a18:	68fb      	ldr	r3, [r7, #12]
 8001a1a:	2200      	movs	r2, #0
 8001a1c:	86da      	strh	r2, [r3, #54]	; 0x36
  hspi->RxISR       = NULL;
 8001a1e:	68fb      	ldr	r3, [r7, #12]
 8001a20:	2200      	movs	r2, #0
 8001a22:	641a      	str	r2, [r3, #64]	; 0x40
  hspi->TxISR       = NULL;
 8001a24:	68fb      	ldr	r3, [r7, #12]
 8001a26:	2200      	movs	r2, #0
 8001a28:	645a      	str	r2, [r3, #68]	; 0x44
    hspi->RxXferCount--;
  }
#endif /* USE_SPI_CRC */

  /* Configure communication direction: 1Line */
  if (hspi->Init.Direction == SPI_DIRECTION_1LINE)
 8001a2a:	68fb      	ldr	r3, [r7, #12]
 8001a2c:	689b      	ldr	r3, [r3, #8]
 8001a2e:	f5b3 4f00 	cmp.w	r3, #32768	; 0x8000
 8001a32:	d10f      	bne.n	8001a54 <HAL_SPI_Receive+0xec>
  {
    /* Disable SPI Peripheral before set 1Line direction (BIDIOE bit) */
    __HAL_SPI_DISABLE(hspi);
 8001a34:	68fb      	ldr	r3, [r7, #12]
 8001a36:	681b      	ldr	r3, [r3, #0]
 8001a38:	681a      	ldr	r2, [r3, #0]
 8001a3a:	68fb      	ldr	r3, [r7, #12]
 8001a3c:	681b      	ldr	r3, [r3, #0]
 8001a3e:	f022 0240 	bic.w	r2, r2, #64	; 0x40
 8001a42:	601a      	str	r2, [r3, #0]
    SPI_1LINE_RX(hspi);
 8001a44:	68fb      	ldr	r3, [r7, #12]
 8001a46:	681b      	ldr	r3, [r3, #0]
 8001a48:	681a      	ldr	r2, [r3, #0]
 8001a4a:	68fb      	ldr	r3, [r7, #12]
 8001a4c:	681b      	ldr	r3, [r3, #0]
 8001a4e:	f422 4280 	bic.w	r2, r2, #16384	; 0x4000
 8001a52:	601a      	str	r2, [r3, #0]
  }

  /* Check if the SPI is already enabled */
  if ((hspi->Instance->CR1 & SPI_CR1_SPE) != SPI_CR1_SPE)
 8001a54:	68fb      	ldr	r3, [r7, #12]
 8001a56:	681b      	ldr	r3, [r3, #0]
 8001a58:	681b      	ldr	r3, [r3, #0]
 8001a5a:	f003 0340 	and.w	r3, r3, #64	; 0x40
 8001a5e:	2b40      	cmp	r3, #64	; 0x40
 8001a60:	d007      	beq.n	8001a72 <HAL_SPI_Receive+0x10a>
  {
    /* Enable SPI peripheral */
    __HAL_SPI_ENABLE(hspi);
 8001a62:	68fb      	ldr	r3, [r7, #12]
 8001a64:	681b      	ldr	r3, [r3, #0]
 8001a66:	681a      	ldr	r2, [r3, #0]
 8001a68:	68fb      	ldr	r3, [r7, #12]
 8001a6a:	681b      	ldr	r3, [r3, #0]
 8001a6c:	f042 0240 	orr.w	r2, r2, #64	; 0x40
 8001a70:	601a      	str	r2, [r3, #0]
  }

  /* Receive data in 8 Bit mode */
  if (hspi->Init.DataSize == SPI_DATASIZE_8BIT)
 8001a72:	68fb      	ldr	r3, [r7, #12]
 8001a74:	68db      	ldr	r3, [r3, #12]
 8001a76:	2b00      	cmp	r3, #0
 8001a78:	d162      	bne.n	8001b40 <HAL_SPI_Receive+0x1d8>
  {
    /* Transfer loop */
    while (hspi->RxXferCount > 0U)
 8001a7a:	e02e      	b.n	8001ada <HAL_SPI_Receive+0x172>
    {
      /* Check the RXNE flag */
      if (__HAL_SPI_GET_FLAG(hspi, SPI_FLAG_RXNE))
 8001a7c:	68fb      	ldr	r3, [r7, #12]
 8001a7e:	681b      	ldr	r3, [r3, #0]
 8001a80:	689b      	ldr	r3, [r3, #8]
 8001a82:	f003 0301 	and.w	r3, r3, #1
 8001a86:	2b01      	cmp	r3, #1
 8001a88:	d115      	bne.n	8001ab6 <HAL_SPI_Receive+0x14e>
      {
        /* read the received data */
        (* (uint8_t *)hspi->pRxBuffPtr) = *(__IO uint8_t *)&hspi->Instance->DR;
 8001a8a:	68fb      	ldr	r3, [r7, #12]
 8001a8c:	681b      	ldr	r3, [r3, #0]
 8001a8e:	f103 020c 	add.w	r2, r3, #12
 8001a92:	68fb      	ldr	r3, [r7, #12]
 8001a94:	6b9b      	ldr	r3, [r3, #56]	; 0x38
 8001a96:	7812      	ldrb	r2, [r2, #0]
 8001a98:	b2d2      	uxtb	r2, r2
 8001a9a:	701a      	strb	r2, [r3, #0]
        hspi->pRxBuffPtr += sizeof(uint8_t);
 8001a9c:	68fb      	ldr	r3, [r7, #12]
 8001a9e:	6b9b      	ldr	r3, [r3, #56]	; 0x38
 8001aa0:	1c5a      	adds	r2, r3, #1
 8001aa2:	68fb      	ldr	r3, [r7, #12]
 8001aa4:	639a      	str	r2, [r3, #56]	; 0x38
        hspi->RxXferCount--;
 8001aa6:	68fb      	ldr	r3, [r7, #12]
 8001aa8:	8fdb      	ldrh	r3, [r3, #62]	; 0x3e
 8001aaa:	b29b      	uxth	r3, r3
 8001aac:	3b01      	subs	r3, #1
 8001aae:	b29a      	uxth	r2, r3
 8001ab0:	68fb      	ldr	r3, [r7, #12]
 8001ab2:	87da      	strh	r2, [r3, #62]	; 0x3e
 8001ab4:	e011      	b.n	8001ada <HAL_SPI_Receive+0x172>
      }
      else
      {
        /* Timeout management */
        if ((((HAL_GetTick() - tickstart) >=  Timeout) && (Timeout != HAL_MAX_DELAY)) || (Timeout == 0U))
 8001ab6:	f7fe fe95 	bl	80007e4 <HAL_GetTick>
 8001aba:	4602      	mov	r2, r0
 8001abc:	693b      	ldr	r3, [r7, #16]
 8001abe:	1ad3      	subs	r3, r2, r3
 8001ac0:	683a      	ldr	r2, [r7, #0]
 8001ac2:	429a      	cmp	r2, r3
 8001ac4:	d803      	bhi.n	8001ace <HAL_SPI_Receive+0x166>
 8001ac6:	683b      	ldr	r3, [r7, #0]
 8001ac8:	f1b3 3fff 	cmp.w	r3, #4294967295
 8001acc:	d102      	bne.n	8001ad4 <HAL_SPI_Receive+0x16c>
 8001ace:	683b      	ldr	r3, [r7, #0]
 8001ad0:	2b00      	cmp	r3, #0
 8001ad2:	d102      	bne.n	8001ada <HAL_SPI_Receive+0x172>
        {
          errorcode = HAL_TIMEOUT;
 8001ad4:	2303      	movs	r3, #3
 8001ad6:	75fb      	strb	r3, [r7, #23]
          goto error;
 8001ad8:	e04a      	b.n	8001b70 <HAL_SPI_Receive+0x208>
    while (hspi->RxXferCount > 0U)
 8001ada:	68fb      	ldr	r3, [r7, #12]
 8001adc:	8fdb      	ldrh	r3, [r3, #62]	; 0x3e
 8001ade:	b29b      	uxth	r3, r3
 8001ae0:	2b00      	cmp	r3, #0
 8001ae2:	d1cb      	bne.n	8001a7c <HAL_SPI_Receive+0x114>
 8001ae4:	e031      	b.n	8001b4a <HAL_SPI_Receive+0x1e2>
  {
    /* Transfer loop */
    while (hspi->RxXferCount > 0U)
    {
      /* Check the RXNE flag */
      if (__HAL_SPI_GET_FLAG(hspi, SPI_FLAG_RXNE))
 8001ae6:	68fb      	ldr	r3, [r7, #12]
 8001ae8:	681b      	ldr	r3, [r3, #0]
 8001aea:	689b      	ldr	r3, [r3, #8]
 8001aec:	f003 0301 	and.w	r3, r3, #1
 8001af0:	2b01      	cmp	r3, #1
 8001af2:	d113      	bne.n	8001b1c <HAL_SPI_Receive+0x1b4>
      {
        *((uint16_t *)hspi->pRxBuffPtr) = (uint16_t)hspi->Instance->DR;
 8001af4:	68fb      	ldr	r3, [r7, #12]
 8001af6:	681b      	ldr	r3, [r3, #0]
 8001af8:	68da      	ldr	r2, [r3, #12]
 8001afa:	68fb      	ldr	r3, [r7, #12]
 8001afc:	6b9b      	ldr	r3, [r3, #56]	; 0x38
 8001afe:	b292      	uxth	r2, r2
 8001b00:	801a      	strh	r2, [r3, #0]
        hspi->pRxBuffPtr += sizeof(uint16_t);
 8001b02:	68fb      	ldr	r3, [r7, #12]
 8001b04:	6b9b      	ldr	r3, [r3, #56]	; 0x38
 8001b06:	1c9a      	adds	r2, r3, #2
 8001b08:	68fb      	ldr	r3, [r7, #12]
 8001b0a:	639a      	str	r2, [r3, #56]	; 0x38
        hspi->RxXferCount--;
 8001b0c:	68fb      	ldr	r3, [r7, #12]
 8001b0e:	8fdb      	ldrh	r3, [r3, #62]	; 0x3e
 8001b10:	b29b      	uxth	r3, r3
 8001b12:	3b01      	subs	r3, #1
 8001b14:	b29a      	uxth	r2, r3
 8001b16:	68fb      	ldr	r3, [r7, #12]
 8001b18:	87da      	strh	r2, [r3, #62]	; 0x3e
 8001b1a:	e011      	b.n	8001b40 <HAL_SPI_Receive+0x1d8>
      }
      else
      {
        /* Timeout management */
        if ((((HAL_GetTick() - tickstart) >=  Timeout) && (Timeout != HAL_MAX_DELAY)) || (Timeout == 0U))
 8001b1c:	f7fe fe62 	bl	80007e4 <HAL_GetTick>
 8001b20:	4602      	mov	r2, r0
 8001b22:	693b      	ldr	r3, [r7, #16]
 8001b24:	1ad3      	subs	r3, r2, r3
 8001b26:	683a      	ldr	r2, [r7, #0]
 8001b28:	429a      	cmp	r2, r3
 8001b2a:	d803      	bhi.n	8001b34 <HAL_SPI_Receive+0x1cc>
 8001b2c:	683b      	ldr	r3, [r7, #0]
 8001b2e:	f1b3 3fff 	cmp.w	r3, #4294967295
 8001b32:	d102      	bne.n	8001b3a <HAL_SPI_Receive+0x1d2>
 8001b34:	683b      	ldr	r3, [r7, #0]
 8001b36:	2b00      	cmp	r3, #0
 8001b38:	d102      	bne.n	8001b40 <HAL_SPI_Receive+0x1d8>
        {
          errorcode = HAL_TIMEOUT;
 8001b3a:	2303      	movs	r3, #3
 8001b3c:	75fb      	strb	r3, [r7, #23]
          goto error;
 8001b3e:	e017      	b.n	8001b70 <HAL_SPI_Receive+0x208>
    while (hspi->RxXferCount > 0U)
 8001b40:	68fb      	ldr	r3, [r7, #12]
 8001b42:	8fdb      	ldrh	r3, [r3, #62]	; 0x3e
 8001b44:	b29b      	uxth	r3, r3
 8001b46:	2b00      	cmp	r3, #0
 8001b48:	d1cd      	bne.n	8001ae6 <HAL_SPI_Receive+0x17e>
    UNUSED(tmpreg);
  }
#endif /* USE_SPI_CRC */

  /* Check the end of the transaction */
  if (SPI_EndRxTransaction(hspi, Timeout, tickstart) != HAL_OK)
 8001b4a:	693a      	ldr	r2, [r7, #16]
 8001b4c:	6839      	ldr	r1, [r7, #0]
 8001b4e:	68f8      	ldr	r0, [r7, #12]
 8001b50:	f000 fa46 	bl	8001fe0 <SPI_EndRxTransaction>
 8001b54:	4603      	mov	r3, r0
 8001b56:	2b00      	cmp	r3, #0
 8001b58:	d002      	beq.n	8001b60 <HAL_SPI_Receive+0x1f8>
  {
    hspi->ErrorCode = HAL_SPI_ERROR_FLAG;
 8001b5a:	68fb      	ldr	r3, [r7, #12]
 8001b5c:	2220      	movs	r2, #32
 8001b5e:	655a      	str	r2, [r3, #84]	; 0x54
      __HAL_SPI_CLEAR_CRCERRFLAG(hspi);
    }
  }
#endif /* USE_SPI_CRC */

  if (hspi->ErrorCode != HAL_SPI_ERROR_NONE)
 8001b60:	68fb      	ldr	r3, [r7, #12]
 8001b62:	6d5b      	ldr	r3, [r3, #84]	; 0x54
 8001b64:	2b00      	cmp	r3, #0
 8001b66:	d002      	beq.n	8001b6e <HAL_SPI_Receive+0x206>
  {
    errorcode = HAL_ERROR;
 8001b68:	2301      	movs	r3, #1
 8001b6a:	75fb      	strb	r3, [r7, #23]
 8001b6c:	e000      	b.n	8001b70 <HAL_SPI_Receive+0x208>
  }

error :
 8001b6e:	bf00      	nop
  hspi->State = HAL_SPI_STATE_READY;
 8001b70:	68fb      	ldr	r3, [r7, #12]
 8001b72:	2201      	movs	r2, #1
 8001b74:	f883 2051 	strb.w	r2, [r3, #81]	; 0x51
  __HAL_UNLOCK(hspi);
 8001b78:	68fb      	ldr	r3, [r7, #12]
 8001b7a:	2200      	movs	r2, #0
 8001b7c:	f883 2050 	strb.w	r2, [r3, #80]	; 0x50
  return errorcode;
 8001b80:	7dfb      	ldrb	r3, [r7, #23]
}
 8001b82:	4618      	mov	r0, r3
 8001b84:	3718      	adds	r7, #24
 8001b86:	46bd      	mov	sp, r7
 8001b88:	bd80      	pop	{r7, pc}

08001b8a <HAL_SPI_TransmitReceive>:
  * @param  Timeout Timeout duration
  * @retval HAL status
  */
HAL_StatusTypeDef HAL_SPI_TransmitReceive(SPI_HandleTypeDef *hspi, uint8_t *pTxData, uint8_t *pRxData, uint16_t Size,
                                          uint32_t Timeout)
{
 8001b8a:	b580      	push	{r7, lr}
 8001b8c:	b08c      	sub	sp, #48	; 0x30
 8001b8e:	af00      	add	r7, sp, #0
 8001b90:	60f8      	str	r0, [r7, #12]
 8001b92:	60b9      	str	r1, [r7, #8]
 8001b94:	607a      	str	r2, [r7, #4]
 8001b96:	807b      	strh	r3, [r7, #2]
#if (USE_SPI_CRC != 0U)
  __IO uint32_t tmpreg = 0U;
#endif /* USE_SPI_CRC */

  /* Variable used to alternate Rx and Tx during transfer */
  uint32_t             txallowed = 1U;
 8001b98:	2301      	movs	r3, #1
 8001b9a:	62fb      	str	r3, [r7, #44]	; 0x2c
  HAL_StatusTypeDef    errorcode = HAL_OK;
 8001b9c:	2300      	movs	r3, #0
 8001b9e:	f887 302b 	strb.w	r3, [r7, #43]	; 0x2b

  /* Check Direction parameter */
  assert_param(IS_SPI_DIRECTION_2LINES(hspi->Init.Direction));

  /* Process Locked */
  __HAL_LOCK(hspi);
 8001ba2:	68fb      	ldr	r3, [r7, #12]
 8001ba4:	f893 3050 	ldrb.w	r3, [r3, #80]	; 0x50
 8001ba8:	2b01      	cmp	r3, #1
 8001baa:	d101      	bne.n	8001bb0 <HAL_SPI_TransmitReceive+0x26>
 8001bac:	2302      	movs	r3, #2
 8001bae:	e18a      	b.n	8001ec6 <HAL_SPI_TransmitReceive+0x33c>
 8001bb0:	68fb      	ldr	r3, [r7, #12]
 8001bb2:	2201      	movs	r2, #1
 8001bb4:	f883 2050 	strb.w	r2, [r3, #80]	; 0x50

  /* Init tickstart for timeout management*/
  tickstart = HAL_GetTick();
 8001bb8:	f7fe fe14 	bl	80007e4 <HAL_GetTick>
 8001bbc:	6278      	str	r0, [r7, #36]	; 0x24

  /* Init temporary variables */
  tmp_state           = hspi->State;
 8001bbe:	68fb      	ldr	r3, [r7, #12]
 8001bc0:	f893 3051 	ldrb.w	r3, [r3, #81]	; 0x51
 8001bc4:	f887 3023 	strb.w	r3, [r7, #35]	; 0x23
  tmp_mode            = hspi->Init.Mode;
 8001bc8:	68fb      	ldr	r3, [r7, #12]
 8001bca:	685b      	ldr	r3, [r3, #4]
 8001bcc:	61fb      	str	r3, [r7, #28]
  initial_TxXferCount = Size;
 8001bce:	887b      	ldrh	r3, [r7, #2]
 8001bd0:	837b      	strh	r3, [r7, #26]

  if (!((tmp_state == HAL_SPI_STATE_READY) || \
 8001bd2:	f897 3023 	ldrb.w	r3, [r7, #35]	; 0x23
 8001bd6:	2b01      	cmp	r3, #1
 8001bd8:	d00f      	beq.n	8001bfa <HAL_SPI_TransmitReceive+0x70>
 8001bda:	69fb      	ldr	r3, [r7, #28]
 8001bdc:	f5b3 7f82 	cmp.w	r3, #260	; 0x104
 8001be0:	d107      	bne.n	8001bf2 <HAL_SPI_TransmitReceive+0x68>
        ((tmp_mode == SPI_MODE_MASTER) && (hspi->Init.Direction == SPI_DIRECTION_2LINES) && (tmp_state == HAL_SPI_STATE_BUSY_RX))))
 8001be2:	68fb      	ldr	r3, [r7, #12]
 8001be4:	689b      	ldr	r3, [r3, #8]
 8001be6:	2b00      	cmp	r3, #0
 8001be8:	d103      	bne.n	8001bf2 <HAL_SPI_TransmitReceive+0x68>
 8001bea:	f897 3023 	ldrb.w	r3, [r7, #35]	; 0x23
 8001bee:	2b04      	cmp	r3, #4
 8001bf0:	d003      	beq.n	8001bfa <HAL_SPI_TransmitReceive+0x70>
  {
    errorcode = HAL_BUSY;
 8001bf2:	2302      	movs	r3, #2
 8001bf4:	f887 302b 	strb.w	r3, [r7, #43]	; 0x2b
    goto error;
 8001bf8:	e15b      	b.n	8001eb2 <HAL_SPI_TransmitReceive+0x328>
  }

  if ((pTxData == NULL) || (pRxData == NULL) || (Size == 0U))
 8001bfa:	68bb      	ldr	r3, [r7, #8]
 8001bfc:	2b00      	cmp	r3, #0
 8001bfe:	d005      	beq.n	8001c0c <HAL_SPI_TransmitReceive+0x82>
 8001c00:	687b      	ldr	r3, [r7, #4]
 8001c02:	2b00      	cmp	r3, #0
 8001c04:	d002      	beq.n	8001c0c <HAL_SPI_TransmitReceive+0x82>
 8001c06:	887b      	ldrh	r3, [r7, #2]
 8001c08:	2b00      	cmp	r3, #0
 8001c0a:	d103      	bne.n	8001c14 <HAL_SPI_TransmitReceive+0x8a>
  {
    errorcode = HAL_ERROR;
 8001c0c:	2301      	movs	r3, #1
 8001c0e:	f887 302b 	strb.w	r3, [r7, #43]	; 0x2b
    goto error;
 8001c12:	e14e      	b.n	8001eb2 <HAL_SPI_TransmitReceive+0x328>
  }

  /* Don't overwrite in case of HAL_SPI_STATE_BUSY_RX */
  if (hspi->State != HAL_SPI_STATE_BUSY_RX)
 8001c14:	68fb      	ldr	r3, [r7, #12]
 8001c16:	f893 3051 	ldrb.w	r3, [r3, #81]	; 0x51
 8001c1a:	b2db      	uxtb	r3, r3
 8001c1c:	2b04      	cmp	r3, #4
 8001c1e:	d003      	beq.n	8001c28 <HAL_SPI_TransmitReceive+0x9e>
  {
    hspi->State = HAL_SPI_STATE_BUSY_TX_RX;
 8001c20:	68fb      	ldr	r3, [r7, #12]
 8001c22:	2205      	movs	r2, #5
 8001c24:	f883 2051 	strb.w	r2, [r3, #81]	; 0x51
  }

  /* Set the transaction information */
  hspi->ErrorCode   = HAL_SPI_ERROR_NONE;
 8001c28:	68fb      	ldr	r3, [r7, #12]
 8001c2a:	2200      	movs	r2, #0
 8001c2c:	655a      	str	r2, [r3, #84]	; 0x54
  hspi->pRxBuffPtr  = (uint8_t *)pRxData;
 8001c2e:	68fb      	ldr	r3, [r7, #12]
 8001c30:	687a      	ldr	r2, [r7, #4]
 8001c32:	639a      	str	r2, [r3, #56]	; 0x38
  hspi->RxXferCount = Size;
 8001c34:	68fb      	ldr	r3, [r7, #12]
 8001c36:	887a      	ldrh	r2, [r7, #2]
 8001c38:	87da      	strh	r2, [r3, #62]	; 0x3e
  hspi->RxXferSize  = Size;
 8001c3a:	68fb      	ldr	r3, [r7, #12]
 8001c3c:	887a      	ldrh	r2, [r7, #2]
 8001c3e:	879a      	strh	r2, [r3, #60]	; 0x3c
  hspi->pTxBuffPtr  = (uint8_t *)pTxData;
 8001c40:	68fb      	ldr	r3, [r7, #12]
 8001c42:	68ba      	ldr	r2, [r7, #8]
 8001c44:	631a      	str	r2, [r3, #48]	; 0x30
  hspi->TxXferCount = Size;
 8001c46:	68fb      	ldr	r3, [r7, #12]
 8001c48:	887a      	ldrh	r2, [r7, #2]
 8001c4a:	86da      	strh	r2, [r3, #54]	; 0x36
  hspi->TxXferSize  = Size;
 8001c4c:	68fb      	ldr	r3, [r7, #12]
 8001c4e:	887a      	ldrh	r2, [r7, #2]
 8001c50:	869a      	strh	r2, [r3, #52]	; 0x34

  /*Init field not used in handle to zero */
  hspi->RxISR       = NULL;
 8001c52:	68fb      	ldr	r3, [r7, #12]
 8001c54:	2200      	movs	r2, #0
 8001c56:	641a      	str	r2, [r3, #64]	; 0x40
  hspi->TxISR       = NULL;
 8001c58:	68fb      	ldr	r3, [r7, #12]
 8001c5a:	2200      	movs	r2, #0
 8001c5c:	645a      	str	r2, [r3, #68]	; 0x44
    SPI_RESET_CRC(hspi);
  }
#endif /* USE_SPI_CRC */

  /* Check if the SPI is already enabled */
  if ((hspi->Instance->CR1 & SPI_CR1_SPE) != SPI_CR1_SPE)
 8001c5e:	68fb      	ldr	r3, [r7, #12]
 8001c60:	681b      	ldr	r3, [r3, #0]
 8001c62:	681b      	ldr	r3, [r3, #0]
